:020000040800F2
:1000000078090020891B0008450100084701000805
:100010006F0100087301000877010008000000006C
:100020000000000000000000000000007B0100084C
:100030007D010008000000007F01000801030008A6
:10004000A31B0008A31B0008A31B0008A31B000898
:10005000A31B0008A31B0008A31B0008A31B000888
:10006000A31B0008A31B0008A31B0008A31B000878
:10007000A31B0008A31B0008A31B0008A31B000868
:10008000A31B0008A31B0008A31B0008A31B000858
:10009000A31B0008A31B0008A31B0008A31B000848
:1000A000A31B0008A31B0008A31B0008A31B000838
:1000B000A31B0008A31B0008A31B0008A31B000828
:1000C000A31B0008A31B0008A31B0008A31B000818
:1000D000A31B000853040008A31B0008A31B00086F
:1000E000A31B0008A31B0008A31B0008A31B0008F8
:1000F000A31B0008A31B0008A31B0008A31B0008E8
:10010000A31B0008A31B0008A31B0008A31B0008D7
:10011000A31B0008A31B0008A31B0008A31B0008C7
:10012000A31B0008A31B0008A31B0008A31B0008B7
:10013000DFF80CD001F09AFD004800478901000863
:1001400078090020704711E071B600BFBFF34F8FF0
:100150000B48006800F4E0600A490843001D0849A4
:100160000860BFF34F8F00BF00BFFEE7ECE700BFA2
:10017000FEE700BFFEE700BFFEE77047704770472D
:100180000CED00E00000FA0500F05AF84FF4E13001
:1001900000F0FEF800F0DCF900F07CF84FF4FA72A1
:1001A0001A491B4800F014FA2FE000F045FC1948EA
:1001B0000078E0B10020174908701748006818B1AE
:1001C000164815490968884715480078012809D15B
:1001D00014A1124801F00EFD20B100201049087052
:1001E00012490860124801680C4801F0F8FC1148F7
:1001F0000068B0F5FA7F08DB00200E4908600E4861
:100200000068C0430D49C1F8B401CEE732010020B7
:10021000280300201C0000202C0000209C0000204F
:1002200038000020434C4F53454400003400002068
:100230001000002000000020B401224200002242F1
:1002400008B54FF4A06000F0ADFE25208DF8000049
:1002500000208DF801008DF8020001208DF80300C8
:10026000684600F0A4FE08BD71B600BFBFF34F8F13
:100270000648006800F4E06005490843001D034992
:100280000860BFF34F8F00BF00BFFEE70CED00E03A
:100290000000FA0570B56FF0040000F0D2FE30489F
:1002A00000684FF47A72B0FBF2F1481EB0F1807F23
:1002B00000D31BE0481E4FF0E022506150170F2280
:1002C000002807DA13071D0E264B00F00F04241F29
:1002D0001D5503E013071C0E234B1C5400BF0020C8
:1002E0004FF0E02290610720106100BF70BD002137
:1002F0001E4A116000BF1D4909688142FBD3704747
:100300001A480068401C1949086019480068401CD8
:100310001749086017480068401C164908601648CD
:100320000068401C1449086014480068B8B11448BB
:100330000068401C124908600846006811490968B5
:1003400088420CD300200E4908600C4800680E4912
:10035000086000200949086001200C4908707047B6
:100360006400002018ED00E000E400E00800002038
:100370002800002030000020000000200C00002099
:100380001400002018000020100000201C00002095
:1003900010B586B00446012144F2040000F0DEFFEF
:1003A0004FF40070ADF8140003208DF816001820EB
:1003B0008DF8170005A95E4801F098FA4FF48060A7
:1003C000ADF8140004208DF8170005A9584801F075
:1003D0008DFA01940020ADF80800ADF80A00ADF8E0
:1003E0000C00ADF810000C20ADF80E0001A951482A
:1003F00001F05BF8012240F225514E4801F0EDF882
:1004000001214C4801F0DDF806B010BD70B504467E
:100410000D460BE014F8011B464801F03FF900BF00
:100420008021444801F0A8F90028F9D02800A5F15E
:100430000105EFD170BD10B5044621463D4801F0DD
:100440002DF900BF80213B4801F096F90028F9D032
:1004500010BD10B540F22551364801F0A3F9A8B1FE
:10046000344801F01FF9C4B2334834490968445490
:1004700032480068401C31490860084600688C28F2
:1004800001D90020086000202D49086040F2277142
:10049000284801F087F900B32A4800F0C3F8002883
:1004A0000ADD01222849274800F0EDF826480178A6
:1004B000204801F0F3F810E040F227711D4801F0E8
:1004C0009BF9002240F227711A4801F086F80122B8
:1004D00040F22661174801F080F840F22661154885
:1004E00001F060F950B140F22661124801F084F940
:1004F000002240F226610F4801F06FF810BD38B5B8
:1005000004460D46E0B200901048007838B901204A
:100510000E49087040F22661064801F06DF901238A
:100520006A460449074800F05FF9204638BD0000DC
:1005300000080140003801409C0000200C00002011
:1005400014000020280300201D0000201E000020B1
:1005500008B501217D2000F001FF4FF40050ADF8F7
:10056000000010208DF8030003208DF8020069467A
:10057000154801F0BBF90420ADF8000010208DF8FB
:10058000030003208DF802006946104801F0AEF91F
:100590002020ADF8000048208DF8030003208DF8DE
:1005A00002006946094801F0A1F94FF40070ADF866
:1005B000000014208DF8030003208DF80200694626
:1005C000024801F093F908BD00100140000C014001
:1005D00070B504460E4615461CB996A001F058FBAE
:1005E00070BD2580E660E0686060E068A06000BFE4
:1005F000F6E710B504461CB98EA001F049FB10BD0A
:100600000020E0606060A060208000BFF7E710B5C8
:1006100004462CB987A001F03BFB4FF0FF3010BD22
:100620002088FCE710B504462CB982A001F030FB0D
:100630004FF0FF3010BDD4E90101884201D1002004
:10064000F8E7D4E90101884203D2D4E90110401A45
:10065000F0E72046FFF7DBFFD4E90112891A401AC0
:10066000E8E770B504462CB972A001F011FB4FF019
:10067000FF3070BD2046FFF7CAFF05462046FFF752
:10068000D1FF281AF5E72DE9F04104460F4616463A
:1006900000252CB967A001F0FBFA681EBDE8F081C7
:1006A0002FB96BA001F0F4FA4FF0FF30F6E7D4E970
:1006B0000101884214D22046FFF7B4FFB04201DDA9
:1006C000304602E02046FFF7ADFF05462A46384691
:1006D000616801F06BFA6068284460602846DDE7D5
:1006E0002046FFF794FFE2686168891A401AB04219
:1006F0000ADD35462A463846616801F057FA6068D7
:10070000284460602846C9E72046FFF780FFE2687A
:100710006168891A451A2A463846616801F046FA26
:10072000E0686060701B82B279192046FFF7ABFF6A
:1007300005442846B2E72DE9F04104460F46154628
:1007400000262CB949A001F0A3FA701EBDE8F08183
:100750002FB94CA001F09CFA4FF0FF30F6E720468D
:10076000FFF77FFFA84205DC4CA001F091FA4FF0A3
:10077000FF30EBE7D4E9010188422BD82046FFF790
:1007800046FFD4E90212891A461AB54213DC2A46FA
:100790003946A06801F00AFAA0682844A060204603
:1007A000FFF735FFE1680844A168884201D1E0689D
:1007B000A0602846CAE732463946A06801F0F6F93B
:1007C000E068A060A81B82B2B9192046FFF7B3FF0A
:1007D0003044BBE72A463946A06801F0E7F9A06833
:1007E0002844A0602846B1E72DE9F04180460C4638
:1007F00015461E4600272DB92DA001F049FA781E96
:10080000BDE8F081B2B229464046FFF794FF0746A3
:10081000B74205D02FA001F03BFA4FF0FF30EFE7D1
:100820002CB1012240F22771204600F0D6FE384656
:10083000E6E700004552524F523A20696E707574D7
:10084000207262206973204E554C4C0A0000000053
:100850004552524F523A20696E707574206461742B
:1008600061206973204E554C4C0A00004552524F8E
:10087000523A20726220697320656D707479200A83
:10088000000000004552524F523A206461746120CA
:10089000697320656D707479200A00004552524FCB
:1008A000523A206E6F206D656D6F7279200A0000DC
:1008B0004552524F523A2067697A507574446174B8
:1008C000612062756620697320656D707479200AF5
:1008D000000000004552524F523A204661696C6553
:1008E0006420746F2072625772697465200A000078
:1008F00000B599B0AF4BB04AB0A1684601F0D8F945
:100900006946B5A001F0C4F919B000BDF8B50546B7
:10091000B24801F081F906463146B04801F05FF96E
:10092000AFA2B0A1284600F0EFF9044600F0E6F9C6
:10093000FCB1204601F070F911281AD12246A6A177
:10094000A64801F0B5F96B460022A9A1204600F0A7
:100950000DFA009806280CD10120A6490870A64877
:10096000006810B9A548006801E0A3480068A349E1
:100970000860F8BD2DE9F04704460D4617461E46AF
:10098000DDE908899E4801F047F9824651469C48B6
:1009900001F025F99B4801F03FF9824651469948FC
:1009A00001F01DF927B13A468BA1954801F080F975
:1009B00026B1324688A1934801F07AF905B1A847DB
:1009C0009148C0F800808C48C0F800901CB12146C6
:1009D00081A001F05DF9BDE8F08710B504468848B4
:1009E00001F01AF988B18649204601F003F960B197
:1009F0000120804908708048006810B97F4800686D
:100A000001E07D4800687D4908607E4801F004F9F6
:100A100088B17C49204601F0EDF860B101207549AC
:100A200008707548006810B97448006801E07248A1
:100A300000687249086010BD1CB5704800687349B1
:100A40000968884279D972480078002875D16B49C5
:100A500008606848007801280AD100206D490860C4
:100A6000644908706C480068401C6B4908600CE0E1
:100A700068480068401C6749086008460068032809
:100A800003DB0020086064490860634800680928A7
:100A900075D2DFE800F005121F2C39465359660065
:100AA0005A480068AFF2CD015CA35EA2CDE9001008
:100AB00000215DA0FFF75EFF79E054480068AFF2C7
:100AC000E50100235BA2CDE90010194659A0FFF70C
:100AD00051FF6CE04D480068AFF201114FA30022B6
:100AE000CDE90010114654A0FFF744FF5FE04748EE
:100AF0000068AFF2191100234AA2CDE9001019468F
:100B000051A0FFF737FF52E040480068AFF23511BF
:100B1000002344A2CDE90010194650A0FFF72AFF98
:100B200045E00020AFF24D1151A354A2CDE90010D1
:100B3000AFF24321FFF71EFF39E039E03648006885
:100B4000401C3549086000BF30480068AFF24321BF
:100B500000231A46CDE9001019464CA0FFF70AFF02
:100B600025E02A480068AFF28D114DA351A2CDE9CE
:100B70000010002151A0FFF7FDFE18E0FFE7234819
:100B8000006800210B460A46CDE900100846FFF731
:100B9000F1FE53A001F07CF8104954A001F078F860
:100BA00000201449087001201949087000BF00BFD7
:100BB0001CBD0000530000204900002041542B437D
:100BC000574A41505F4445463D222573222C222539
:100BD00073220D0A0000000025730000600300204E
:100BE000220000004D41435F4355523A220000006D
:100BF0003A000000480000204000002030000020A3
:100C0000380300204C0300202C0000203C00002072
:100C10003800002044000020340000207265616428
:100C2000790000004F4B000041542B5253540D0AE1
:100C3000000000002B2B2B0041542B524553544FE6
:100C400052450D0A0000000041542B43574D4F44BC
:100C5000455F4445463D310D0A00000041542B4399
:100C6000574155544F434F4E4E3D310D0A00000041
:100C70005749464920474F54204950005749464953
:100C800020434F4E4E4543544544000041542B43AE
:100C900049505354414D41435F4355523F0D0A0063
:100CA000414C524541445920434F4E4E45435445D3
:100CB00044000000434F4E4E4543540041542B43E3
:100CC000495053544152543D22544350222C226DDA
:100CD0006E69662E636E222C313838330D0A00009F
:100CE000C5E4D6C3CDEAB3C9210D0A004D4143B5D1
:100CF000D8D6B73A25730D0A0000000010B5304869
:100D0000006801F069F810BD2DE9F04781460F46F3
:100D10009046002400260025384600F07DFFC5B22D
:100D20003946484600F066FF0446ECB16119481C9C
:100D3000414600F05FFF0646A6B16119711A481CD2
:100D400001F072F881466019301A411C484600F0E3
:100D500046FF6019321A6119484600F027FF4846DD
:100D6000BDE8F0870020FBE70020F9E72DE9F04718
:100D700007460E46144698464FF000091FB1384604
:100D800000F04AFF08B9BDE8F0871EB1304600F018
:100D900043FF00B9F7E73146384600F045FF054606
:100DA00008E004B120C409F101093146002000F037
:100DB0003BFF0546002DF4D1C8F8009000BFE2E7E4
:100DC000600000200CB50020019000906C48006885
:100DD00040F480306A49086000BF6948006800F448
:100DE000003000900198401C0190009818B90198BB
:100DF000B0F5A06FF1D16248006800F4003010B186
:100E00000120009001E0002000900098012843D1CB
:100E10005C48006840F010005A49086008460068C5
:100E200020F0030008600846006840F002000860F7
:100E30005348406852494860084640684860084640
:100E4000406840F4806048600846406820F47C10A8
:100E500048600846406840F4E8104860084600686A
:100E600040F08070086000BF4548006800F00070E6
:100E70000028F9D04248406820F00300404948600B
:100E80000846406840F00200486000BF3C484068A7
:100E900000F00C000828F9D10CBD10B5FFF792FF47
:100EA00010BD10B53648006840F0010034490860B4
:100EB000084640683449084031494860084600689F
:100EC000324908402E4908600846006820F4802016
:100ED00008600846406820F4FE0048604FF41F0098
:100EE0008860FFF7DAFF4FF000602949086010BD05
:100EF00010B5002100200022214B5B6803F00C019B
:100F000021B1042906D0082928D107E0214B224C21
:100F1000236027E01F4B204C236023E0184B5B68C5
:100F200003F47010164B5B6803F48032022303EB6A
:100F3000904022B9194B4343174C23600DE0104BEE
:100F40005B6803F4003323B1144B4343124C23601A
:100F500003E0104B4343104C236003E00D4B0E4C59
:100F6000236000BF00BF064B5B68C3F303130C4C48
:100F7000E15C094B1B68CB40074C236010BD0000AF
:100F800000100240002002400000FFF8FFFFF6FEC4
:100F900008ED00E000127A006400002000093D0026
:100FA0006800002031490143314A1160704770B533
:100FB000002100230F22C47804B32D4C246804F4CC
:100FC000E064C4F5E064210AC1F10403CA40447836
:100FD00004FA03F18478144021430901254C067872
:100FE000A155047804F01F050124AC4005786D116B
:100FF000AD0005F1E025C5F8004109E0047804F0F2
:101000001F050124AC401C4D0678761145F826409A
:1010100070BD1A4A0A400243154B1B1F1A607047E5
:1010200039B1134A121D12680243114B1B1D1A607D
:1010300006E00F4A121D126882430D4B1B1D1A60F9
:101040007047042808D14FF0E021096941F00401FC
:101050004FF0E022116107E04FF0E021096921F033
:1010600004014FF0E0221161704700000000FA0512
:101070000CED00E000E400E080E100E080FFFF1FF5
:10108000DF48006840F00100DD490860084640681C
:10109000DC490840DA49486008460068DA490840F7
:1010A000D74908600846006820F480200860084698
:1010B000406820F4FE0048604FF41F0088607047CD
:1010C000CF49096821F48031CD4A11601146096881
:1010D00021F480211160B0F5803F03D0B0F5802F5E
:1010E0000ED106E0C649096841F48031C44A116056
:1010F00007E0C349096841F4A021C14A116000E03A
:1011000000BF00BF704710B5014600220023002039
:101110004A11012A02D1BA4C236806E0022A02D100
:10112000B74C236A01E0B64C636A01F01F02012448
:1011300094401C400CB1012000E0002010BD38B5E7
:10114000002000900024002500BF3120FFF7DBFFC6
:1011500005460098401C00900098B0F5A06F01D0A3
:10116000002DF2D03120FFF7CEFF08B1012400E0BE
:101170000024204638BD01460020A14A106820F016
:10118000F80040EAC10010607047A049086070474D
:10119000024600209A4B586820F47C1042EA010372
:1011A0001843974B58607047984908667047014646
:1011B0000020934A506820F00300084350607047B5
:1011C0008F48406800F00C007047014600208C4AB0
:1011D000506820F0F000084350607047014600203E
:1011E000874A506820F4E060084350607047014629
:1011F0000020834A506820F4605040EAC1005060EB
:10120000704729B17E4A527A02437D4B5A7204E0FC
:101210007B4A527A82437A4B5A7270477B49D83163
:101220000860704701460020754A506820F440402D
:101230000843506070470021714A20321170704A93
:1012400082F82010012802D004280AD104E00121EC
:101250006B4A2032117005E00521694A2032117075
:1012600000E000BF00BF70476949086070476449EB
:10127000096A0143624A116270476549443908604E
:10128000704730B500210022002400235C4D6D68BA
:1012900005F00C0121B1042905D0082923D105E06E
:1012A0005C4D056022E05B4D05601FE0544D6D68AC
:1012B00005F47012524D6D6805F48034022505EB7B
:1012C00092421CB9544D554305600BE04C4D6D687E
:1012D00005F400351DB1504D5543056002E04D4DFC
:1012E0005543056002E04B4D056000BF00BF444D13
:1012F0006D6805F0F0010909484D6B5C0568DD403B
:1013000045603F4D6D6805F4E061090A434D6B5C33
:101310004568DD4085603A4D6D6805F46051C90A45
:101320003E4D6B5C4568DD40C560354D6D6805F42C
:101330004041890B3A4D6B5CC568B5FBF3F505611F
:1013400030BD29B12E4A526902432D4B5A6104E047
:101350002B4A526982432A4B5A61704729B1284A65
:1013600092690243264B9A6104E0254A92698243BE
:10137000234B9A61704729B1214AD2690243204B1D
:10138000DA6104E01E4AD26982431D4BDA6170477C
:1013900029B11B4AD2680243194BDA6004E0184AAB
:1013A000D2688243164BDA60704729B1144A126939
:1013B0000243134B1A6104E0114A12698243104B35
:1013C0001A61704712494039086070470F49C86474
:1013D00070470B49C87170470948406A40F08070F7
:1013E00007494862704701460020054A92680A4052
:1013F0000AB1012000E0002070470149887270475F
:10140000001002400000FFF8FFFFF6FE000042421D
:101410008004424200127A0000093D00780000205A
:101420008800002010B50446FB48844209D1012100
:101430008803FFF7ADFF00214FF48040FFF7A8FFBE
:1014400032E0F648844209D101214804FFF7ADFF9C
:1014500000214FF40030FFF7A8FF25E0F048844258
:1014600009D101218804FFF7A0FF00214FF480205B
:10147000FFF79BFF18E0EB48844209D10121C80423
:10148000FFF793FF00214FF40020FFF78EFF0BE0E2
:10149000E548844208D101210805FFF786FF0021B5
:1014A0004FF48010FFF781FF10BD2DE9F04786B0A3
:1014B00005460E460024A24600BFA1460027B0897B
:1014C00000B100BF2F462C8A4CF6FF700440F08814
:1014D00004432C82AC894EF6F3100440B088318965
:1014E0000843718908430443AC81AC8A4FF6FF403E
:1014F0000440B0890443AC8201A8FFF7C2FEC6488D
:10150000874202D1DDF810A001E0DDF80CA0A88927
:1015100000F4004040B10AEBCA0000EB0A10316849
:101520004900B0FBF1F807E00AEBCA0000EB0A1033
:1015300031688900B0FBF1F86420B8FBF0F00401D9
:101540002009642101FB1089A88900F4004040B102
:10155000322000EBC900B0FBF1F000F007000443BB
:1015600008E0322000EB09106421B0FBF1F000F03C
:101570000F0004432C8106B0BDE8F0874FF41651EC
:10158000016000218180C18001810C214181002105
:101590008181704710B502460020108A4FF2FF0388
:1015A00018400B884C8823438C882343CC882343E2
:1015B0001843108210BD0021018041808180C180CC
:1015C000704721B1828942F40052828104E082890D
:1015D0004DF6FF731A4082817047F0B50346002430
:1015E00000260025002040F66A17B94200D100BF4E
:1015F0001846C1F3421401F01F06012707FA06F549
:10160000012C01D10C3004E0022C01D1103000E09B
:1016100014301AB107682F43076002E00768AF4330
:101620000760F0BD1AB1838A0B43838202E0838A8C
:101630008B4383827047028A4FF6F0731A4002820E
:10164000028A0A430282704782894FF2FF731A406E
:10165000828182890A438281704721B1828942F066
:101660000202828104E082894FF6FD731A40828172
:101670007047028A4FF6DF731A400282028A0A43D9
:101680000282704721B1028A42F48042028204E061
:10169000028A4BF6FF731A4002827047C1F30802B8
:1016A0008280704701468888C0F3080070478189AE
:1016B00041F0010181817047028BD2B20283028B1B
:1016C00042EA012202837047028B02F47F420283C6
:1016D000028B0A430283704721B1828A42F02002C2
:1016E000828204E0828A4FF6DF731A40828270475A
:1016F00021B1828A42F01002828204E0828A4FF68F
:10170000EF731A408282704721B1828A42F0080248
:10171000828204E0828A4FF6F7731A408282704711
:1017200021B1828942F40042828103E08289C2F3BE
:101730000E028281704721B1828A42F40062828265
:1017400004E0828A4FF2FF731A4082827047828AD5
:101750004FF6FB731A408282828A0A438282704764
:1017600021B1828A42F00202828204E0828A4FF62C
:10177000FD731A408282704702460020B1F5007F57
:1017800000D100BF13880B400BB1012000E0002006
:10179000704701F40072B2F5007F00D100BFCA4368
:1017A0000280704770B50246002400230025002007
:1017B00040F66A16B14200D100BFC1F3421501F0F4
:1017C0001F03012606FA03F3012D02D19689334047
:1017D00006E0022D02D1168A334001E0968A33409A
:1017E0000C12012606FA04F41688344013B10CB129
:1017F000012000E0002070BD10B50022002340F65B
:101800006A14A14200D100BF0A1201249440A3B27D
:10181000DC43048010BD000000380140004400405B
:1018200000480040004C00400050004010B5044605
:10183000CC48844208D101210420FFF7A9FD0021F2
:101840000420FFF7A5FD46E0C748844208D10121E6
:101850000820FFF79DFD00210820FFF799FD3AE0E1
:10186000C248844208D101211020FFF791FD0021D8
:101870001020FFF78DFD2EE0BD48844208D10121E4
:101880002020FFF785FD00212020FFF781FD22E0C9
:10189000B848844208D101214020FFF779FD00219A
:1018A0004020FFF775FD16E0B348844208D10121BE
:1018B0008020FFF76DFD00218020FFF769FD0AE021
:1018C000AE48844207D101218015FFF761FD002158
:1018D000A015FFF75DFD10BD10B501210846FFF70B
:1018E00057FD00210120FFF753FD10BD2DE9F04108
:1018F000024600250026002000230024002791F83E
:1019000003C00CF00F0591F803C00CF0100CBCF1F3
:10191000000F03D091F802C04CEA050591F800C011
:10192000BCF1000F31D0146800202BE04FF0010C07
:101930000CFA00F3B1F800C00CEA03069E4220D175
:1019400083004FF00F0C0CFA03F7BC4305FA03FCBD
:101950004CEA040491F803C0BCF1280F06D14FF003
:10196000010C0CFA00FCC2F814C00AE091F803C0A4
:10197000BCF1480F05D14FF0010C0CFA00FCC2F885
:1019800010C0401C0828D1D31460B1F800C0BCF1CD
:10199000FF0F34DD546800202EE000F1080C4FF0FA
:1019A000010808FA0CF3B1F800C00CEA03069E42E5
:1019B00021D183004FF00F0C0CFA03F7BC4305FA5A
:1019C00003FC4CEA040491F803C0BCF1280F05D1D4
:1019D00000F1080C08FA0CF8C2F8148091F803C062
:1019E000BCF1480F07D100F1080C4FF0010808FACC
:1019F0000CF8C2F81080401C0828CED35460BDE813
:101A0000F0814FF6FF710180022181700421C170C5
:101A100070470246002093680B400BB1012000E0A4
:101A2000002070470146886880B270470246002057
:101A3000D3680B400BB1012000E000207047014645
:101A4000C86880B2704701617047416170470AB150
:101A5000016100E041617047C16070474FF480321E
:101A60000A438261816182618269826970470246AC
:101A70000020434B18684FF68073184040EA02106C
:101A800008433F4B186070473E49C8617047F0B546
:101A90000A46002300240021002500F00046B6F18C
:101AA000004F02D1364EF16901E0354E7168C0F346
:101AB000034583B200F44016B6F5401F08D121F06B
:101AC00070612F4E766826F070662D4F7E6012E0B2
:101AD00000F48016B6F5801F06D1032606FA05F439
:101AE000A14341F0706106E0460D360103FA06F6A7
:101AF000B14341F0706122B1460D360103FA06F69A
:101B0000314300F00046B6F1004F02D11C4EF161A6
:101B100001E01B4E7160F0BD30B500228B071C0F39
:101B20000F2303FA04F2164B08338C1053F82430B9
:101B30009343134C08348D1044F8253023468C1001
:101B400053F824308C07240F00FA04F423430C4C80
:101B500008348D1044F8253030BD0A49DC31086066
:101B60007047000000080140000C014000100140D7
:101B70000014014000180140001C014000200140F9
:101B80000000014000002042064880470648004708
:101B9000FEE7FEE7FEE7FEE7FEE7FEE7FEE7FEE71D
:101BA000FEE7FEE7A30E00083101000840EA01034A
:101BB0009B0703D009E008C9121F08C0042AFAD203
:101BC00003E011F8013B00F8013B521EF9D27047C7
:101BD000D2B201E000F8012B491EFBD2704700226F
:101BE000F6E710B513460A4604461946FFF7F0FF1C
:101BF000204610BD30B505462A460B4612F8010BAB
:101C000013F8014B08B1A042F8D01CB1002802D053
:101C10006D1CF1E7284630BD421C10F8011B00295D
:101C2000FBD1801A7047000070B50F4D00B92868CD
:101C3000002412E00A4602E09E4203D0521C1378B0
:101C4000002BF9D1DAB2224305D02BB124B1002107
:101C500000F8011B04E00446401C0678002EE9D180
:101C60002860204670BD00008C000020064C074D07
:101C700006E0E06840F0010394E80700984710345C
:101C8000AC42F6D3FEF758FA941E0008B41E0008C2
:101C90000FB4054B10B503A9044A029800F02BF8C5
:101CA00010BC5DF814FB0000FF0400089000002049
:101CB0000FB4084B10B504A902AA039800F01BF852
:101CC000044602A9002000F081F8204610BC5DF80F
:101CD00014FB0000CD1D000802E008C8121F08C157
:101CE000002AFAD170477047002001E001C1121F9D
:101CF000002AFBD170472DE9F84F99469246884655
:101D00000546002706E025280AD051464A46904756
:101D10006D1C7F1C28780028F5D13846BDE8F88F67
:101D2000002315F8011F18462E2915D115F8011F9B
:101D300004232A290DD06FF02F022978A1F1300455
:101D4000092C09D800EB800002EB400008446D1C10
:101D5000F3E758F8040B6D1C2A78002ADDD0632ABB
:101D600007D0732A0FD0104651464A4690477F1C31
:101D70002AE018F8042B8DF8002000218DF80110BE
:101D80006E46012103E058F8046B4FF0FF315A070B
:101D90004FF0000401D409E0641C84420BDA8C4249
:101DA000FADB325D002AF7D105E0641C8C42FCDBD3
:101DB000305D0028F9D1274404E016F8010B5146A4
:101DC0004A469047641EF8D26D1CA3E70A68531C6C
:101DD0000B6010707047000010B5002821D0114B27
:101DE0000022001F196803E0814203D80A464968AF
:101DF0000029F9D152B11368841A9C4204D10068B9
:101E000018441060104602E0506000E0186039B1DC
:101E100002680B1A934203D10B681A4402604968A6
:101E2000416010BD94000020F0B50B30154D20F03E
:101E300007010024144A0FE003688B420BD38B4246
:101E400005D95E1A43184768C3E9006700E0436894
:101E5000136002C004E0021D10680028ECD1204687
:101E6000002802D1286808B10020F0BD064A0748C2
:101E70001060074A121A22F00702C0E9002401206C
:101E80002860D7E798000020940000207C03002001
:101E900078050020B41E0008000000209C0000000F
:101EA000D81C0008501F00089C000020DC0800001F
:101EB000E81C000800000000000000000000000016
:101EC0000000000000000000000000000A00000008
:101ED0000000000000000000010000000000000001
:101EE00000000000000000000000000000000000F2
:101EF000B80B0000000000000000000000717171CC
:101F0000717100000000003131323233333434005B
:101F1000000000000000000000A24A0400000000D1
:101F20000000000001020304060708090000000089
:101F3000010203040102030406070809020406085B
:101F40000000000000000000000000000000000091
:0400000508000131BD
:00000001FF
