:020000040800F2
:1000000040070020FD1600084501000847010008D0
:100010006F0100087301000877010008000000006C
:100020000000000000000000000000007B0100084C
:100030007D010008000000007F010008090300089E
:1000400017170008171700081717000817170008D8
:1000500017170008171700081717000817170008C8
:1000600017170008171700081717000817170008B8
:1000700017170008171700081717000817170008A8
:100080001717000817170008171700081717000898
:100090001717000817170008171700081717000888
:1000A0001717000817170008171700081717000878
:1000B0001717000817170008171700081717000868
:1000C0001717000817170008171700081717000858
:1000D000171700088B0400081717000817170008E7
:1000E0001717000817170008171700081717000838
:1000F0001717000817170008171700081717000828
:100100001717000817170008171700081717000817
:100110001717000817170008171700081717000807
:1001200017170008171700081717000817170008F7
:10013000DFF80CD001F018FB0048004789010008E7
:1001400040070020704711E071B600BFBFF34F8F2A
:100150000B48006800F4E0600A490843001D0849A4
:100160000860BFF34F8F00BF00BFFEE7ECE700BFA2
:10017000FEE700BFFEE700BFFEE77047704770472D
:100180000CED00E00000FA0500F05EF84FF4E130FD
:1001900000F01AF900F008FA00F080F84FF4FA7253
:1001A0001F49204800F040FA0A221F491F4800F06A
:1001B0003BFA34E01E48006841F2883188421AD385
:1001C00000201B4908600A221A49164800F038FB33
:1001D0000A20194908700122144800F031FB0F224F
:1001E0001649104800F02CFB0F201349087001221B
:1001F0000E4800F025FB1248007880B1002010491D
:1002000008700A220B49074800F01AFB0A22094924
:10021000044800F015FB96210A4801F09AFAC9E754
:100220000201002020030020F802002030030020FB
:100230001C000020000000201A0000200B000020FD
:10024000300000206C00002008B54FF4A06000F0E2
:1002500063FC25208DF8000000208DF801008DF84A
:10026000020001208DF80300684600F05AFC08BD2A
:1002700071B600BFBFF34F8F0648006800F4E0601E
:1002800005490843001D03490860BFF34F8F00BFB5
:1002900000BFFEE70CED00E00000FA0570B56FF05E
:1002A000040000F088FC3B4800684FF47A72B0FB11
:1002B000F2F1481EB0F1807F00D31BE0481E4FF0E2
:1002C000E022506150170F22002807DA13071D0E95
:1002D000314B00F00F04241F1D5503E013071C0EC3
:1002E0002E4B1C5400BF00204FF0E02290610720ED
:1002F000106100BF70BD0021294A116000BF28496C
:1003000009688142FBD3704710B525480068401C3E
:100310002349086023480068F8B923480068401C56
:100320002149086008460068B0F57A7F15D300209F
:1003300008601E4800F0A2F900280BDD01221949CF
:100340001A4800F0CCF9012240F22771184800F059
:10035000FEFE02E00A201449086016480068B8B1A1
:1003600015480068401C1449086008460068134995
:10037000096888420CD300200F4908600D480068C6
:100380000F49086000200B49086001200D490870E2
:1003900010BD00004000002018ED00E000E400E087
:1003A0001C00002034000020380000203003002012
:1003B0000038014020000020280000202C000020F0
:1003C000240000203000002010B586B00446012132
:1003D00044F2040000F07CFD4FF40070ADF814000E
:1003E00003208DF8160018208DF8170005A9654820
:1003F00001F036F84FF48060ADF8140004208DF859
:10040000170005A95F4801F02BF801940020ADF812
:100410000800ADF80A00ADF80C00ADF810000C2093
:10042000ADF80E0001A9584800F0F9FD012240F294
:100430002551554800F08BFE0121534800F07BFE0A
:1004400006B010BD70B504460D460BE014F8011B54
:100450004D4800F0DDFE00BF80214B4800F046FF14
:100460000028F9D02800A5F10105EFD170BD10B525
:1004700004462146444800F0CBFE00BF802142489C
:1004800000F034FF0028F9D010BD10B540F225511E
:100490003D4800F041FFA8B13B4800F0BDFEC4B2AA
:1004A0003A483B490968445439480068401C384977
:1004B0000860084600688C2801D9002008600020E8
:1004C0003449086040F227712F4800F025FF58B3E7
:1004D00031480068A0B1314800F0D0F800280FDDA5
:1004E00001222F492D4800F0FAF82D4801782648BE
:1004F00000F08EFE28480068401E2749086013E07F
:1005000040F22771204800F031FF002240F22771AD
:100510001D4800F01CFE012240F226611A4800F03E
:1005200016FE00201C49086040F22661164800F0C3
:10053000F3FE50B140F22661134800F017FF00228D
:1005400040F22661104800F002FE10BD70B504466E
:100550000E46E5B21348007838B9012011490870F9
:1005600040F22661084800F001FFE1B2064800F0C1
:100570004FFE00BF4021044800F0B8FE0028F9D02B
:10058000204670BD00080140003801406C0000208A
:10059000200000202800002034000020200300203C
:1005A000310000203C00002008B501217D2000F032
:1005B0008FFC4FF40050ADF8000010208DF80300C0
:1005C00003208DF802006946154800F049FF042019
:1005D000ADF8000010208DF8030003208DF8020014
:1005E0006946104800F03CFF2020ADF8000048208C
:1005F0008DF8030003208DF802006946094800F0D9
:100600002FFF4FF40070ADF8000014208DF80300A8
:1006100003208DF802006946024800F021FF08BD62
:1006200000100140000C014070B504460E4615460E
:100630001CB992A001F0AAF870BD2580E660E068C0
:100640006060E068A06000BFF6E710B504461CB922
:100650008AA001F09BF810BD0020E0606060A060FF
:10066000208000BFF7E710B504462CB983A001F045
:100670008DF84FF0FF3010BD2088FCE710B5044620
:100680002CB97EA001F082F84FF0FF3010BDD4E904
:100690000101884201D10020F8E7D4E90101884234
:1006A00003D2D4E90110401AF0E72046FFF7DBFF40
:1006B000D4E90112891A401AE8E770B504462CB94A
:1006C0006EA001F063F84FF0FF3070BD2046FFF7D9
:1006D000CAFF05462046FFF7D1FF281AF5E72DE9A6
:1006E000F04104460F46164600252CB963A001F0E0
:1006F0004DF8681EBDE8F0812FB967A001F046F8FB
:100700004FF0FF30F6E7D4E90101884214D22046C9
:10071000FFF7B4FFB04201DD304602E02046FFF7AC
:10072000ADFF05462A463846616800F0F9FF60686B
:10073000284460602846DDE72046FFF794FFE26822
:100740006168891A401AB0420ADD35462A463846A1
:10075000616800F0E5FF6068284460602846C9E7EA
:100760002046FFF780FFE2686168891A451A2A4629
:100770003846616800F0D4FFE0686060701B82B2A8
:1007800079192046FFF7ABFF05442846B2E72DE96B
:10079000F04104460F46154600262CB945A000F04E
:1007A000F5FF701EBDE8F0812FB948A000F0EEFF04
:1007B0004FF0FF30F6E72046FFF77FFFA84205DC49
:1007C00048A000F0E3FF4FF0FF30EBE7D4E9010170
:1007D00088422BD82046FFF746FFD4E90212891A37
:1007E000461AB54213DC2A463946A06800F098FF45
:1007F000A0682844A0602046FFF735FFE168084460
:10080000A168884201D1E068A0602846CAE7324664
:100810003946A06800F084FFE068A060A81B82B29F
:10082000B9192046FFF7B3FF3044BBE72A463946E3
:10083000A06800F075FFA0682844A0602846B1E7D2
:100840002DE9F04107460D46144600262DB92AA091
:1008500000F09CFF701EBDE8F081A2B22946384628
:10086000FFF795FF0646A64205D02CA000F08EFFAC
:100870004FF0FF30EFE73046EDE700004552524FB2
:10088000523A20696E707574207262206973204E2E
:10089000554C4C0A000000004552524F523A206914
:1008A0006E7075742064617461206973204E554CBC
:1008B0004C0A00004552524F523A2072622069732E
:1008C00020656D707479200A000000004552524F77
:1008D000523A206461746120697320656D70747987
:1008E000200A00004552524F523A206E6F206D652B
:1008F0006D6F7279200A00004552524F523A2067BC
:10090000697A5075744461746120627566206973F8
:1009100020656D707479200A000000004552524F26
:10092000523A204661696C656420746F2072625788
:1009300072697465200A00000CB5002001900090D7
:100940006C48006840F480306A49086000BF69481C
:10095000006800F4003000900198401C019000985D
:1009600018B90198B0F5A06FF1D16248006800F4A1
:10097000003010B10120009001E0002000900098AC
:10098000012843D15C48006840F010005A490860D3
:100990000846006820F0030008600846006840F040
:1009A0000200086053484068524948600846406861
:1009B00048600846406840F48060486008464068E7
:1009C00020F47C1048600846406840F4E810486015
:1009D0000846006840F08070086000BF4548006825
:1009E00000F000700028F9D04248406820F0030071
:1009F000404948600846406840F00200486000BF37
:100A00003C48406800F00C000828F9D10CBD10B536
:100A1000FFF792FF10BD10B53648006840F00100A6
:100A20003449086008464068344908403149486004
:100A300008460068324908402E49086008460068A8
:100A400020F4802008600846406820F4FE004860DA
:100A50004FF41F008860FFF7DAFF4FF0006029496C
:100A6000086010BD10B5002100200022214B5B68FA
:100A700003F00C0121B1042906D0082928D107E090
:100A8000214B224C236027E01F4B204C236023E0A6
:100A9000184B5B6803F47010164B5B6803F48032EC
:100AA000022303EB904022B9194B4343174C2360B8
:100AB0000DE0104B5B6803F4003323B1144B434348
:100AC000124C236003E0104B4343104C236003E0BF
:100AD0000D4B0E4C236000BF00BF064B5B68C3F399
:100AE00003130C4CE15C094B1B68CB40074C2360A3
:100AF00010BD000000100240002002400000FFF87E
:100B0000FFFFF6FE08ED00E000127A004000002032
:100B100000093D004400002031490143314A116081
:100B2000704770B5002100230F22C47804B32D4C08
:100B3000246804F4E064C4F5E064210AC1F104030C
:100B4000CA40447804FA03F184781440214309012F
:100B5000254C0678A155047804F01F050124AC400B
:100B600005786D11AD0005F1E025C5F8004109E0FB
:100B7000047804F01F050124AC401C4D0678761162
:100B800045F8264070BD1A4A0A400243154B1B1F08
:100B90001A60704739B1134A121D12680243114B93
:100BA0001B1D1A6006E00F4A121D126882430D4B8E
:100BB0001B1D1A607047042808D14FF0E021096915
:100BC00041F004014FF0E022116107E04FF0E02115
:100BD000096921F004014FF0E02211617047000023
:100BE0000000FA050CED00E000E400E080E100E028
:100BF00080FFFF1FDF48006840F00100DD4908600A
:100C000008464068DC490840DA4948600846006800
:100C1000DA490840D74908600846006820F4802077
:100C200008600846406820F4FE0048604FF41F004A
:100C300088607047CF49096821F48031CD4A11603E
:100C40001146096821F480211160B0F5803F03D07E
:100C5000B0F5802F0ED106E0C649096841F4803115
:100C6000C44A116007E0C349096841F4A021C14AA0
:100C7000116000E000BF00BF704710B501460022C0
:100C8000002300204A11012A02D1BA4C236806E051
:100C9000022A02D1B74C236A01E0B64C636A01F024
:100CA0001F02012494401C400CB1012000E00020F0
:100CB00010BD38B5002000900024002500BF312071
:100CC000FFF7DBFF05460098401C00900098B0F548
:100CD000A06F01D0002DF2D03120FFF7CEFF08B178
:100CE000012400E00024204638BD01460020A14A2E
:100CF000106820F0F80040EAC10010607047A04979
:100D000008607047024600209A4B586820F47C1017
:100D100042EA01031843974B5860704798490866A8
:100D2000704701460020934A506820F003000843B2
:100D3000506070478F48406800F00C0070470146D3
:100D400000208C4A506820F0F00008435060704743
:100D500001460020874A506820F4E0600843506054
:100D6000704701460020834A506820F4605040EAF2
:100D7000C1005060704729B17E4A527A02437D4BD0
:100D80005A7204E07B4A527A82437A4B5A72704715
:100D90007B49D8310860704701460020754A506889
:100DA00020F440400843506070470021714A2032CF
:100DB0001170704A82F82010012802D004280AD14C
:100DC00004E001216B4A2032117005E00521694AD7
:100DD0002032117000E000BF00BF70476949086011
:100DE00070476449096A0143624A11627047654964
:100DF00044390860704730B50021002200240023E8
:100E00005C4D6D6805F00C0121B1042905D008295D
:100E100023D105E05C4D056022E05B4D05601FE0DD
:100E2000544D6D6805F47012524D6D6805F48034B0
:100E3000022505EB92421CB9544D554305600BE069
:100E40004C4D6D6805F400351DB1504D554305609E
:100E500002E04D4D5543056002E04B4D056000BF7B
:100E600000BF444D6D6805F0F0010909484D6B5C09
:100E70000568DD4045603F4D6D6805F4E061090A95
:100E8000434D6B5C4568DD4085603A4D6D6805F407
:100E90006051C90A3E4D6B5C4568DD40C560354D0B
:100EA0006D6805F44041890B3A4D6B5CC568B5FB34
:100EB000F3F5056130BD29B12E4A526902432D4B2D
:100EC0005A6104E02B4A526982432A4B5A617047A7
:100ED00029B1284A92690243264B9A6104E0254AC7
:100EE00092698243234B9A61704729B1214AD269A2
:100EF0000243204BDA6104E01E4AD26982431D4B53
:100F0000DA61704729B11B4AD2680243194BDA6093
:100F100004E0184AD2688243164BDA60704729B160
:100F2000144A12690243134B1A6104E0114A126910
:100F30008243104B1A61704712494039086070476C
:100F40000F49C86470470B49C87170470948406A27
:100F500040F0807007494862704701460020054A0A
:100F600092680A400AB1012000E000207047014960
:100F700088727047001002400000FFF8FFFFF6FE85
:100F8000000042428004424200127A0000093D0003
:100F9000540000206400002010B50446FB48844241
:100FA00009D101218803FFF7ADFF00214FF48040F4
:100FB000FFF7A8FF32E0F648844209D10121480436
:100FC000FFF7ADFF00214FF40030FFF7A8FF25E049
:100FD000F048844209D101218804FFF7A0FF0021D5
:100FE0004FF48020FFF79BFF18E0EB48844209D1C3
:100FF0000121C804FFF793FF00214FF40020FFF701
:101000008EFF0BE0E548844208D101210805FFF777
:1010100086FF00214FF48010FFF781FF10BD2DE9FE
:10102000F04786B005460E460024A24600BFA14602
:101030000027B08900B100BF2F462C8A4CF6FF7004
:101040000440F08804432C82AC894EF6F31004402F
:10105000B08831890843718908430443AC81AC8A64
:101060004FF6FF400440B0890443AC8201A8FFF76B
:10107000C2FEC648874202D1DDF810A001E0DDF8CB
:101080000CA0A88900F4004040B10AEBCA0000EBB4
:101090000A1031684900B0FBF1F807E00AEBCA001A
:1010A00000EB0A1031688900B0FBF1F86420B8FB4E
:1010B000F0F004012009642101FB1089A88900F4E3
:1010C000004040B1322000EBC900B0FBF1F000F06D
:1010D0000700044308E0322000EB09106421B0FB54
:1010E000F1F000F00F0004432C8106B0BDE8F0875A
:1010F0004FF41651016000218180C18001810C21D3
:10110000418100218181704710B502460020108A7C
:101110004FF2FF0318400B884C8823438C882343ED
:10112000CC8823431843108210BD002101804180E8
:101130008180C180704721B1828942F4005282814E
:1011400004E082894DF6FF731A4082817047F0B542
:101150000346002400260025002040F66A17B94205
:1011600000D100BF1846C1F3421401F01F06012749
:1011700007FA06F5012C01D10C3004E0022C01D154
:10118000103000E014301AB107682F43076002E006
:101190000768AF430760F0BD1AB1838A0B438382AF
:1011A00002E0838A8B4383827047028A4FF6F07392
:1011B0001A400282028A0A430282704782894FF2F1
:1011C000FF731A40828182890A438281704721B16C
:1011D000828942F00202828104E082894FF6FD7327
:1011E0001A4082817047028A4FF6DF731A400282EA
:1011F000028A0A430282704721B1028A42F4804285
:10120000028204E0028A4BF6FF731A4002827047A2
:10121000C1F308028280704701468888C0F3080045
:101220007047818941F0010181817047028BD2B200
:101230000283028B42EA012202837047028B02F48E
:101240007F420283028B0A430283704721B1828A64
:1012500042F02002828204E0828A4FF6DF731A4055
:101260008282704721B1828A42F01002828204E0B9
:10127000828A4FF6EF731A408282704721B1828AC8
:1012800042F00802828204E0828A4FF6F7731A4025
:101290008282704721B1828942F40042828103E058
:1012A0008289C2F30E028281704721B1828A42F4A0
:1012B0000062828204E0828A4FF2FF731A408282C7
:1012C0007047828A4FF6FB731A408282828A0A43F1
:1012D0008282704721B1828A42F00202828204E057
:1012E000828A4FF6FD731A408282704702460020C0
:1012F000B1F5007F00D100BF13880B400BB1012076
:1013000000E00020704701F40072B2F5007F00D1C8
:1013100000BFCA430280704770B502460024002314
:101320000025002040F66A16B14200D100BFC1F38B
:10133000421501F01F03012606FA03F3012D02D125
:101340009689334006E0022D02D1168A334001E02F
:10135000968A33400C12012606FA04F416883440AB
:1013600013B10CB1012000E0002070BD10B50022C7
:10137000002340F66A14A14200D100BF0A120124E2
:101380009440A3B2DC43048010BD0000003801404B
:101390000044004000480040004C00400050004025
:1013A00010B50446CC48844208D101210420FFF73F
:1013B000A9FD00210420FFF7A5FD46E0C7488442AF
:1013C00008D101210820FFF79DFD00210820FFF72B
:1013D00099FD3AE0C248844208D101211020FFF76C
:1013E00091FD00211020FFF78DFD2EE0BD488442C5
:1013F00008D101212020FFF785FD00212020FFF7E3
:1014000081FD22E0B848844208D101214020FFF745
:1014100079FD00214020FFF775FD16E0B3488442B6
:1014200008D101218020FFF76DFD00218020FFF70A
:1014300069FD0AE0AE48844207D101218015FFF71B
:1014400061FD0021A015FFF75DFD10BD10B5012164
:101450000846FFF757FD00210120FFF753FD10BD9F
:101460002DE9F0410246002500260020002300243B
:10147000002791F803C00CF00F0591F803C00CF0A1
:10148000100CBCF1000F03D091F802C04CEA050526
:1014900091F800C0BCF1000F31D0146800202BE09F
:1014A0004FF0010C0CFA00F3B1F800C00CEA03068F
:1014B0009E4220D183004FF00F0C0CFA03F7BC437F
:1014C00005FA03FC4CEA040491F803C0BCF1280FB0
:1014D00006D14FF0010C0CFA00FCC2F814C00AE06F
:1014E00091F803C0BCF1480F05D14FF0010C0CFA84
:1014F00000FCC2F810C0401C0828D1D31460B1F819
:1015000000C0BCF1FF0F34DD546800202EE000F174
:10151000080C4FF0010808FA0CF3B1F800C00CEA0F
:1015200003069E4221D183004FF00F0C0CFA03F703
:10153000BC4305FA03FC4CEA040491F803C0BCF177
:10154000280F05D100F1080C08FA0CF8C2F8148035
:1015500091F803C0BCF1480F07D100F1080C4FF01F
:10156000010808FA0CF8C2F81080401C0828CED3F5
:101570005460BDE8F0814FF6FF7101800221817057
:101580000421C17070470246002093680B400BB1E4
:10159000012000E0002070470146886880B2704753
:1015A00002460020D3680B400BB1012000E0002070
:1015B00070470146C86880B2704701617047416159
:1015C00070470AB1016100E041617047C160704736
:1015D0004FF480320A43826181618261826982694B
:1015E000704702460020434B18684FF6807318403E
:1015F00040EA021008433F4B186070473E49C861FB
:101600007047F0B50A46002300240021002500F0B1
:101610000046B6F1004F02D1364EF16901E0354E79
:101620007168C0F3034583B200F44016B6F5401F5D
:1016300008D121F070612F4E766826F070662D4F2C
:101640007E6012E000F48016B6F5801F06D10326F6
:1016500006FA05F4A14341F0706106E0460D36013B
:1016600003FA06F6B14341F0706122B1460D36012E
:1016700003FA06F6314300F00046B6F1004F02D1FE
:101680001C4EF16101E01B4E7160F0BD30B50022CF
:101690008B071C0F0F2303FA04F2164B08338C1030
:1016A00053F824309343134C08348D1044F82530FC
:1016B00023468C1053F824308C07240F00FA04F4CE
:1016C00023430C4C08348D1044F8253030BD0A49B2
:1016D000DC3108607047000000080140000C014048
:1016E000001001400014014000180140001C01409E
:1016F00000200140000001400000204206488047D1
:1017000006480047FEE7FEE7FEE7FEE7FEE7FEE7E6
:10171000FEE7FEE7FEE7FEE7170A000831010008D2
:1017200040EA01039B0703D009E008C9121F08C063
:10173000042AFAD203E011F8013B00F8013B521EE3
:10174000F9D27047D2B201E000F8012B491EFBD25A
:1017500070470022F6E710B513460A4604461946BC
:10176000FFF7F0FF204610BD064C074D06E0E0688D
:1017700040F0010394E8070098471034AC42F6D3D8
:10178000FEF7DAFCDC170008FC170008014A0249E2
:1017900000F013B84D0500086800002002E008C8FA
:1017A000121F08C1002AFAD170477047002001E0DB
:1017B00001C1121F002AFBD170472DE9F0411646E6
:1017C0000F460446002503E03946B047641C6D1CF3
:1017D00020780028F8D12846BDE8F081FC170008E1
:1017E000000000206C0000009C170008681800082A
:1017F0006C000020D4060000AC17000871776572F9
:10180000747975696F7000616161616161616161C5
:101810006161616161610000000000000000000082
:1018200000000000000000000A00000000000000AE
:1018300000000000000000000000000000A24A04B8
:101840000000000000000000010203040607080970
:101850000000000001020304010203040607080956
:0818600002040608000000006C
:0400000508000131BD
:00000001FF
