:020000040800F2
:10000000780B0020B91500084501000847010008D9
:100010006F0100087301000877010008000000006C
:100020000000000000000000000000007B0100084C
:100030007D010008000000007F010008E5020008C3
:10004000D3150008D3150008D3150008D3150008F0
:10005000D3150008D3150008D3150008D3150008E0
:10006000D3150008D3150008D3150008D3150008D0
:10007000D3150008D3150008D3150008D3150008C0
:10008000D3150008D3150008D3150008D3150008B0
:10009000D3150008D3150008D3150008D3150008A0
:1000A000D3150008D3150008D3150008D315000890
:1000B000D3150008D3150008D3150008D315000880
:1000C000D3150008D3150008D3150008D315000870
:1000D000D31500085B040008D3150008D3150008E9
:1000E000D3150008D3150008D3150008D315000850
:1000F000D3150008D3150008D3150008D315000840
:10010000D3150008D3150008D3150008D31500082F
:10011000D3150008D3150008D3150008D31500081F
:10012000D3150008D3150008D3150008D31500080F
:10013000DFF80CD001F07AFA004800478901000886
:10014000780B0020704711E071B600BFBFF34F8FEE
:100150000B48006800F4E0600A490843001D0849A4
:100160000860BFF34F8F00BF00BFFEE7ECE700BFA2
:10017000FEE700BFFEE700BFFEE77047704770472D
:100180000CED00E00000FA0508B500F04BF84FF464
:10019000E13000F001F900F0E9F900F06DF81448E1
:1001A0004FF4FA73032213490090134800F0A4FAA5
:1001B0000F48007820B10E48017810A001F048FAED
:1001C00014E01548006840F6B83188420ED3084B59
:1001D00011221249084800F0AFFA054B1E221049BF
:1001E000054800F0A9FA00200B490860E9E7000083
:1001F00000000020780000203C0700204D656D4D78
:10020000616E616765437265617465206572723DF8
:1002100025640D0A000000003000002001000020CD
:100220001200002008B54FF4A06000F0D3FB252099
:100230008DF8000000208DF801008DF802000120EB
:100240008DF80300684600F0CAFB08BD71B600BF18
:10025000BFF34F8F0648006800F4E060054908438B
:10026000001D03490860BFF34F8F00BF00BFFEE7CA
:100270000CED00E00000FA0570B56FF0040000F02E
:10028000F8FB3A4800684FF47A72B0FBF2F1481E6E
:10029000B0F1807F00D31BE0481E4FF0E022506198
:1002A00050170F22002807DA13071D0E304B00F0FD
:1002B0000F04241F1D5503E013071C0E2D4B1C5467
:1002C00000BF00204FF0E02290610720106100BFC6
:1002D00070BD0021284A116000BF2749096881428A
:1002E000FBD3704710B524480068401C22490860C1
:1002F00022484069F0B921488068401C1F49886045
:10030000084680680A2815DB0020886014311B48E5
:1003100000F044FA1949086008464069002806DDE3
:10032000012240F22771164800F06FFE02E00A2019
:100330001249886013480068B8B113480068401C2F
:1003400011490860084600681049096888420CD3C2
:1003500000200D4908600B4800680D490860002026
:100360000849086001200B49087010BD4C000020AE
:1003700018ED00E000E400E0300000203C07002021
:1003800000380140340000203C00002040000020E4
:10039000380000204400002010B586B0044601213A
:1003A00044F2040000F0F2FC4FF40070ADF81400C9
:1003B00003208DF8160018208DF8170005A9644851
:1003C00000F0ACFF4FF48060ADF8140004208DF80D
:1003D000170005A95E4800F0A1FF01940020ADF8C8
:1003E0000800ADF80A00ADF80C00ADF810000C20C4
:1003F000ADF80E0001A9574800F06FFD012240F250
:100400002551544800F001FE0121524800F0F1FD51
:1004100006B010BD70B504460D460BE014F8011B84
:100420004C4800F053FE00BF80214A4800F0BCFE5B
:100430000028F9D02800A5F10105EFD170BD10B555
:1004400004462146434800F041FE00BF8021414858
:1004500000F0AAFE0028F9D010BD10B540F22551D9
:100460003C4800F0B7FEA8B13A4800F033FEC4B2F1
:1004700039483A490968445438480068401C3749AB
:100480000860084600688C2801D900200860002018
:100490003349086040F227712E4800F09BFE50B3AC
:1004A0003048406900280FDD2E480068017829484F
:1004B00000F00CFE2B480068401C2A4908600846E2
:1004C0004069401E486116E0002026494861084600
:1004D00000F075F940F227711E4800F0A5FE0022D9
:1004E00040F227711B4800F090FD012240F2266186
:1004F000184800F08AFD40F22661164800F06AFEB6
:1005000050B140F22661134800F08EFE002240F206
:100510002661104800F079FD10BD70B504460D4607
:100520001148007838B901200F49087040F226615F
:10053000084800F079FEE1B2064800F0C7FD00BFB0
:100540004021044800F030FE0028F9D0204670BD5C
:10055000000801400038014054060020340000200B
:100560003C0000203C0700204500002008B5012188
:100570007D2000F00BFC4FF40050ADF8000010207F
:100580008DF8030003208DF802006946154800F03D
:10059000C5FE0420ADF8000010208DF803000320F4
:1005A0008DF802006946104800F0B8FE2020ADF832
:1005B000000048208DF8030003208DF802006946F2
:1005C000094800F0ABFE4FF40070ADF800001420B5
:1005D0008DF8030003208DF802006946024800F000
:1005E0009DFE08BD00100140000C01402DE9F041C6
:1005F00004460D46022D04D26F2018700020BDE87D
:10060000F081042A03D2702018700020F7E73848E0
:100610000168006830B1364800684068DFF8D08073
:10062000C8F8000019B96E2018700020E7E72646C8
:10063000A7184FF0000C04E037603E4617440CF159
:10064000010C681E6045F7D8002030600C604C60DB
:100650000D61CD608A6018700846D0E702461069C7
:1006600048B15368186850601069401E106100203E
:10067000087018467047712008700020FAE71D487E
:1006800000210DE04A1C02EB82021A4B03EB8202AE
:100690004260002202600261C26082601430491C24
:1006A0000329EFD30023134A1364114B1A607047D8
:1006B0000246D2E90330984201D372207047506855
:1006C000086051601069401C10610020F6E7024686
:1006D000106808605068486090688860D068C8609A
:1006E00010690861D1E90303C01A4861002070470E
:1006F00048000020EC0600202DE9F04704460E4695
:1007000017469846DDF82090FFF7B9FF4B46424662
:1007100039463046FFF76AFFA0630020A061E06120
:10072000002505E0002104F12C0040F825106D1C87
:10073000032DF7D3BDE8F0872DE9F04104460F46BD
:1007400015461E4672B604F12C00E16950F82100EE
:10075000F8B93146A06BFFF781FF04F12001E2698F
:1007600041F822003078B0B92A46E36951F82300F5
:10077000394600F033FF04F12C00E16940F82150C4
:10078000E069401CE061E069032804D30020E061D7
:1007900001E07120307062B6BDE8F081024602F1DE
:1007A0002C00936950F823000860086828B102F112
:1007B0002000936950F8230070470020FCE710B533
:1007C000044672B6002104F12C00A26940F8221000
:1007D00004F12002A36952F82310A06BFFF768FF11
:1007E000A069401CA061A069032801D30020A0617A
:1007F00062B610BD0CB50020019000906C480068F6
:1008000040F480306A49086000BF6948006800F41D
:10081000003000900198401C0190009818B9019890
:10082000B0F5A06FF1D16248006800F4003010B15B
:100830000120009001E0002000900098012843D1A1
:100840005C48006840F010005A490860084600689B
:1008500020F0030008600846006840F002000860CD
:100860005348406852494860084640684860084616
:10087000406840F4806048600846406820F47C107E
:1008800048600846406840F4E81048600846006840
:1008900040F08070086000BF4548006800F00070BC
:1008A0000028F9D04248406820F0030040494860E1
:1008B0000846406840F00200486000BF3C4840687D
:1008C00000F00C000828F9D10CBD10B5FFF792FF1D
:1008D00010BD10B53648006840F00100344908608A
:1008E0000846406834490840314948600846006875
:1008F000324908402E4908600846006820F48020EC
:1009000008600846406820F4FE0048604FF41F006D
:100910008860FFF7DAFF4FF000602949086010BDDA
:1009200010B5002100200022214B5B6803F00C0170
:1009300021B1042906D0082928D107E0214B224CF7
:10094000236027E01F4B204C236023E0184B5B689B
:1009500003F47010164B5B6803F48032022303EB40
:10096000904022B9194B4343174C23600DE0104BC4
:100970005B6803F4003323B1144B4343124C2360F0
:1009800003E0104B4343104C236003E00D4B0E4C2F
:10099000236000BF00BF064B5B68C3F303130C4C1E
:1009A000E15C094B1B68CB40074C236010BD000085
:1009B00000100240002002400000FFF8FFFFF6FE9A
:1009C00008ED00E000127A004C00002000093D0014
:1009D0005000002031490143314A1160704770B521
:1009E000002100230F22C47804B32D4C246804F4A2
:1009F000E064C4F5E064210AC1F10403CA4044780C
:100A000004FA03F18478144021430901254C067847
:100A1000A155047804F01F050124AC4005786D1140
:100A2000AD0005F1E025C5F8004109E0047804F0C7
:100A30001F050124AC401C4D0678761145F8264070
:100A400070BD1A4A0A400243154B1B1F1A607047BB
:100A500039B1134A121D12680243114B1B1D1A6053
:100A600006E00F4A121D126882430D4B1B1D1A60CF
:100A70007047042808D14FF0E021096941F00401D2
:100A80004FF0E022116107E04FF0E021096921F009
:100A900004014FF0E0221161704700000000FA05E8
:100AA0000CED00E000E400E080E100E080FFFF1FCB
:100AB000DF48006840F00100DD49086008464068F2
:100AC000DC490840DA49486008460068DA490840CD
:100AD000D74908600846006820F48020086008466E
:100AE000406820F4FE0048604FF41F0088607047A3
:100AF000CF49096821F48031CD4A11601146096857
:100B000021F480211160B0F5803F03D0B0F5802F33
:100B10000ED106E0C649096841F48031C44A11602B
:100B200007E0C349096841F4A021C14A116000E00F
:100B300000BF00BF704710B501460022002300200F
:100B40004A11012A02D1BA4C236806E0022A02D1D6
:100B5000B74C236A01E0B64C636A01F01F0201241E
:100B600094401C400CB1012000E0002010BD38B5BD
:100B7000002000900024002500BF3120FFF7DBFF9C
:100B800005460098401C00900098B0F5A06F01D079
:100B9000002DF2D03120FFF7CEFF08B1012400E094
:100BA0000024204638BD01460020A14A106820F0EC
:100BB000F80040EAC10010607047A0490860704723
:100BC000024600209A4B586820F47C1042EA010348
:100BD0001843974B5860704798490866704701461C
:100BE0000020934A506820F003000843506070478B
:100BF0008F48406800F00C007047014600208C4A86
:100C0000506820F0F0000843506070470146002013
:100C1000874A506820F4E0600843506070470146FE
:100C20000020834A506820F4605040EAC1005060C0
:100C3000704729B17E4A527A02437D4B5A7204E0D2
:100C40007B4A527A82437A4B5A7270477B49D83139
:100C50000860704701460020754A506820F4404003
:100C60000843506070470021714A20321170704A69
:100C700082F82010012802D004280AD104E00121C2
:100C80006B4A2032117005E00521694A203211704B
:100C900000E000BF00BF70476949086070476449C1
:100CA000096A0143624A1162704765494439086024
:100CB000704730B500210022002400235C4D6D6890
:100CC00005F00C0121B1042905D0082923D105E044
:100CD0005C4D056022E05B4D05601FE0544D6D6882
:100CE00005F47012524D6D6805F48034022505EB51
:100CF00092421CB9544D554305600BE04C4D6D6854
:100D000005F400351DB1504D5543056002E04D4DD1
:100D10005543056002E04B4D056000BF00BF444DE8
:100D20006D6805F0F0010909484D6B5C0568DD4010
:100D300045603F4D6D6805F4E061090A434D6B5C09
:100D40004568DD4085603A4D6D6805F46051C90A1B
:100D50003E4D6B5C4568DD40C560354D6D6805F402
:100D60004041890B3A4D6B5CC568B5FBF3F50561F5
:100D700030BD29B12E4A526902432D4B5A6104E01D
:100D80002B4A526982432A4B5A61704729B1284A3B
:100D900092690243264B9A6104E0254A9269824394
:100DA000234B9A61704729B1214AD2690243204BF3
:100DB000DA6104E01E4AD26982431D4BDA61704752
:100DC00029B11B4AD2680243194BDA6004E0184A81
:100DD000D2688243164BDA60704729B1144A12690F
:100DE0000243134B1A6104E0114A12698243104B0B
:100DF0001A61704712494039086070470F49C8644A
:100E000070470B49C87170470948406A40F08070CC
:100E100007494862704701460020054A92680A4027
:100E20000AB1012000E00020704701498872704734
:100E3000001002400000FFF8FFFFF6FE00004242F3
:100E40008004424200127A0000093D006000002048
:100E50007000002010B50446FB48844209D10121EE
:100E60008803FFF7ADFF00214FF48040FFF7A8FF94
:100E700032E0F648844209D101214804FFF7ADFF72
:100E800000214FF40030FFF7A8FF25E0F04884422E
:100E900009D101218804FFF7A0FF00214FF4802031
:100EA000FFF79BFF18E0EB48844209D10121C804F9
:100EB000FFF793FF00214FF40020FFF78EFF0BE0B8
:100EC000E548844208D101210805FFF786FF00218B
:100ED0004FF48010FFF781FF10BD2DE9F04786B079
:100EE00005460E460024A24600BFA1460027B08951
:100EF00000B100BF2F462C8A4CF6FF700440F088EA
:100F000004432C82AC894EF6F3100440B08831893A
:100F10000843718908430443AC81AC8A4FF6FF4013
:100F20000440B0890443AC8201A8FFF7C2FEC64862
:100F3000874202D1DDF810A001E0DDF80CA0A889FD
:100F400000F4004040B10AEBCA0000EB0A1031681F
:100F50004900B0FBF1F807E00AEBCA0000EB0A1009
:100F600031688900B0FBF1F86420B8FBF0F00401AF
:100F70002009642101FB1089A88900F4004040B1D8
:100F8000322000EBC900B0FBF1F000F00700044391
:100F900008E0322000EB09106421B0FBF1F000F012
:100FA0000F0004432C8106B0BDE8F0874FF41651C2
:100FB000016000218180C18001810C2141810021DB
:100FC0008181704710B502460020108A4FF2FF035E
:100FD00018400B884C8823438C882343CC882343B8
:100FE0001843108210BD0021018041808180C180A2
:100FF000704721B1828942F40052828104E08289E3
:101000004DF6FF731A4082817047F0B50346002405
:1010100000260025002040F66A17B94200D100BF23
:101020001846C1F3421401F01F06012707FA06F51E
:10103000012C01D10C3004E0022C01D1103000E071
:1010400014301AB107682F43076002E00768AF4306
:101050000760F0BD1AB1838A0B43838202E0838A62
:101060008B4383827047028A4FF6F0731A400282E4
:10107000028A0A430282704782894FF2FF731A4044
:10108000828182890A438281704721B1828942F03C
:101090000202828104E082894FF6FD731A40828148
:1010A0007047028A4FF6DF731A400282028A0A43AF
:1010B0000282704721B1028A42F48042028204E037
:1010C000028A4BF6FF731A4002827047C1F308028E
:1010D0008280704701468888C0F308007047818984
:1010E00041F0010181817047028BD2B20283028BF1
:1010F00042EA012202837047028B02F47F4202839C
:10110000028B0A430283704721B1828A42F0200297
:10111000828204E0828A4FF6DF731A40828270472F
:1011200021B1828A42F01002828204E0828A4FF664
:10113000EF731A408282704721B1828A42F008021E
:10114000828204E0828A4FF6F7731A4082827047E7
:1011500021B1828942F40042828103E08289C2F394
:101160000E028281704721B1828A42F4006282823B
:1011700004E0828A4FF2FF731A4082827047828AAB
:101180004FF6FB731A408282828A0A43828270473A
:1011900021B1828A42F00202828204E0828A4FF602
:1011A000FD731A408282704702460020B1F5007F2D
:1011B00000D100BF13880B400BB1012000E00020DC
:1011C000704701F40072B2F5007F00D100BFCA433E
:1011D0000280704770B502460024002300250020DD
:1011E00040F66A16B14200D100BFC1F3421501F0CA
:1011F0001F03012606FA03F3012D02D1968933401D
:1012000006E0022D02D1168A334001E0968A33406F
:101210000C12012606FA04F41688344013B10CB1FE
:10122000012000E0002070BD10B50022002340F630
:101230006A14A14200D100BF0A1201249440A3B253
:10124000DC43048010BD0000003801400044004031
:1012500000480040004C00400050004010B50446DB
:10126000CC48844208D101210420FFF7A9FD0021C8
:101270000420FFF7A5FD46E0C748844208D10121BC
:101280000820FFF79DFD00210820FFF799FD3AE0B7
:10129000C248844208D101211020FFF791FD0021AE
:1012A0001020FFF78DFD2EE0BD48844208D10121BA
:1012B0002020FFF785FD00212020FFF781FD22E09F
:1012C000B848844208D101214020FFF779FD002170
:1012D0004020FFF775FD16E0B348844208D1012194
:1012E0008020FFF76DFD00218020FFF769FD0AE0F7
:1012F000AE48844207D101218015FFF761FD00212E
:10130000A015FFF75DFD10BD10B501210846FFF7E0
:1013100057FD00210120FFF753FD10BD2DE9F041DD
:10132000024600250026002000230024002791F813
:1013300003C00CF00F0591F803C00CF0100CBCF1C9
:10134000000F03D091F802C04CEA050591F800C0E7
:10135000BCF1000F31D0146800202BE04FF0010CDD
:101360000CFA00F3B1F800C00CEA03069E4220D14B
:1013700083004FF00F0C0CFA03F7BC4305FA03FC93
:101380004CEA040491F803C0BCF1280F06D14FF0D9
:10139000010C0CFA00FCC2F814C00AE091F803C07A
:1013A000BCF1480F05D14FF0010C0CFA00FCC2F85B
:1013B00010C0401C0828D1D31460B1F800C0BCF1A3
:1013C000FF0F34DD546800202EE000F1080C4FF0D0
:1013D000010808FA0CF3B1F800C00CEA03069E42BB
:1013E00021D183004FF00F0C0CFA03F7BC4305FA30
:1013F00003FC4CEA040491F803C0BCF1280F05D1AA
:1014000000F1080C08FA0CF8C2F8148091F803C037
:10141000BCF1480F07D100F1080C4FF0010808FAA1
:101420000CF8C2F81080401C0828CED35460BDE8E8
:10143000F0814FF6FF710180022181700421C1709B
:1014400070470246002093680B400BB1012000E07A
:10145000002070470146886880B27047024600202D
:10146000D3680B400BB1012000E00020704701461B
:10147000C86880B2704701617047416170470AB126
:10148000016100E041617047C16070474FF48032F4
:101490000A43826181618261826982697047024682
:1014A0000020434B18684FF68073184040EA021042
:1014B00008433F4B186070473E49C8617047F0B51C
:1014C0000A46002300240021002500F00046B6F162
:1014D000004F02D1364EF16901E0354E7168C0F31C
:1014E000034583B200F44016B6F5401F08D121F041
:1014F00070612F4E766826F070662D4F7E6012E088
:1015000000F48016B6F5801F06D1032606FA05F40E
:10151000A14341F0706106E0460D360103FA06F67C
:10152000B14341F0706122B1460D360103FA06F66F
:10153000314300F00046B6F1004F02D11C4EF1617C
:1015400001E01B4E7160F0BD30B500228B071C0F0F
:101550000F2303FA04F2164B08338C1053F824308F
:101560009343134C08348D1044F8253023468C10D7
:1015700053F824308C07240F00FA04F423430C4C56
:1015800008348D1044F8253030BD0A49DC3108603C
:101590007047000000080140000C014000100140AD
:1015A0000014014000180140001C014000200140CF
:1015B00000000140000020420648804706480047DE
:1015C000FEE7FEE7FEE7FEE7FEE7FEE7FEE7FEE7F3
:1015D000FEE7FEE7D30800083101000840EA0103F6
:1015E0009B0703D009E008C9121F08C0042AFAD2D9
:1015F00003E011F8013B00F8013B521EF9D270479D
:1016000030B50B46014600202022012409E021FAD2
:1016100002F59D4205D303FA02F5491B04FA02F5CF
:101620002844151EA2F10102F1DC30BD064C074D25
:1016300006E0E06840F0010394E8070098471034A2
:10164000AC42F6D3FEF778FDE41700080418000852
:101650000FB4054B10B503A9044A029800F018F81E
:1016600010BC5DF814FB00001B050008740000208E
:1016700002E008C8121F08C1002AFAD1704770475B
:10168000002001E001C1121F002AFBD170470000B9
:101690002DE9FF4F89B09B460446002506E025282A
:1016A0000BD05A460B999047641C6D1C207800287B
:1016B000F5D10DB02846BDE8F08F0027B8460122CD
:1016C000474900E0074314F8013F203B02FA03F0CA
:1016D0000842F7D120782E2819D114F8010F47F0CD
:1016E00004072A280ED06FF02F022078A0F13001D5
:1016F00009290CD808EB880102EB410100EB010835
:10170000641CF2E70A98641C50F8048B0A90207855
:101710000028CED0642808D0692806D075281ED0AD
:101720005A460B9990476D1C58E00A994FF00A09E8
:1017300001C90A91002802DA40422D2102E0390550
:1017400004D52B218DF82010012103E0F90704D0E6
:101750002021F7E78A4608AE0DE00021FAE70A9952
:101760004FF00A0901C90A91F7E74946FFF748FF18
:10177000303106F8011D0028F7D1ADEB060000F16D
:101780002009780701D44FF00108C84502DDA8EB15
:10179000090000E000208046002706E008A85A461D
:1017A000C05D0B9990476D1C7F1C5745F6DB04E02C
:1017B00030205A460B9990476D1CB8F10001A8F1F2
:1017C0000108F5DC05E016F8010B5A460B99904725
:1017D0006D1CB9F10001A9F10109F4DC641C65E795
:1017E000092801000418000800000020780000000B
:1017F000701600087C18000878000020000B00001C
:10180000801600080031313131313131313131311F
:10181000313131310D0A303030303030303030300D
:1018200030303030303030303030303030303030B8
:1018300030300D0A00000000000000000000000031
:10184000000000000A00000000000000000000008E
:1018500000A24A040000000000000000010203048E
:101860000607080900000000010203040102030446
:0C1870000607080902040608000000003A
:0400000508000131BD
:00000001FF
