:020000040800F2
:10000000B0B9002045010008B10900087D090008C9
:10001000AD090008750700084F0F00080000000038
:10002000000000000000000000000000590B000864
:100030007907000800000000610A00086D0C000844
:100040005F0100085F0100085F0100085F01000810
:100050005F0100085F0100085F0100085F01000800
:100060005F0100085F0100085F0100085F010008F0
:100070005F0100085F0100085F0100085F010008E0
:100080005F0100085F0100085F0100085F010008D0
:100090005F0100085F0100085F0100085F010008C0
:1000A0005F0100085F0100085F0100085F010008B0
:1000B0005F0100085F0100085F0100085F010008A0
:1000C0005F0100085F0100085F0100085F01000890
:1000D0005F010008290D00085F0100085F010008AA
:1000E0005F0100085F0100085F0100085F01000870
:1000F0005F0100085F0100085F0100085F01000860
:100100005F0100085F0100085F0100085F0100084F
:100110005F0100085F0100085F0100085F0100083F
:100120005F0100085F0100085F0100085F0100082F
:10013000DFF80CD000F07EFA004800470D240008DC
:10014000B0B900200648804706480047FEE7FEE7B2
:10015000FEE7FEE7FEE7FEE7FEE7FEE7FEE7FEE777
:10016000C90C0008310100080649074A08685043D5
:1001700043F23902104408604008704701490860A2
:1001800070470000980000206D4EC64110B5431A1C
:10019000934209D28318881803E010F8011D03F870
:1001A000011D521EF9D210BD40EA01039B0703D086
:1001B00009E008C9121F08C0042AFAD203E011F8A6
:1001C000013B00F8013B521EF9D210BDD2B201E052
:1001D00000F8012B491EFBD270470022F6E710B54C
:1001E00013460A4604461946FFF7F0FF204610BDA5
:1001F000421C10F8011B0029FBD1801A704730B552
:1002000004460020034600E05B1C934203D2E05CFE
:10021000CD5C401BF8D030BD10B54843044602F019
:100220002FF9002805D00021002C02D0641E0155B2
:10023000FAE710BD30B50B4601460020202201240C
:1002400009E021FA02F59D4205D303FA02F5491BA4
:1002500004FA02F52844151EA2F10102F1DC30BDBA
:100260002DE9F05F0546002092469B4688460646EB
:10027000814640241BE0284641464746224600F07E
:10028000FAF953465A46C01A914110D311461846FE
:10029000224600F0E1F92D1A67EB01084F4622468D
:1002A0000120002100F0D8F917EB00094E41201E73
:1002B000A4F10104DFDC484631462A464346BDE846
:1002C000F09F2DE9FE4F804681EA0300C00F0C46E7
:1002D000009021F0004123F00045B8EB0200A94155
:1002E00005D24046214690461C460B46024623F066
:1002F0000040104347D0270DC7F30A00C3F30A514B
:100300000290401A019040286BDAC3F3130040F4C6
:10031000801B0098924620B10023D2EB030A63EBC6
:100320000B0B01985946C0F14002504600F094F979
:1003300006460D4650465946019A00F0ACF910EBBE
:1003400008006141002487EA115284EAE7731A43E6
:1003500040D0009A62B3019A012A4FEA075215DC95
:10036000001B61EB02014FF0004202EA0752CDE9A7
:100370000042001C41F5801132462B4600F0ACF9DA
:1003800003B0BDE8F08F40462146F9E7001B61EB62
:100390000201001C41F5801300185B412018A2F5F2
:1003A000001747EB030140EAD570B6196D4111E023
:1003B0006D084FEA360645EAC0754FEA0752001B42
:1003C00061EB0201001C41F5801149084FEA300041
:1003D0000019514132462B4603B0BDE8F04F00F002
:1003E0006CB90098012240000023D0EB020263EBBD
:1003F000E073009821464FEAE074B8EB000061EB2F
:100400000401E9E783F000435BE781F0004158E72E
:100410002DE9FE4F81EA030404F0004421F000417D
:1004200000944FF0000B23F0004350EA01045ED02B
:1004300052EA03045BD0C3F30A54C1F30A552C44B7
:10044000A4F2F3340194A0FB0254C1F3130141F46C
:100450008011C3F3130343F4801301FB024400FB38
:10046000034E840A970A44EA815447EA8357A4FB5F
:10047000076802958D0A05FB07854FEA932C04FB5C
:100480000C542705029D4FEA065847EA1637B5EB8C
:1004900008056EEB070C870E920E47EA811742EAB9
:1004A0008312A7FB0201B6EB0B0164EB00042B0DDA
:1004B00043EA0C335E1844EB1C50DA465146E7FB26
:1004C0000201C5F313044FEA0B3343EA14534FEA16
:1004D0000432019C43EA0603A4F10C040294009C3C
:1004E000CDE900B400F0F8F803B0BDE8F08F0020CB
:1004F0000146F9E72DE9F04D81EA030404F0004BD1
:1005000021F0004514464FF0000A23F0004150EA64
:10051000050220D054EA01021DD0C5F30A57024655
:10052000C5F31303C1F31300C1F30A5640F4801559
:1005300043F48013A7EB0608101BD64608F2FD38DB
:1005400073EB050002D308F1010801E092185B414A
:10055000B8F1000F03DA00200146BDE8F08D00205D
:100560004FF48011064684460EE0171B73EB050717
:1005700005D3121B63EB050306434CEA010C490843
:100580004FEA300092185B4150EA0107EDD152EA80
:10059000030012D082EA040083EA0501084305D073
:1005A000101BAB4106D20122002306E000224FF0CF
:1005B000004302E06FF0010253101AEB06004CEB0F
:1005C000085110EB0A0041EB0B01BDE8F04D00F0C3
:1005D00074B8C1F30A52C1F3130140F2FF3341F47E
:1005E00080119A4202DA00200146704740F23343FC
:1005F0009A42A2F2334202DC524200F03CB800F0D0
:100600002BB8000030B5041E71F1000404DB4FF07C
:100610000044404264EB0101141E73F1000405DB49
:100620001C464FF00043524263EB0403994208BF5B
:10063000904230BD064C074D06E0E06840F00103F3
:1006400094E8070098471034AC42F6D3FFF774FDE6
:10065000A0CF0108C0CF0108202A04DB203A00FA0D
:1006600002F1002070479140C2F1200320FA03F309
:10067000194390407047202A04DB203A21FA02F007
:100680000021704721FA02F3D040C2F120029140CC
:10069000084319467047202A06DBCB17203A41FA57
:1006A00002F043EAE07306E041FA02F3D040C2F1FF
:1006B0002002914008431946704710B5141E73F18B
:1006C000000408DA401C41F1000192185B411A4312
:1006D00001D120F0010010BD2DE9F04D92469B465E
:1006E00011B1B1FA81F202E0B0FA80F22032904604
:1006F000FFF7B2FF04460F4640EA0A0041EA0B0149
:1007000053465A46084313D0114653EA010019D004
:10071000C8F140025046FFF7AEFF05460E46504670
:1007200059464246FFF798FF084305D0012004E0F0
:1007300020463946BDE8F08D0020054346EAE076C4
:100740002C4337430A986305E40AA0EB0800002213
:10075000FD0A44EA47540A3002D500200146E9E781
:10076000010510196941DDE9084500196941BDE835
:10077000F04DA2E700BFFEE77047000070B56FF0D4
:10078000040000F05FFA144800684FF47A72B0FB7E
:10079000F2F1481EB0F1807F00D31BE0481E4FF0FD
:1007A000E022506150170F22002807DA13071D0EB0
:1007B0000A4B00F00F04241F1D5503E013071C0E05
:1007C000074B1C5400BF00204FF0E022906107202F
:1007D000106100BF70BD00003000002018ED00E087
:1007E00000E400E02DE9F04102460025002600204B
:1007F00000230024002791F803C00CF00F0591F8A6
:1008000003C00CF0100CBCF1000F03D091F802C033
:100810004CEA050591F800C0BCF1000F31D0146816
:1008200000202BE04FF0010C0CFA00F3B1F800C0EF
:100830000CEA03069E4220D183004FF00F0C0CFA05
:1008400003F7BC4305FA03FC4CEA040491F803C027
:10085000BCF1280F06D14FF0010C0CFA00FCC2F8D5
:1008600014C00AE091F803C0BCF1480F05D14FF065
:10087000010C0CFA00FCC2F810C0401C0828D1D3AF
:100880001460B1F800C0BCF1FF0F34DD54680020E3
:100890002EE000F1080C4FF0010808FA0CF3B1F853
:1008A00000C00CEA03069E4221D183004FF00F0CDA
:1008B0000CFA03F7BC4305FA03FC4CEA040491F874
:1008C00003C0BCF1280F05D100F1080C08FA0CF8A0
:1008D000C2F8148091F803C0BCF1480F07D100F1B1
:1008E000080C4FF0010808FA0CF8C2F81080401C00
:1008F0000828CED35460BDE8F081000008B501217E
:100900007D2000F0AFF84FF40050ADF8000010204B
:100910008DF8030003208DF8020069461548FFF7A3
:1009200061FF0420ADF8000010208DF803000320C3
:100930008DF8020069461048FFF754FF2020ADF8FB
:10094000000048208DF8030003208DF8020069465E
:100950000948FFF747FF4FF40070ADF8000014207E
:100960008DF8030003208DF8020069460248FFF766
:1009700039FF08BD00100140000C014011E071B6C4
:1009800000BFBFF34F8F0748006800F4E0600649DE
:100990000843001D03490860BFF34F8F00BF00BF2D
:1009A000FEE7ECE70CED00E00000FA0500BFFEE713
:1009B000704708B54FF4A06000F048F825208DF886
:1009C000000000208DF801008DF8020001208DF854
:1009D0000300684600F002F808BD000070B5002171
:1009E00000230F22C47804B3154C246804F4E06497
:1009F000C4F5E064210AC1F10403CA40447804FA52
:100A000003F184781440214309010E4C0678A15566
:100A1000047804F01F050124AC4005786D11AD0089
:100A200005F1E025C5F8004109E0047804F01F0550
:100A30000124AC40044D0678761145F8264070BD7F
:100A40000CED00E000E400E080E100E00249014339
:100A5000024A1160704700000000FA050CED00E04A
:100A60007047000029B1064A92690243044B9A611B
:100A700004E0034A92698243014B9A617047000087
:100A80000010024030B500210022002400232D4D2B
:100A90006D6805F00C0121B1042905D0082923D186
:100AA00005E0294D056022E0274D05601FE0254D3A
:100AB0006D6805F47012234D6D6805F480340225CD
:100AC00005EB92421CB9214D554305600BE01D4DCD
:100AD0006D6805F400351DB11C4D5543056002E0FD
:100AE000194D5543056002E0174D056000BF00BF7A
:100AF000144D6D6805F0F0010909154D6B5C056832
:100B0000DD4045600F4D6D6805F4E061090A104D48
:100B10006B5C4568DD4085600A4D6D6805F4605189
:100B2000C90A0B4D6B5C4568DD40C560054D6D68BD
:100B300005F44041890B074D6B5CC568B5FBF3F5C7
:100B4000056130BD0010024000127A0000093D002E
:100B50004400002054000020704710B500F002F857
:100B600010BD00000CB500200190009033480068D3
:100B700040F480303149086000BF3048006800F41C
:100B8000003000900198401C0190009818B901981D
:100B9000B0F5A06FF1D12948006800F4003010B121
:100BA0000120009001E0002000900098012843D12E
:100BB0002348006840F0100021490860084600689A
:100BC00020F0030008600846006840F0020008605A
:100BD0001A48406819494860084640684860084615
:100BE000406840F4806048600846406820F47C100B
:100BF00048600846406840F4E810486008460068CD
:100C000040F08070086000BF0C48006800F0007081
:100C10000028F9D00948406820F0030007494860DF
:100C20000846406840F00200486000BF0348406842
:100C300000F00C000828F9D10CBD000000100240A3
:100C400000200240042808D14FF0E021096941F05A
:100C500004014FF0E022116107E04FF0E021096943
:100C600021F004014FF0E022116170471048006844
:100C7000401C0F4908600F480068B8B10E48006872
:100C8000401C0D490860084600680C490968884204
:100C90000CD300200849086006480068084908602D
:100CA00000200449086001200649087070470000D0
:100CB000180000201C000020240000202800002034
:100CC000200000202C00002010B51348006840F0E0
:100CD00001001149086008464068104908400E4963
:100CE0004860084600680E4908400B4908600846FD
:100CF000006820F4802008600846406820F4FE0068
:100D000048604FF41F008860FFF727FF4FF0006036
:100D10000449086010BD0000001002400000FFF808
:100D2000FFFFF6FE08ED00E010B540F225510D483A
:100D300000F048F8A8B10B4800F000F9C4B20A4826
:100D40000A490968445409480068401C074908607A
:100D5000084600688C2801D900200860002004495A
:100D6000086010BD00380140181500201C0000204C
:100D70002400002010B50022002340F66A14A1428E
:100D800000D100BF0A1201249440A3B2DC430480C6
:100D900010BD21B1828942F40052828104E082892F
:100DA0004DF6FF731A408281704702460020B1F56C
:100DB000007F00D100BF13880B400BB1012000E081
:100DC0000020704770B50246002400230025002053
:100DD00040F66A16B14200D100BFC1F3421501F0DE
:100DE0001F03012606FA03F3012D02D19689334031
:100DF00006E0022D02D1168A334001E0968A334084
:100E00000C12012606FA04F41688344013B10CB112
:100E1000012000E0002070BDF0B50346002400264C
:100E20000025002040F66A17B94200D100BF1846DD
:100E3000C1F3421401F01F06012707FA06F5012C41
:100E400001D10C3004E0022C01D1103000E014304C
:100E50001AB107682F43076002E00768AF430760D5
:100E6000F0BD00002DE9F04786B005460E4600248F
:100E7000A24600BFA1460027B08900B100BF2F469F
:100E80002C8A4CF6FF700440F08804432C82AC8915
:100E90004EF6F3100440B088318908437189084345
:100EA0000443AC81AC8A4FF6FF400440B089044350
:100EB000AC8201A8FFF7E6FD1F48874202D1DDF8AA
:100EC00010A001E0DDF80CA0A88900F4004040B1BA
:100ED0000AEBCA0000EB0A1031684900B0FBF1F8D8
:100EE00007E00AEBCA0000EB0A1031688900B0FB8A
:100EF000F1F86420B8FBF0F004012009642101FB43
:100F00001089A88900F4004040B1322000EBC900EC
:100F1000B0FBF1F000F00700044308E0322000EBE2
:100F200009106421B0FBF1F000F00F0004432C81A4
:100F300006B0BDE8F087000000380140014688880F
:100F4000C0F308007047C1F308028280704700BFF9
:100F5000FEE700000FB4054B10B503A9044A029840
:100F600000F0F0F810BC5DF814FB00009D1F0008B5
:100F7000940000200FB41CB50A46521ECDE90002B1
:100F800007A9054B6A46069800F0DCF8009A002194
:100F900011701CBC5DF814FB731800087CB5491E69
:100FA0001C461546CDE90001044B6A4621462846F9
:100FB00000F0C8F8009A002111707CBD7318000879
:100FC00002E008C8121F08C1002AFAD17047704712
:100FD000002001E001C1121F002AFBD17047000070
:100FE0002DE9FF5FDDE90220010DDDF838B0024395
:100FF00018D044F61050A1F2FF3141430D140F9860
:10100000012820D0A5EB0B00401C5FEA000A4FF03E
:101010000004474EDFF81C91A046504616D5CAF191
:10102000000728E00F98012443A2012808D00021DE
:1010300000980F9BC0E90021C0E90243BDE8FF9F73
:101040006FEA0B01F4E7CBF10000DEE7074612E0A0
:10105000F80707D02246334640464946FFF7D8F9FD
:10106000804689462246334610461946FFF7D0F996
:1010700004460E467F10002FEAD1DDE90201BAF1E5
:10108000000F42464B4602DAFFF7C2F901E0FFF7D4
:1010900031FA04460E460022284BFFF7B3FA03D874
:1010A0004FF0FF30014607E00022254B2046314635
:1010B000FFF707F9FFF78DFA102409E0002C0ADB8F
:1010C0000A220023FFF7CCF8019B30321A55641E28
:1010D00050EA0102F2D1641C019AC4F111031444D4
:1010E0000F9A012A03D0012208430DD10AE00843D8
:1010F00004D000204FF0110B0F9080E7A3EB0B05FD
:101100006D1E0DE05B4504DD4FF0000205F10105A9
:1011100004E003DA4FF00002A5F10105002AECD04B
:1011200000980F99C0E90231C0E9004586E7000048
:10113000000024400000F03F300000000000F043B9
:101140000000E03F2DE9FF4F95B09B4689460646DB
:1011500000250FE2252877D100242746F84A0121EF
:10116000059400E0044316F8013F203B01FA03F028
:101170001042F7D130782A2811D06FF02F03307841
:10118000A0F13002092A16D8059A44F0020402EBB5
:10119000820203EB42021044761C0590EFE759F8F7
:1011A000042B0592002A03DA504244F400540590BF
:1011B00044F00204761C30782E2816D116F8010F60
:1011C00044F004042A280DD06FF02F023078A0F1EB
:1011D0003003092B09D807EB870302EB4303C71839
:1011E000761CF3E759F8047B761C30786C280FD016
:1011F00006DC4C2817D068280DD06A2814D104E0EA
:10120000742810D07A280FD10DE044F400140AE0BD
:1012100044F4801401E044F440147278824202D114
:1012200004F58014761C761C307866280BD013DC0D
:10123000582877D009DC002875D04528F6D04628F4
:10124000F4D047281AD19DE118E0632835D06428EE
:1012500079D0652812D195E1702873D008DC672811
:10126000F1D069286FD06E280DD06F2806D1B5E077
:1012700073282CD0752875D0782874D05A461799C1
:1012800090476D1C75E1C4F30250022809D0032871
:101290000DD0D9F8001004280DD00D6009F1040913
:1012A00067E1D9F80010EA17C1E90052F6E7D9F86A
:1012B00000100D80F2E70D70F0E719F8041B8DF8AF
:1012C000001000208DF80100EA46012003E059F8E3
:1012D00004AB4FF0FF3061074FF0000102D40DE086
:1012E00008F101018846B9420FDA8045F8DB1AF8A7
:1012F00008100029F4D108E008F101018846814274
:10130000FADB1AF808100029F6D105985B46A0EB25
:10131000080721463846179A00F094FA284400EB53
:10132000080507E04DE029E10DE01AF8010B5A46E7
:1013300017999047B8F10108F7D25B462146384625
:10134000179A13E142E00A220092C4F302524FF0CE
:10135000000A022A08D059F804CB032A4FEAEC719C
:101360000AD00DE029E02AE009F1070121F0070287
:10137000F2E802C1914609E00FFA8CFC4FEAEC71E9
:10138000042A03D14FFA8CFC4FEAEC71002907DAEA
:101390000A460021DCF1000C61EB02012D2202E083
:1013A000220504D52B228DF80420012203E0E20758
:1013B00001D02022F7E7904659E00A2102E01022EE
:1013C0000DE010214FF0000A00910BE010224FF0C9
:1013D000000A44F004040827009203E008224FF0BA
:1013E000000A0092C4F30252022A05D059F804CB35
:1013F0000021032A08D009E009F1070121F00702C2
:10140000F2E802C1914605E01FFA8CFC042A01D1E2
:101410000CF0FF0C4FF00008220728D5702806D0EA
:10142000009B83F0100353EA0A0305D00EE040222C
:101430008DF80420012208E05CEA010206D0302287
:101440008DF804208DF8050002229046009B83F061
:10145000080353EA0A030AD15CEA010201D16207D8
:1014600005D530228DF804204FF001087F1E582842
:1014700004D034A003900EA802900DE036A0F9E746
:1014800053466046009AFEF7EBFE84460398825C62
:101490000298401E029002705CEA0100F0D10298AE
:1014A00006A9081A00F1200A600702D524F4803446
:1014B00000E00127574502DDA7EB0A0000E000200D
:1014C00000EB0A01009005984144401A0590E003A2
:1014D00006D45B462146179A059800F0B3F90544F7
:1014E000002706E001A85A46C05D179990476D1C79
:1014F0007F1C4745F6DBE0030CD55B462146179A77
:10150000059800F09FF9054404E030205A461799E9
:1015100090476D1C0099481E00900029F5DC08E0FA
:10152000029802995A460078491C029117999047EF
:101530006D1CBAF10001AAF1010AF1DC65E10000BD
:101540000928010030313233343536373839616299
:10155000636465660000000030313233343536375D
:1015600038394142434445460000000000F058F934
:101570000544761C307800287FF4ECAD19B028467D
:10158000BDE8F08F620700D4062709F1070222F0B8
:10159000070CFCE80223E14603F000485FEA080C70
:1015A00002D00FF2702C0DE05FEA045C02D50FF25E
:1015B000682C07E05FEAC47C02D00FF2602C01E0E7
:1015C000AFF2700C4FF0FF3823F00043CDF850C05D
:1015D00065280CD006DC452809D046281DD04728B0
:1015E0003DD13DE0662818D067287ED138E0002143
:1015F000112F01DB112000E0781CCDE9000106A9C4
:101600000EA8FFF7EDFCDDE90F010E9A0391002112
:10161000009207F1010A04914DE04FF0004000975D
:10162000CDE9011006A90EA8FFF7DAFCDDE90F02EB
:1016300003920E9B11990022DDF80CA000930492F6
:1016400011B9791C00EB010AB7EB0A0004D4C0F110
:10165000FF3007F1010A0490AAEB0700019044E073
:10166000012F00DA01270021112F01DD112000E0F8
:101670003846CDE9000106A90EA8FFF7B1FCDDE967
:101680000F010E9A0391002104910092BA4621079E
:101690000CD40399514500DA8A46BAF1010F05DDF1
:1016A000009AAAF10101515C302908D0B84202DA4F
:1016B00010F1040F06DA0121CDE9011015E0AAF1BD
:1016C0000101E9E7002805DC049901440491AAEB33
:1016D000000102E0411C514500DD8A460499401A90
:1016E000401C01904FF000400290200704D4019864
:1016F000504501DBCDF8048000208DF84F000298A2
:101700000DF14F07B0F1004F25D02B200E9002981D
:101710004FF0020800280CDA404202902D200E9073
:1017200007E00A210298FEF785FD3031029007F8A4
:10173000011DB8F10001A8F10108F2DC02980028AF
:10174000EFD1791E0E980870307800F0200040F03C
:10175000450007F8020D12A8C01B00F107081498F5
:10176000007800B1012000EB0A01019801EBE07163
:1017700005984144401A401E0590E00306D45B469C
:101780002146179A059800F05DF8054414980078F2
:1017900018B15A46179990476D1CE00324D55B4653
:1017A0002146179A059800F04DF805441CE004986E
:1017B000002807DBDDE90301884203DD0098405C77
:1017C000179901E0179930205A469047049805F17F
:1017D0000105401C04900198401E019004D12E2068
:1017E0005A46179990476D1CBAF10001AAF1010AF7
:1017F000DDDC05E017F8010B5A46179990476D1C80
:10180000B8F10001A8F10108F4DC5B462146179A03
:101810000598ABE62D0000002B0000002000000022
:101820002DE9F041044600251E461746880404D4DD
:1018300005E039462020B0476D1C641EF9D52846C6
:10184000BDE8F0812DE9F041044600251E46904692
:10185000C80301D5302700E02027880404D505E01F
:1018600041463846B0476D1C641EF9D52846BDE890
:10187000F0814A68002A06D00A68531C0B60107079
:101880004868401E486070472DE9FC4704460D46F5
:1018900016461F46DDE90A893B4632462946204660
:1018A000CDE9008900F022FEBDE8FC872DE9F0417A
:1018B00004460D4616461F463B46324629462046FC
:1018C00000F06FFEBDE8F08110B54FF48C7101207F
:1018D000FEF7A2FC04460CB9002010BD204600F023
:1018E00088FE2046F9E710B50446204600F076FE53
:1018F000204600F073FB10BD70B504460D46164639
:1019000032462946204600F07FFE70BD70B5044681
:101910000D46164632462946204600F0E9FE70BDC7
:10192000014648420843C00F404270472DE9F04746
:1019300005460E4617469846A946D9F80440A068C1
:1019400058B110210120FEF767FCE060E06818B98B
:101950006FF06900BDE8F087E468A760C4F8048010
:101960002660C9F804400020F4E72DE9F841044658
:101970000F4616461D466FF06D0833466A463946D7
:10198000204601F02DF95FEA000802D04046BDE88C
:10199000F881009810B96FF06300F8E720680078CC
:1019A00000F0800010B16FF06300F0E705E0206800
:1019B000401C20600098401E0090009818B12068DC
:1019C00000780028F3D00098042802D96FF0630053
:1019D000DDE70098042807D12068007800F0800037
:1019E00010B16FF06300D2E70020286008E02068A3
:1019F0000078296840EA012028602068401C2060A7
:101A00000099481E00900029F1D10020BFE72DE980
:101A1000F74FADF5487D8246164600200190B6F599
:101A2000C07F05D96FF037000DF54B7DBDE8F08F15
:101A30004FF4D07160A8FEF7D0FB02A800F0D9FDEA
:101A400064AC300E04F8010B300C04F8010B300AC2
:101A500004F8010B04F8016BE41C302004F8010BBE
:101A600032462046C999FEF791FB8020A05506F129
:101A7000190B002502E04CA94D556D1C202DFADBF9
:101A80004FF480724CA902A800F032FE019000B120
:101A900059E0002734E060AC0020489049904A901B
:101AA0004B90D9461CE0002506E048A8405D615DEA
:101AB000484048A948556D1C102DF6DB1034B9F18B
:101AC000100F01D3102000E04846A9EB000948ABF5
:101AD00048AA012102A800F064FD019000B132E0A3
:101AE000B9F1000FDFD154A9C819102248A9FEF797
:101AF0004DFB9DF88301401CC0B28DF88301103767
:101B0000302FC8DB4FF4807254A902A800F0F0FD1A
:101B1000019000B117E00DF5B878544600270FE0AA
:101B200043464246012102A800F03BFD019000B16E
:101B300009E0102241462046FEF728FB10341037FA
:101B4000302FEDDB00BF02A800F048FD4FF4D0714C
:101B500060A809F0BBFB302154A809F0B7FB202195
:101B60004CA809F0B3FB102148A809F0AFFB01987D
:101B700018B13021504609F0A9FB019854E72DE92E
:101B8000F0438DB005460E4601AF4FF000093021FD
:101B900001A8FEF722FBC8461BE0102408E0601EE7
:101BA000285C401CC1B2601E295401B102E0641ED1
:101BB000002CF4DC00BF3B462A46012105F1200041
:101BC00000F0EFFC5FEA000900D020E0103708F1D8
:101BD0001008B8F1300FE0DB002406E001A8005D3A
:101BE000315D484001A90855641C302CF6DB4FF4E8
:101BF000807201A905F1200000F07AFD5FEA00097A
:101C000000D004E009A80FC885E80F0000BF30210C
:101C100001A809F05BFB48460DB0BDE8F083000069
:101C200070B506460D4614462948006830BB294861
:101C300010F0CEFF264908600846006800281ADD2B
:101C40000846006884420DD30846046822462149AC
:101C50002846FEF79BFA00201D4908601E490860CF
:101C6000204670BD22461B492846FEF78FFA1A48C7
:101C700004602046F5E76FF04B00F2E71448006877
:101C800015490968401AA04213D811480068124942
:101C90000968441A0F48104A1268811822462846DB
:101CA000FEF774FA00200A4908600B4908602046D4
:101CB000D7E70848084A1268811822462846FEF7E6
:101CC00065FA054800682044034908602046C8E7D3
:101CD00004000020780800200800002030B50546E8
:101CE0000C46134600BF1946204610F073FF1846F5
:101CF00030BD2DE9F04FADF5017D80468946924615
:101D00009B468A9F3D463C461CE020780A2818D115
:101D1000601B461CB6F5007F01D340F2FF16324629
:101D2000294601A8FEF732FA002001A9885501A82A
:101D30005B46524649460090404600F07DF8651CDF
:101D400000BF641C20780028DFD10DF5017DBDE8BF
:101D5000F08F00002DE9F04790B005460E4617467B
:101D60009846DDE9189A242107A8FEF736FA07A954
:101D7000504609F0F7F850B123A043463A463146A1
:101D80000090284600F058F810B0BDE8F087002415
:101D900035E004EB440007A911F8200000B9F3E78F
:101DA00004EB440007A901EB800040684B461BA2EE
:101DB0001021009003A8FFF7DDF800208DF81B002C
:101DC00004EB440007A911F8200001280ED104EB10
:101DD000440001EB8000806803A943463A46CDE900
:101DE00000103146284601F03FFD07E00DA04346B4
:101DF0003A4631460090284600F01EF8641C032C39
:101E0000C7D300BFC0E70000696E76616C696420CB
:101E1000504B20636F6E746578740A0025732573C8
:101E20000000000073686F756C64206E6F7420682A
:101E3000617070656E0A00002DE9F84304460D4696
:101E400016461F46DDF82080CDF8008021683B460D
:101E50003246D1E904C02946E047BDE8F883F0B531
:101E6000A1B005466FF03B060027D5F8E00010B999
:101E7000301F21B0F0BD00243CE004EB840105F1EB
:101E8000E40000EB81000069012800D10127002057
:101E9000009004EB840205F1E40101EB820104EB04
:101EA0008402486805F1E40151F822C06B468022A3
:101EB00001A9E047060000D024E00098C8B1E1B2D3
:101EC00001AA2846009B00F023F8060001D0304606
:101ED000CFE704EB840105F1E40000EB81008068AA
:101EE0000099014404EB840205F1E40000EB820058
:101EF0008160641CD5F8E000A042BEDC0FB96FF031
:101F00003C0600BF802101A809F0E0F93046B0E7A7
:101F10002DE9F04792B00446884616461D462F46E6
:101F2000B1464FF0000A402F0CD9002301AA2946E0
:101F300030460BF0C2F95FEA000A00D026E00DF14E
:101F4000040940278DF84480F8B28DF845002068D8
:101F500040B9002104F108000BF0E2F95FEA000A41
:101F600000D013E001202060022211A904F1080032
:101F70000BF068FA5FEA000A00D007E03A464946EB
:101F800004F108000BF05EFA824600BF402101A870
:101F900009F09CF9504612B0BDE8F08770B50446D0
:101FA0000D460C48007838B901200A49087040F203
:101FB00026610948FEF7DEFEE1B20748FEF7C3FFDF
:101FC00000BF40210448FEF7F0FE0028F9D020466B
:101FD00070BD00002D0000200038014010B5002821
:101FE00021D0114B0022001F196803E0814203D861
:101FF0000A4649680029F9D152B11368841A9C42F3
:1020000004D1006818441060104602E0506000E0FF
:10201000186039B102680B1A934203D10B681A4455
:1020200002604968416010BD9C00002070B5064602
:102030000C4615462B4622460221304601F0D2FFBF
:1020400070BD10B54FF4C4710120FEF7E5F80446E9
:1020500014B1204601F0BCFF204610BD10B5044667
:10206000204601F0A7FF2046FFF7B8FF10BD2DE97D
:10207000F04F8BB0804600200190029003900490B6
:10208000059001A802AB102202A90090404601F081
:1020900085F85FEA000B03D058460BB0BDE8F08F1F
:1020A0009DF8080000069DF8091040EA01409DF8DF
:1020B0000A1040EA01209DF80B10084308909DF893
:1020C0000C0000069DF80D1040EA01409DF80E102E
:1020D00040EA01209DF80F1008430021CDE90601D8
:1020E000DDE906231646089840EA03079DF810002C
:1020F00000069DF8111040EA01409DF8121040EAD8
:1021000001209DF81310084308909DF81400000664
:102110009DF8151040EA01409DF8161040EA012094
:102120009DF8171008430021CDE90601DDE90623DB
:102130001446089840EA030508F14000C0E910453C
:102140008030C0E91067C8F8C010C8F8C410C8F8DB
:102150004010C8F844104FF004091DE0012121404F
:102160004FF06142A1FB02025FEA550C4FEA3403D3
:102170004CEAC6751C467A084FEA360682EA000722
:1021800008F1400101EBC90130C108F1C00101EBC8
:10219000C901C0C14FEA6909B9F1000FDEDC4FF097
:1021A000020929E008F1400202EBC900803202EB8B
:1021B000C901D1E90067D0E900454FF0010A17E0F5
:1021C00008F1C00202EBCA030CCB72407B4001EB6A
:1021D000CA0CCCE9002308F1400202EBCA030CCB85
:1021E00062406B4000EBCA0CCCE900230AF1010A03
:1021F000CA45E5DB4FEA4909B9F1080FD2DD0020F5
:102200004BE700002DE9FC4F05460F46002697F8E6
:102210000F8008F00F0C05F1C00808EBCC09D9E9D4
:10222000000105F1400808EBCC09D9E900340F267C
:102230006CE017F8068008F00F0C17F806804FEADC
:102240001818CDF804800F2E2DD003F00F08CDF80C
:1022500000804FEA00784FEA131949EA047948EA06
:1022600014144B464FEA101848EA01700909DFF8C8
:102270005491DDF8008039F8388081EA084105F191
:10228000C00808EBCC08D8E9009889EA000088EA81
:10229000010105F1400808EBCC08D8E9009889EA6B
:1022A000030388EA040403F00F08CDF800804FEA26
:1022B00000784FEA131949EA047948EA14144B46A6
:1022C0004FEA101848EA01700909DFF8F890DDF8C4
:1022D000008039F8388081EA084105F1C008DDF84E
:1022E000049008EBC908D8E9009889EA000088EA58
:1022F000010105F14008DDF8049008EBC909D9E9AE
:10230000008988EA030389EA0404761E002E90DA25
:102310004FF000084FEA082949EA116882F8008066
:102320004FF000084FEA084949EA114882F8018055
:102330004FF000084FEA086949EA112882F8028044
:10234000D1704FEA106848EA012882F804804FEA09
:10235000104848EA014882F805804FEA102848EA08
:10236000016882F80680D0714FF000084FEA082912
:1023700049EA146882F808804FF000084FEA0849DB
:1023800049EA144882F809804FF000084FEA0869CA
:1023900049EA142882F80A80D4724FEA136848EA9E
:1023A000042882F80C804FEA134848EA044882F86F
:1023B0000D804FEA132848EA046882F80E80D37330
:1023C000BDE8FC8FF8B30108034603B10AB902481F
:1023D000704711600020FBE7009FFFFF0146302996
:1023E00001D300207047481C4008FBE72DE9F0416D
:1023F00007460C4615463846FFF792FA064606EAA7
:10240000040025EA06010843BDE8F081FEF7D1FA91
:102410004FF4E13014F0A2FEFEF770FAFEF7AEF9C9
:1024200020E011F0A7FC00E000BF0F480CF0C6FD53
:102430000E4908600028F7D113E00DA404222146BC
:1024400009480DF0A7FF4FF4FA610B48FDF7C5FEF0
:1024500040F2CF72084904480DF064FB0749086058
:1024600000BFEAE7DDE70000001400200C000020B8
:102470003131313100000000A800002000000020B0
:10248000F0B50B30154D20F007010024144A0FE081
:1024900003688B420BD38B4205D95E1A43184768F9
:1024A000C3E9006700E04368136002C004E0021D56
:1024B00010680028ECD12046002802D1286808B115
:1024C0000020F0BD064A07481060074A121A22F0A1
:1024D0000702C0E9002401202860D7E7A0000020FF
:1024E0009C000020B4150020B0B500202DE9FF4766
:1024F0008246894616469846DDE90C7500BF00BF46
:1025000000BF00BF00BF00BF00BF00BF00BF00BFD3
:1025100006F00F0020B16FF0210004B0BDE8F08795
:10252000B9F1000F20D11CE0102239466846FDF7B2
:102530002DFE2B463A464946504600F032F800241C
:1025400005E0285D18F8041048402855641C102C3C
:10255000F7DB102269464046FDF718FE10371035AC
:10256000103E002EE0D11AE017E0002405E0385DAF
:1025700018F8041048402855641C102CF7DB2B4633
:102580002A464946504600F00CF81022294640469B
:10259000FDF7FCFD10371035103E002EE5D1002070
:1025A000BBE72DE9F04107460C4615461E4600BF25
:1025B00000BF00BF00BF00BF00BF00BF00BF012CB5
:1025C00006D132462946384602F000FABDE8F081CD
:1025D00032462946384601F03FFFF7E710B504467A
:1025E00004B910BD4FF48C71204608F06FFE00BF97
:1025F000F7E710B5044600BF00BF4FF48C712046CA
:10260000FDF7EBFD10BD00002DE9F04FC7B0064609
:102610008A46934600BF00BF00BF00BF01A8FFF776
:10262000E8FF06F1080575605A46514601A800F01A
:102630005FF85FEA000900D048E001983060DDE90A
:10264000011000EB011401CC01C501CC01C501CC86
:1026500001C501CC01C53068471E203C2BE04FF07E
:10266000000823E020781D49085C1D4951F820002E
:102670002188C1F30721194A515C1A4A52F82110E6
:1026800048402168C1F30741144A515C164A52F888
:10269000211048402168090E104A515C134A52F833
:1026A0002110484001C508F10108241DB8F1040FAC
:1026B000D8DB7F1E203C002FD1DC01CC01C501CC32
:1026C00001C501CC01C501CC01C500BF01A8FFF7C0
:1026D00085FF484647B0BDE8F08F000048900108EC
:1026E00048A2010848A6010848AA010848AE010806
:1026F000F0B503460C46154600BF00BF00BF00BF43
:10270000802D05D0C02D06D0B5F5807F09D105E01C
:102710000A20186008E00C20186005E00E20186000
:1027200002E06FF01F00F0BD00BF03F10801596027
:10273000002216E014F82200012606EB8206A65DB0
:1027400040EA0620022606EB8206A65D40EA064025
:10275000032606EB8206A65D40EA066041F82200E9
:10276000521CB2EB551FE5D318680A2804D00C2878
:1027700030D00E282DD163E0002228E05A4E56F8C2
:102780002260086870408E89C6F30726574FBE5DE9
:102790007040CE68C6F30746BE5D80EA0626C8686C
:1027A000000E385C86EA00400E7BBE5D80EA066063
:1027B00008610E694868704048614E6988687040D9
:1027C00088618E69C8687040C861521C10310A2A3D
:1027D000D4D386E0002230E0434E56F822600868E9
:1027E00070408E8AC6F30726404FBE5D70404E692A
:1027F000C6F30746BE5D80EA06264869000E385CCF
:1028000086EA00400E7DBE5D80EA066088618E69C2
:1028100048687040C861CE698868704008620E6A76
:10282000C868704048624E6A0869704088628E6A63
:1028300048697040C862521C1831082ACCD350E055
:1028400000224BE0284E56F82260086870408E8BBC
:10285000C6F30726254FBE5D7040CE69C6F3074616
:10286000BE5D80EA0626C869000E385C86EA004034
:102870000E7FBE5D80EA066008620E6A486870409E
:1028800048624E6A8868704088628E6AC868704084
:10289000C86291F82C60BE5D086970408E8DC6F3E9
:1028A0000726BE5D80EA0620CE6AC6F30746BE5DF7
:1028B00080EA0646C86A000E385C86EA0060086353
:1028C0000E6B4869704048634E6B8869704088633E
:1028D0008E6BC8697040C863521C2031072AB1D37F
:1028E00000BF00BF00201EE748B201084890010861
:1028F0002DE9F84304460F4616461D466FF06D0855
:1029000030236A463946204600F06AF95FEA00083B
:1029100002D04046BDE8F8832068381A012802DA60
:102920006FF05F00F6E7206800783060206800995B
:1029300047180623321D3946204600F051F95FEA58
:10294000000801D04046E5E72068B0602068716863
:10295000084420602068B84205D10C21284608F0C0
:10296000B5FC0020D6E72068007828602068401C6D
:1029700020602A1D3946204600F095F85FEA0008DD
:1029800001D04046C6E72068A8602068696808440E
:1029900020602068B84202D06FF06500BAE70020DE
:1029A000B8E7F0B504460E4615466FF06D070323F1
:1029B0002A463146204600F013F9070001D0384678
:1029C000F0BD286810B96FF05F00F9E72868401E75
:1029D00028602068007828712879072802DD6FF0C8
:1029E0006300EDE72068401C20602068A860206834
:1029F0002968084420602068B04202D06FF065006A
:102A0000DEE70020DCE7F0B504460E4615466FF021
:102A10006D0703232A463146204600F0E1F80700FF
:102A200001D03846F0BD286810B96FF06700F9E7AB
:102A30002868401E28602068007810B16FF0670099
:102A4000F0E72068401C20600020EBE7F8B5044662
:102A50000E4615466FF06D0701236A463146204643
:102A600000F0BEF8070001D03846F8BD00980128F4
:102A700002D06FF06300F8E72068007808B1012009
:102A800000E0002028602068401C20600020ECE767
:102A900070B505460E4614462346022231462846A6
:102AA000FEF763FF70BD10B503461868081A0128C9
:102AB00002DA6FF05F0010BD1868007800F0800047
:102AC00028B91C68601C18602078106060E01868E5
:102AD000007800F07F00012806D0022812D00328D9
:102AE00022D0042850D135E01868081A022802DAEA
:102AF0006FF05F00DFE71868407810601868801C8E
:102B0000186044E01868081A032802DA6FF05F00C2
:102B1000D1E7186880781C68647840EA0420106067
:102B20001868C01C186032E01868081A042802DA15
:102B30006FF05F00BFE71868407800041C68A47855
:102B400040EA04201C68E478204310601868001DE7
:102B500018601CE01868081A052802DA6FF05F0098
:102B6000A9E71868407800061C68A47840EA044089
:102B70001C68E47840EA04201C6824792043106033
:102B80001868401D186002E06FF0630093E700BF13
:102B900010681C680C1BA04202D96FF05F008AE726
:102BA000002088E7F0B587B006460F4614461D465C
:102BB00005950694002020606060A060E06005A894
:102BC000064900220092EBB2CDE901210390FF22D9
:102BD0003946304600F020F807B0F0BD2D19000846
:102BE000F0B504460D4617461E462068281A0128EF
:102BF00002DA6FF05F00F0BD20680078B04202D0CA
:102C00006FF06100F7E72068401C20603A462946D3
:102C10002046FFF748FFEEE72DE9F84F04460D4642
:102C200017469846DDF828B0DDF8309030236A4624
:102C300029462046FFF7D4FF5FEA000A02D050463B
:102C4000BDE8F88F206800990844A84202D06FF0D0
:102C50006500F5E72CE02168481C20600E7806EA44
:102C60000700404502D06FF06100E9E76A46294657
:102C70002046FFF718FF5FEA000A01D05046DFE761
:102C800006EA0B000B9988420DD1B9F1000F0AD06A
:102C900022683146009B0D98C8478246BAF1000F62
:102CA00001D05046CCE7206800990844206000BF5E
:102CB0002068A842CFD30020C2E700002DE9F04FE2
:102CC00087B004460D4616461F46DDE9128BDDF837
:102CD00044A000BF00BF00BF00BF00BF00BF00BFD7
:102CE00000BF00BF00BF00BF00BF00BF00BF206823
:102CF000407806281CD16FF06D091498C0F8008048
:102D0000DDE9150102AAA2E8030C1098CDE90070D4
:102D100033462A464146E06B01F004F8814609F14A
:102D2000120008B9DFF80C90484607B0BDE8F08FF4
:102D30000148FAE7009DFFFF809FFFFF2DE9F04F5C
:102D400087B004460D4616461F46DDE9128BDDE9C5
:102D5000109A00BF00BF00BF00BF00BF00BF00BF90
:102D600000BF00BF00BF00BF00BF00BF00BF2068A2
:102D70004078062811D11498C0F80080DDE91501CB
:102D80008DE8C00ECDE905102B4642460121E06BCF
:102D900001F00FF807B0BDE8F08F0148FAE7000036
:102DA000809FFFFF2DE9FC5F0746884691461D4640
:102DB000DDE90CA60E9C6FF06D0B00BF00BF00BFDD
:102DC00000BF00BF00BF00BF00BF00BF00BF4A463A
:102DD0004146384600F03AF95FEA000B02D0584607
:102DE000BDE8FC9F384600F023F95FEA000B01D0F4
:102DF0005846F5E73346524629463846009400F0D7
:102E0000CDF95FEA000B01D05846E9E72068811947
:102E100001AA384600F00CF85FEA000B01D05846D2
:102E2000DEE720680199084420600020D8E7000010
:102E30002DE9FC4104460D46164600BF00BF00BF09
:102E400000BF00BF00BF206810B94948BDE8FC8141
:102E50000020306020684078032813D02068407834
:102E600004280FD02068407805280BD020684078CF
:102E7000062807D020684078092803D020684078C9
:102E8000072801D10020E1E720680078482803D016
:102E900020680078492801D10020D7E720684078D1
:102EA000012805D1606A08B13248CFE70020CDE79C
:102EB00020684078022858D10027207A01281DD1A7
:102EC000E06828B9606A08B12A48BFE70020BDE77A
:102ED00000BF00BF00BF00BF206808B9002005E0A8
:102EE000A06B08B1A06B01E02068C0688046414635
:102EF00004F11400E368626A98470DE0204600F090
:102F00004CF8616A884207D0E06818B9606A08B96D
:102F100000209BE7174899E7204600F03EF88046DE
:102F200004F11400CDE9000594F908102268E06B63
:102F3000926904F12803D2F808C04246E04707002E
:102F400001D0384682E7207A48B9204600F025F8BB
:102F500080463246414628462369984776E7204610
:102F600000F01BF83060002070E7014880306DE70A
:102F7000009FFFFF809DFFFF10B5044604B910BD00
:102F8000E06B20B12268E06B92699169884740212B
:102F9000204608F09BF900BFF1E7014600BF00BFE3
:102FA000086808B90020704708684069FBE70146D7
:102FB00000BF00BF086808B9002070470868407863
:102FC000FBE700000246064905E00878904201D17F
:102FD00048687047083148680028F6D100BFF8E714
:102FE000A4B3010810B503460C460B490FE048682E
:102FF00080690078984209D148684068A04205D1AC
:1030000048684078904201D1486810BD083148684E
:103010000028ECD100BFF8E7A4B3010810B50446BE
:1030200000BF00BF40212046FDF7D7F810BD0000CB
:10303000014600BF00BF086808B903487047002078
:10304000486200BFFAE70000009FFFFF2DE9F04152
:1030500004460F46164600BF00BF00BF00BF2068F1
:1030600010B90F48BDE8F081102E02D90C4880300D
:10307000F8E72068007C00F0010008B1354605E063
:103080002068C568B54201D90548EBE735B12A4645
:10309000394604F12800FDF779F8A5630020E1E73F
:1030A000009FFFFF024600BF00BF106818B1106804
:1030B0004078022801D007487047042904D1002035
:1030C000D0600548106102E002488030F4E700BF9C
:1030D0000020F1E7009FFFFFC92300082DE9F04120
:1030E00004460F4616461D4600BF00BF00BF00BF86
:1030F00000BF00BF206810B91848BDE8F081206803
:10310000007C00F0020028B920684068B04201D07D
:103110001248F2E766602572012D0BD020684078D6
:10312000032807D020684078042803D0206840781E
:10313000052807D1D4E90012E06B8969CB683946CC
:103140009847DAE73DB9D4E90012E06B89690B6969
:1031500039469847D1E70148CFE70000009FFFFFBD
:1031600070B505460C4600BF00BF0CB90A4870BDDB
:1031700040212846FDF731F8A16948698047E86396
:1031800010B905488038F2E72C6004212846FFF783
:1031900089FF0020EBE70000009FFFFF2DE9FC5FA7
:1031A0000446894615469A460C9F6FF06D0B00BF8A
:1031B00000BF00BF00BF00BF00BF00BF00BF20684E
:1031C00010B96448BDE8FC9F002038602046FFF736
:1031D000E4FE06460EB96048F4E72068407801280E
:1031E00015D1B54201D05D48ECE73D6094F9081077
:1031F0002268E06B92695346D2F804C04A46E04721
:103200005FEA000B01D05846DCE70020DAE72068CF
:103210004078062807D13D6053464A462946E06B70
:1032200000F0E6FFCEE7D14508D1606A20B9B5FBD2
:10323000F6F006FB105008B14648C3E72068407816
:1032400002287DD14FF00008207A28B9E06818B133
:10325000606A301AA8420ED2207A28B9E06818B9FC
:10326000606A301AA84206D8207A012810D1606A14
:10327000301AA8420CD904F11401626A50182A4687
:103280004946FCF783FF606A28446062002099E7A2
:10329000606A38B3606AA6EB000804F11401626A40
:1032A000501842464946FCF771FF04F11400CDE97D
:1032B000000A94F908102268E06B926904F128036F
:1032C000D2F808C03246E0475FEA000B01D058460A
:1032D00078E7386830443860B24400206062C14406
:1032E000A5EB0805CDB1B5FBF6F006FB1058B8F11B
:1032F000000F04D1207A10B9E06800B1B046A5EB08
:10330000080000EB0901424604F11400FCF73EFFFF
:10331000606A40446062A5EB0805ADB1CDE9009A52
:1033200094F908102268E06B926904F12803D2F83E
:1033300008C02A46E0475FEA000B02D0584641E742
:1033400004E038682844386000203BE701488030BA
:1033500038E70000009FFFFF809CFFFF809DFFFF7C
:1033600002464FF00041002005E002EA010303B1EC
:1033700003E04908401C2028F7D300BF704710B570
:10338000044604B910BD04F12000FFF727F94FF4FB
:10339000A071204607F09AFF00BFF3E710B504467E
:1033A0004FF4A0712046FCF718FF4FF0FF3020616A
:1033B00010BD2DE9F84304460D4616466FF06D0723
:1033C000A04600200346324629460090404600F0C1
:1033D00004F807463846BDE8F8832DE9F04F93B06E
:1033E00081468A4615469B461C9F002012904C46FB
:1033F000CDF814A0B5F5806F04D96FF0350013B087
:10340000BDE8F08FB7F5807F02D96FF03700F6E79F
:10341000302106A8FCF7E1FEE1692069884201DC61
:10342000606948B13A465946204600F055F8129076
:1034300008B11298E3E7002777B13A46594606A843
:10344000FEF7E5FA129000B13CE006A92046FEF72F
:1034500096FB129000B135E027E0102608E0701EC0
:10346000205C401CC1B2701E215401B102E0761EE6
:10347000002EF4DC00BF01AB2246012104F1200044
:10348000FFF78FF8129000B11CE0102D01D9102029
:1034900000E028468046424601A90598FCF776FEE2
:1034A000059840440590A5EB0805002DD5D106A947
:1034B0002046FEF764FB129000B103E02069401C37
:1034C000206100BF302106A807F000FF102101A8ED
:1034D00007F0FCFE129892E770B504460D461646BA
:1034E000002332462946204600F001F870BD2DE940
:1034F000F043E1B00446884617461D4600266FF0AB
:103500006D09A069B0F5C07F04D96FF0370061B0D4
:10351000BDE8F083A069C0F5C070A84202D26FF088
:103520003700F4E7A069C0F5C070401BB84202D272
:103530006FF03700EBE74FF4C07101A8FCF74DFEC8
:1035400001A9D4F83831A269D4F83C01984710B1E8
:103550006FF03300DBE7A06906445DB12A4601A99C
:10356000D4F83831D4F83C01984710B16FF03300EB
:10357000CDE72E44B8F1000F07D037B101A9881963
:103580003A464146FCF702FE3E44324601A901A8F4
:10359000FEF73DFA5FEA000900D00AE001A92046E3
:1035A000FEF7EDFA5FEA000900D002E00120206199
:1035B00000BF4FF4C07101A807F088FE4846A6E797
:1035C0002DE9F04788B004460D4616461F46DDF843
:1035D00040806FF06D0920216846FCF7FEFD04F184
:1035E0002000FFF706F8C4F83851C4F83C61A06920
:1035F00008B93020A0612069002801DB206902E0C1
:10360000A069FEF7EBFE824642F21070E0614FF4D3
:103610008072694604F12000FFF76AF85FEA00094A
:1036200003D0484608B0BDE8F087534642463946C5
:103630002046FFF75CFF5FEA000901D04846F1E74A
:103640000020EFE72DE9F04FADF5077D06468946EE
:1036500092469B46DDF84882919F002446B130682F
:1036600030B13068006918B141480068814503DD18
:103670000DF5077DBDE8F08FC4F5007107AA10199C
:10368000CDF800803BA2909BFDF774FC07A85B4639
:103690005246494600903046FEF7CEFB00241421E6
:1036A00002A8FCF79AFD00253CE0B5F5805F00D349
:1036B0003AE005F00F00F0B9A5B1C4F5007107AA12
:1036C000101902AB32A2FDF755FC07A85B46524623
:1036D000494600903046FEF7AFFB0024142102A8B3
:1036E000FCF77BFDC4F5007107AA10192B462AA22E
:1036F000FDF740FC04447B5DC4F5007107AA101976
:1037000027A2FDF737FC0444785D1F2804DD785DAF
:103710007F2801DA785D00E02E2005F00F0102AA73
:1037200050546D1C4545C0D300BFB8F1000F1DD0EB
:1037300008E0C4F5007107AA10191BA2FDF71AFCD6
:1037400004446D1C05F00F000028F2D1C4F500718F
:1037500007AA101902AB0EA2FDF70CFC07A85B46E6
:103760005246494600903046FEF766FB00BF7FE7B1
:103770005800002064756D70696E672027257327D7
:1037800020282575206279746573290A00000000DD
:10379000202025730A000000253034783A200000EC
:1037A0002025303278000000202020002DE9F0474D
:1037B000ADF5C16D05460E4690469946DDF828A642
:1037C000DDF82C4600274DB1286838B1286800691B
:1037D00020B11CB11E480068864203DD0DF5C16DA5
:1037E000BDE8F08730E0781C0746534619A24FF435
:1037F000007100900DF58160FDF7BCFB0DF5816057
:103800004B464246314600902846FEF715FB2346BC
:1038100012A240F2FF3102A80DF04CFB02A84B4669
:103820004246314600902846FEF763FA04F1CC0088
:103830000BA14B464246CDE9001031462846FEF723
:1038400089FAD4F8504100BF002CCCD100BFC5E7A5
:10385000580000202573202325643A0A0000000048
:103860006372742D3E0000002DE9FF4FADF5017D20
:1038700081468F9F4FF0010B0024B9F1000F0CD04F
:10388000D9F8000048B1D9F80000006928B127B183
:10389000554982980968884203DD0DF5057DBDE82C
:1038A000F08F7868461E05E0B86850F8260000B131
:1038B00002E0761E002EF7D100BF1F2508E0B86891
:1038C00050F82600E84000F0010000B102E06D1E53
:1038D000002DF4DA00BF05EB4610401CC4F5007162
:1038E00001AA0090101941A28E9BFDF743FB01A88D
:1038F0000090484682A90EC9FEF79EFA002406F100
:103900000108002551E0BBF1000F06D0A8F101002D
:10391000B96851F8200000B945E04FF0030A3EE0D5
:10392000BBF1000F0AD0A8F10100B96851F82000DE
:103930004FEACA01C840C0B200B92EE04FF0000BF8
:10394000E91705EB11710911A5EB011181B9002DE2
:103950000EDDC4F5007101AA10192CA2FDF70AFBB7
:1039600001A80090484682A90EC9FEF765FA002416
:10397000A8F10102D7F808C05CF822204FEACA0C6F
:1039800022FA0CF2D3B2C4F5007101AA101920A2D8
:10399000FDF7F0FA04446D1C00BFAAF1010ABAF168
:1039A000000FBDDA00BFA8F10108B8F1000FAAD1DD
:1039B000BBF1010F07D1C4F5007101AA101916A2BD
:1039C000FDF7D8FA0444C4F5007101AA10190FA23A
:1039D000FDF7D0FA01A80090484682A90EC9FEF76B
:1039E0002BFA00BF59E700005800002076616C7583
:1039F00065206F66202725732720282564206269AB
:103A00007473292069733A0A000000000A0000005C
:103A10002025303278000000203030002DE9F041C0
:103A2000ADF5027D04460E46174698466FF06D05CB
:103A300044B1206830B12068006918B114480068AA
:103A4000864203DD0DF5027DBDE8F08189A88190F5
:103A50004FF4007101A8819B889AFDF79FFA0546F3
:103A600000208190002D09DBB5F5FF7F06DC0A20E0
:103A700001A94855002101AA681C115401A8434618
:103A80003A46314600902046FEF7D6F900BFD9E706
:103A9000580000202DE9F043ADF5037D04460E46A5
:103AA00017469846DDF828928B9D44B1206830B1C6
:103AB0002068006918B110480068864203DD0DF5E2
:103AC000037DBDE8F08315F5D24F00D1F7E76842DA
:103AD0004B460AA24FF40071CDE9005003A8FDF750
:103AE00049FA03A843463A46314600902046FEF77D
:103AF000A3F900BFE3E70000580000202573282940
:103B00002072657475726E656420256420282D30DE
:103B10007825303478290A00014908607047000090
:103B200058000020F0B504460D46059E0020D4F84C
:103B3000E010142902DB6FF03D001EE001EB810C68
:103B400004F1E40747F82C5001EB810C07EB8C07DC
:103B50007A6001EB810C04F1E40707EB8C07FB6052
:103B600001EB810C04F1E40707EB8C073E61D4F80C
:103B7000E0707F1CC4F8E07000BFF0BD10B50446D3
:103B800004F1080009F086FB0020C4F8E0004FF4BF
:103B9000C87104F1E40007F099FB0020206010BD1B
:103BA0002DE9F04F91B006460F4690464FF0000BBE
:103BB0003446B8F1400F04D96FF03B0011B0BDE8B6
:103BC000F08F00BF58460BF1010BB0F5807F02DD8E
:103BD0006FF03B0983E02046FEF741F95FEA0009F8
:103BE00000D07CE0012010904FF0000A002523E077
:103BF00005EB850104F1E40000EB810005EB850293
:103C0000816804F1E40000EB8200C068814201D2C7
:103C10000020109005EB850104F1E40000EB810029
:103C20000069012807D105EB850104F1E40000EBF0
:103C30008100806882446D1CD4F8E000A842D7DC83
:103C400010980028BED0BAF1400FBBD3402168467F
:103C5000FCF7C3FA694604F1080009F02BF95FEAA2
:103C6000000900D03BE004F1080009F013FB04F167
:103C7000080009F019FB002104F1080009F050FBCD
:103C80005FEA000900D02AE04022694604F10800FA
:103C900009F0D8FB5FEA000900D020E000236A4663
:103CA0004021684609F009FB5FEA000900D016E0F0
:103CB000002508E0002105EB850204F1E40000EB9B
:103CC000820081606D1CD4F8E000A842F2DC42461C
:103CD00069463846FCF75AFA4FF0000900BF402108
:103CE000684607F0F3FA484668E7000038B504462E
:103CF0000020C4F8E0004FF4C87104F1E400FCF7C0
:103D00006CFA0020206004F1080009F0CDFA0120CF
:103D100020230022024900902046FFF703FF38BD10
:103D20002D4300082DE9FF4F8DB00E4617469846EB
:103D3000DDF868B0DDF87CA0DDF874906FF06D0000
:103D40000C9000BF00BF00BF00BF00BF00BF00BF9E
:103D500000BF00BF00BF00BF00BF08A91E98CDE98B
:103D600004A9069103901B983B4632460021CDE9F9
:103D7000008B02900D9800F01CF80C9018B10C9874
:103D800011B0BDE8F08F0025002406E01C98005D0E
:103D900008A9095D48400543641C4C45F6D335B17C
:103DA0003146504607F092FA6FF01100E8E7002024
:103DB000E6E72DE9FE4F06460F4614461D46DDE9AF
:103DC0000EABDDE90C896FF06D00029000BF00BF03
:103DD00000BF00BF00BF00BF00BF00BF00BF00BFEB
:103DE00000BF00BF43462A4639463046CDE9009A17
:103DF00000F038F9029010B10298BDE8FE8F5A46E3
:103E000021463046109B00F0F3F9029008B1029869
:103E1000F3E73046DDE9112100F006F8029008B121
:103E20000298EAE70020E8E72DE9FF5F81468A462D
:103E3000934600BF00BF00BF00BF0822002109F564
:103E4000A07009C8A0FB024C03FB02C200FB0125C5
:103E50000823002209F5A47003C8A0FB036C01FB32
:103E600003C100FB0217BBF1100F02D8BBF1040F16
:103E700004D26FF0130004B0BDE8F09F5A4609F574
:103E8000A8715046FCF782F9002184EA01006940DC
:103E9000084305D1002186EA01007940084379D022
:103EA00000200090019002900390010241EA176007
:103EB000C0B28DF800000020010441EA1740C0B2F2
:103EC0008DF801000020010641EA1720C0B28DF8EC
:103ED0000200F8B28DF80300300E40EA0720C0B2AD
:103EE0008DF80400300C40EA0740C0B28DF80500A0
:103EF000300A40EA0760C0B28DF80600F0B28DF8D3
:103F000007000020010241EA1560C0B28DF80800E8
:103F10000020010441EA1540C0B28DF809000020DC
:103F2000010641EA1520C0B28DF80A00E8B28DF80A
:103F30000B00200E40EA0520C0B28DF80C00200CCA
:103F400040EA0540C0B28DF80D00200A40EA056045
:103F5000C0B28DF80E00E0B28DF80F004FF00008EF
:103F60000CE009F5B87010F808001DF8081048407A
:103F700009F5B87101F8080008F10108B8F1100F4F
:103F8000EFD309F5B87211464846FEF73BF94FF0FA
:103F900000080BE00CE01AF8080009F5B87111F8F8
:103FA000081048400AF8080008F10108D845F2D383
:103FB000002060E710B5044604B910BD2046FEF7A6
:103FC000DBFF4FF4C471204607F080F900BFF4E72F
:103FD00010B5044600BF00BF4FF4C4712046FCF783
:103FE000FCF810BD2DE9F04780460E4617461D46E9
:103FF0006FF06D0900BF00BF00BF00BF00BF00BF72
:10400000012229463046FEF7EDFF04461CB96FF049
:104010001300BDE8F0876069102802D06FF013002C
:10402000F7E74046FEF7A8FF21464046FFF798F81D
:104030005FEA000901D04846EBE701232A463946EA
:104040004046FFF74BF85FEA000901D04846E0E739
:104050004046FEF70CF85FEA000901D04846D8E771
:104060000020D6E72DE9F04F87B004468B469246F4
:104070001E46119F6FF06D0006900020019000BF5A
:1040800000BF00BF00BF00BF00BF56B180EA000103
:104090004040014305D1002080EA00014040014337
:1040A00004D06FF0130007B0BDE8F08F04F5807006
:1040B0000021016641668166C166016741678167CB
:1040C000C167C4F880B1C4F84011C4F84411C4F801
:1040D0004811C4F84C110C2E09D1324651466030BB
:1040E000FCF754F8012140F26F10015549E000201F
:1040F0000290039004900590C6F347508DF8140089
:10410000C6F34F308DF81500C6F357108DF8160022
:10411000F006000E8DF81700D1461CE0102E01D2DB
:10412000304600E010208046002509E004F5B0701C
:10413000405D19F80510484004F5B07148556D1CF4
:104140004545F3D304F5B07211462046FEF75AF800
:10415000A6EB0806C144002EE0D1002509E004F5D5
:10416000B070405D02A9495D484004F5B071485502
:104170006D1C102DF3D304F5B07211462046FEF7E6
:1041800041F801A804F5A873102204F5B07100905D
:104190002046FFF703F8069008B1069883E7002051
:1041A000C4F84871C4F84C01DDF840901CE0102FB1
:1041B00001D2384600E010208046002509E004F5D1
:1041C000B870405D19F80510484004F5B8714855BD
:1041D0006D1C4545F3D304F5B87211462046FEF731
:1041E00011F8A7EB0807C144002FE0D100205AE7DF
:1041F0002DE9F04F87B004460E46174698466FF0FB
:104200006D000690C3460020019000BF00BF00BFB4
:1042100000BF00BF00BFB84508D9A8EB0700B042F7
:1042200004D26FF0130007B0BDE8F08FD4F840213E
:10423000D4F84401931940F100001146D4F8442108
:10424000591A90410CD3D4F84021D4F84401921962
:1042500040F100006FF01F030F219A1A814102D232
:104260006FF01300DFE7D4F84021D4F8440192192D
:1042700040F10000C4F84021C4F84401B94651E0BF
:10428000102E01D2304600E01020824610250AE0B0
:10429000681E04F5B071085C401CC2B2681E0A5466
:1042A00002B102E06D1E0C2DF2D800BF01A802ABD6
:1042B000102204F5B07100902046FEF76FFF0690C3
:1042C00008B10698AFE7002520E0D4F8800140B996
:1042D00004F5B870405D19F80510484004F5B87150
:1042E000485502A8405D19F8051048400BF8050034
:1042F000D4F88001012808D104F5B870405D1BF89E
:104300000510484004F5B87148556D1C5545DCD37F
:1043100004F5B87211462046FDF774FFA6EB0A06B5
:10432000D144D344002EABD100207CE72DE9F041ED
:1043300080460D4616461C46FBF716FF00EB800034
:104340004FF47A7101EB800700202060042E01D227
:10435000BDE8F0812F60042020600020F8E72DE9FF
:10436000FF4F87B005468B4614464FF480300690C9
:10437000401E05900CB1A5420AD30A9818B14FF01F
:10438000FF310A9801604FF0FF300BB0BDE8F08FAD
:104390002046FEF7E5FF0746BC40BD40C7F12000C0
:1043A0002BFA00F1784201EAE07005430BFA07FBB3
:1043B0004FEA1448A0B204904FEA1B4001901FFA44
:1043C0008BF00090B5FBF8F608FB165A05E0761E58
:1043D000C244BAF5803F00D30BE0B6F5803FF6D279
:1043E000049870434FF48032019902FB0A1188420D
:1043F000EDD800BF019806FB140000EB05400390C8
:104400000398B0FBF8F9039809FB180A06E0A9F134
:104410000109C244BAF5803F00D30CE0B9F5803FF2
:10442000F5D2049809FB00F04FF48032009902FBAA
:104430000A118842EBD800BF0A9840B1009903984E
:1044400001EB004009FB1400F8400A99086009EBF1
:1044500006400290029898E7F0B589B006460C46EF
:104460001546706808902078617840EA0120A178AC
:1044700040EA0140E17840EA01600790089800684E
:104480000899091D0891079948400790207961799A
:1044900040EA0120A17940EA0140E17940EA016067
:1044A0000690089800680899091D089106994840E7
:1044B0000690207A617A40EA0120A17A40EA014020
:1044C000E17A40EA01600590089800680899091DA2
:1044D0000891059948400590207B617B40EA0120C6
:1044E000A17B40EA0140E17B40EA0160049008982A
:1044F00000680899091D0891049948400490012119
:104500003068C1EB600704E100BF089800680899B3
:10451000091D08910799C9B2FE4A52F82110484076
:104520000499C1F30721FC4A52F82110484005992B
:10453000C1F30741F94A52F8211048400699090E83
:10454000F74A52F8211048400390089800680899EB
:10455000091D08910699C9B2EE4A52F82110484047
:104560000799C1F30721EC4A52F8211048400499F9
:10457000C1F30741E94A52F8211048400599090E54
:10458000E74A52F8211048400290089800680899BC
:10459000091D08910599C9B2DE4A52F82110484018
:1045A0000699C1F30721DC4A52F8211048400799C7
:1045B000C1F30741D94A52F8211048400499090E25
:1045C000D74A52F82110484001900898006808998D
:1045D000091D08910499C9B2CE4A52F821104840E9
:1045E0000599C1F30721CC4A52F821104840069999
:1045F000C1F30741C94A52F8211048400799090EF2
:10460000C74A52F821104840009000BF00BF0898E8
:1046100000680899091D08910399C9B2BD4A52F86A
:10462000211048400099C1F30721BB4A52F82110DC
:1046300048400199C1F30741B84A52F82110484057
:104640000299090EB64A52F821104840079008987E
:1046500000680899091D08910299C9B2AD4A52F83B
:10466000211048400399C1F30721AB4A52F82110A9
:1046700048400099C1F30741A84A52F82110484028
:104680000199090EA64A52F8211048400690089850
:1046900000680899091D08910199C9B29D4A52F80C
:1046A000211048400299C1F307219B4A52F821107A
:1046B00048400399C1F30741984A52F821104840F5
:1046C0000099090E964A52F8211048400590089822
:1046D00000680899091D08910099C9B28D4A52F8DD
:1046E000211048400199C1F307218B4A52F821104B
:1046F00048400299C1F30741884A52F821104840C6
:104700000399090E864A52F821104840049000BFD0
:104710007F1E002F3FF7F8AE00BF08980068089989
:10472000091D08910799C9B27A4A52F821104840E8
:104730000499C1F30721784A52F82110484005999D
:10474000C1F30741754A52F8211048400699090EF5
:10475000734A52F82110484003900898006808995D
:10476000091D08910699C9B26A4A52F821104840B9
:104770000799C1F30721684A52F82110484004996B
:10478000C1F30741654A52F8211048400599090EC6
:10479000634A52F82110484002900898006808992E
:1047A000091D08910599C9B25A4A52F8211048408A
:1047B0000699C1F30721584A52F821104840079939
:1047C000C1F30741554A52F8211048400499090E97
:1047D000534A52F8211048400190089800680899FF
:1047E000091D08910499C9B24A4A52F8211048405B
:1047F0000599C1F30721484A52F82110484006990B
:10480000C1F30741454A52F8211048400799090E63
:10481000434A52F821104840009000BF08980068B1
:104820000899091D08910399C9B23E4A515C484054
:104830001146009AC2F30722895C80EA01213948B7
:10484000019AC2F30742805C81EA00410298000E9F
:10485000344A105C81EA0060079008980068089963
:10486000091D08910299C9B2515C48401146039A4A
:10487000C2F30722895C80EA01212A48009AC2F328
:104880000742805C81EA00410198000E254A105CD5
:1048900081EA00600690089800680899091D08914F
:1048A0000199C9B2515C48401146029AC2F30722ED
:1048B000895C80EA01201B49039AC2F30742895CA4
:1048C00080EA01410098000E164A105C81EA0060FF
:1048D0000590089800680899091D08910099C9B2C7
:1048E000515C48401146019AC2F30722895C80EA74
:1048F00001210C48029AC2F30742805C81EA004120
:104900000398000E074A105C81EA00600490079843
:10491000287009E048A2010848A6010848AA010831
:1049200048AE010848A101080798000A6870079876
:10493000000CA8700798000EE87006982871069879
:10494000000A68710698000CA8710698000EE871BC
:10495000059828720598000A68720598000CA872DC
:104960000598000EE872049828730498000A68738A
:104970000498000CA8730498000EE873042107A89B
:1049800006F0A4FC042106A806F0A0FC042105A85A
:1049900006F09CFC042104A806F098FC042103A85E
:1049A00006F094FC042102A806F090FC042101A862
:1049B00006F08CFC0421684606F088FC042108A857
:1049C00006F084FC002009B0F0BD0000F0B589B00D
:1049D00006460C461546706808902078617840EAD3
:1049E0000120A17840EA0140E17840EA01600790A7
:1049F000089800680899091D089107994840079090
:104A00002079617940EA0120A17940EA0140E17909
:104A100040EA01600690089800680899091D08910D
:104A2000069948400690207A617A40EA0120A17AEE
:104A300040EA0140E17A40EA016005900898006888
:104A40000899091D0891059948400590207B617BD4
:104A500040EA0120A17B40EA0140E17B40EA01609D
:104A60000490089800680899091D08910499484025
:104A7000049001213068C1EB600704E100BF089891
:104A800000680899091D08910799C9B2FE4A52F8B1
:104A9000211048400699C1F30721FC4A52F8211021
:104AA00048400599C1F30741F94A52F8211048409E
:104AB0000499090EF74A52F82110484003900898CB
:104AC00000680899091D08910699C9B2EE4A52F882
:104AD000211048400599C1F30721EC4A52F82110F2
:104AE00048400499C1F30741E94A52F8211048406F
:104AF0000799090EE74A52F8211048400290089899
:104B000000680899091D08910599C9B2DE4A52F852
:104B1000211048400499C1F30721DC4A52F82110C2
:104B200048400799C1F30741D94A52F8211048403B
:104B30000699090ED74A52F821104840019008986A
:104B400000680899091D08910499C9B2CE4A52F823
:104B5000211048400799C1F30721CC4A52F821108F
:104B600048400699C1F30741C94A52F8211048400C
:104B70000599090EC74A52F821104840009000BF1D
:104B800000BF089800680899091D08910399C9B2E7
:104B9000BD4A52F8211048400299C1F30721BB4A8F
:104BA00052F8211048400199C1F30741B84A52F820
:104BB000211048400099090EB64A52F82110484089
:104BC0000790089800680899091D08910299C9B2D0
:104BD000AD4A52F8211048400199C1F30721AB4A70
:104BE00052F8211048400099C1F30741A84A52F8F1
:104BF000211048400399090EA64A52F82110484056
:104C00000690089800680899091D08910199C9B291
:104C10009D4A52F8211048400099C1F307219B4A50
:104C200052F8211048400399C1F30741984A52F8BD
:104C3000211048400299090E964A52F82110484026
:104C40000590089800680899091D08910099C9B253
:104C50008D4A52F8211048400399C1F307218B4A2D
:104C600052F8211048400299C1F30741884A52F88E
:104C7000211048400199090E864A52F821104840F7
:104C8000049000BF7F1E002F3FF7F8AE00BF0898CA
:104C900000680899091D08910799C9B27A4A52F823
:104CA000211048400699C1F30721784A52F8211093
:104CB00048400599C1F30741754A52F82110484010
:104CC0000499090E734A52F821104840039008983D
:104CD00000680899091D08910699C9B26A4A52F8F4
:104CE000211048400599C1F30721684A52F8211064
:104CF00048400499C1F30741654A52F821104840E1
:104D00000799090E634A52F821104840029008980A
:104D100000680899091D08910599C9B25A4A52F8C4
:104D2000211048400499C1F30721584A52F8211034
:104D300048400799C1F30741554A52F821104840AD
:104D40000699090E534A52F82110484001900898DC
:104D500000680899091D08910499C9B24A4A52F895
:104D6000211048400799C1F30721484A52F8211001
:104D700048400699C1F30741454A52F8211048407E
:104D80000599090E434A52F821104840009000BF8F
:104D9000089800680899091D08910399C9B23E4A0C
:104DA000515C48401146029AC2F30722895C80EAAE
:104DB00001213948019AC2F30742805C81EA00412F
:104DC0000098000E344A105C81EA00600790089851
:104DD00000680899091D08910299C9B2515C4840C0
:104DE0001146019AC2F30722895C80EA01212A4810
:104DF000009AC2F30742805C81EA00410398000EEA
:104E0000254A105C81EA00600690089800680899BD
:104E1000091D08910199C9B2515C48401146009A98
:104E2000C2F30722895C80EA01201B49039AC2F37E
:104E30000742895C80EA01410298000E164A105C24
:104E400081EA00600590089800680899091D08919A
:104E50000099C9B2515C48401146039AC2F3072237
:104E6000895C80EA01210C48029AC2F30742805C07
:104E700081EA00410198000E074A105C81EA006057
:104E800004900798287009E04891010848950108A6
:104E900048990108489D0108489001080798000AB0
:104EA00068700798000CA8700798000EE8700698C4
:104EB00028710698000A68710698000CA871069877
:104EC000000EE871059828720598000A6872059826
:104ED000000CA8720598000EE872049828730498D4
:104EE000000A68730498000CA8730498000EE87315
:104EF000042107A806F0EAF9042106A806F0E6F95D
:104F0000042105A806F0E2F9042104A806F0DEF960
:104F1000042103A806F0DAF9042102A806F0D6F964
:104F2000042101A806F0D2F90421684606F0CEF962
:104F3000042108A806F0CAF9002009B0F0BD00005D
:104F4000F0B590B006460D4628786F7840EA072005
:104F5000AF7840EA0740EF7840EA07600090287990
:104F60006F7940EA0720AF7940EA0740EF7940EADD
:104F700007600190287A6F7A40EA0720AF7A40EA0A
:104F80000740EF7A40EA07600290287B6F7B40EA97
:104F90000720AF7B40EA0740EF7B40EA07600390C1
:104FA000287C6F7C40EA0720AF7C40EA0740EF7C1A
:104FB00040EA07600490287D6F7D40EA0720AF7DBE
:104FC00040EA0740EF7D40EA07600590287E6F7E4B
:104FD00040EA0720AF7E40EA0740EF7E40EA0760E4
:104FE0000690287F6F7F40EA0720AF7F40EA0740A6
:104FF000EF7F40EA0760079095F8200095F8217050
:1050000040EA072095F8227040EA074095F823709F
:1050100040EA0760089095F8240095F8257040EA6A
:10502000072095F8267040EA074095F8277040EA77
:105030000760099095F8280095F8297040EA072044
:1050400095F82A7040EA074095F82B7040EA07600F
:105050000A9095F82C0095F82D7040EA072095F8F5
:105060002E7040EA074095F82F7040EA07600B90D9
:1050700095F8300095F8317040EA072095F83270C5
:1050800040EA074095F8337040EA07600C9095F8C5
:10509000340095F8357040EA072095F8367040EAFC
:1050A000074095F8377040EA07600D9095F8380092
:1050B00095F8397040EA072095F83A7040EA0740C1
:1050C00095F83B7040EA07600E9095F83C0095F823
:1050D0003D7040EA072095F83E7040EA074095F899
:1050E0003F7040EA07600F90B168F26833697469F5
:1050F00000BF83EA040010406040009F3844FE4F28
:1051000038440144C80140EA5160811800BF00BF23
:1051100082EA030008405840019F3844F74F384462
:105120000444200340EA1450441800BF00BF81EA41
:10513000020020405040029F3844F14F384403445D
:10514000580440EAD330031900BF00BF84EA0100CD
:1051500018404840039F3844EA4F384402449005C1
:1051600040EA9220C21800BF00BF83EA040010404A
:105170006040049F3844E44F38440144C80140EA89
:105180005160811800BF00BF82EA03000840584008
:10519000059F3844DD4F38440444200340EA14504E
:1051A000441800BF00BF81EA020020405040069F23
:1051B0003844D74F38440344580440EAD3300319E5
:1051C00000BF00BF84EA010018404840079F3844F0
:1051D000D04F38440244900540EA9220C21800BFE4
:1051E00000BF83EA040010406040089F3844CA4F63
:1051F00038440144C80140EA5160811800BF00BF33
:1052000082EA030008405840099F3844C34F38449D
:105210000444200340EA1450441800BF00BF81EA50
:105220000200204050400A9F3844A0F524404F38E7
:105230000344580440EAD330031900BF00BF84EA96
:105240000100184048400B9F3844B54F3844024491
:10525000900540EA9220C21800BF00BF83EA040014
:10526000104060400C9F3844AE4F38440144C801A0
:1052700040EA5160811800BF00BF82EA0300084085
:1052800058400D9F3844A84F38440444200340EA56
:105290001450441800BF00BF81EA02002040504073
:1052A0000E9F3844A14F38440344580440EAD33099
:1052B000031900BF00BF84EA0100184048400F9F57
:1052C00038449B4F38440244900540EA9220C2186B
:1052D00000BF00BF82EA030020405840019F3844CD
:1052E000944F38440144480140EAD160811800BF1E
:1052F00000BF81EA020018405040069F38448E4F9C
:1053000038440444600240EAD450441800BF00BF4F
:1053100084EA0100104048400B9F3844874F3844CE
:105320000344980340EA9340031900BF00BF83EA97
:10533000040008406040009F3844814F38440244D4
:10534000100540EA1230C21800BF00BF82EA030015
:1053500020405840059F38447A4F38440144480162
:1053600040EAD160811800BF00BF81EA0200184006
:1053700050400A9F3844744F38440444600240EA65
:10538000D450441800BF00BF84EA010010404840D8
:105390000F9F38446D4F38440344980340EA9340CC
:1053A000031900BF00BF83EA040008406040049F67
:1053B0003844674F38440244100540EA1230C2189E
:1053C00000BF00BF82EA030020405840099F3844D4
:1053D000604F38440144480140EAD160811800BF61
:1053E00000BF81EA0200184050400E9F38445A4FD7
:1053F00038440444600240EAD450441800BF00BF5F
:1054000084EA010010404840039F3844534F384419
:105410000344980340EA9340031900BF00BF83EAA6
:10542000040008406040089F38444D4F384402440F
:10543000100540EA1230C21800BF00BF82EA030024
:10544000204058400D9F3844464F3844014448019D
:1054500040EAD160811800BF00BF81EA0200184015
:105460005040029F3844404F38440444600240EAB0
:10547000D450441800BF00BF84EA010010404840E7
:10548000079F3844394F38440344980340EA934017
:10549000031900BF00BF83EA0400084060400C9F6E
:1054A0003844334F38440244100540EA1230C218E1
:1054B00000BF00BF82EA03006040059F38442D4FC3
:1054C00038440144080140EA1170811800BF00BF50
:1054D00081EA02005840089F3844274F384404446A
:1054E000E00240EA5450441800BF00BF84EA0100C3
:1054F00050400B9F384441E078A46AD756B7C7E8BC
:10550000DB702024EECEBDC1AF0F7CF52AC68747E5
:10551000134630A8019546FDD8988069AFF7448BB3
:10552000BED75C892211906B937198FD8E4379A64A
:105530002108B44962251EF640B340C0515A5E2688
:10554000AAC7B6E95D102FD65314440281E6A1D84C
:10555000C8FBD3E7E6CDE121D60737C3870DD5F4E5
:10556000ED145A4505E9E3A9F8A3EFFCD9026F67EA
:105570008A4C2A8D4239FAFF81F67187D64F38441A
:105580000344180440EA1340031900BF00BF83EA34
:10559000040048400E9F3844D04F38440244D005A0
:1055A00040EA5220C21800BF00BF82EA03006040F8
:1055B000019F3844CA4F38440144080140EA117041
:1055C000811800BF00BF81EA02005840049F3844A0
:1055D000C44F38440444E00240EA5450441800BF29
:1055E00000BF84EA01005040079F3844BE4F384452
:1055F0000344180440EA1340031900BF00BF83EAC4
:10560000040048400A9F3844B84F38440244D0054B
:1056100040EA5220C21800BF00BF82EA0300604087
:105620000D9F3844B24F38440144080140EA1170DC
:10563000811800BF00BF81EA02005840009F384433
:10564000AC4F38440444E00240EA5450441800BFD0
:1056500000BF84EA01005040039F3844A64F3844FD
:105660000344180440EA1340031900BF00BF83EA53
:1056700004004840069F3844A04F38440244D005F7
:1056800040EA5220C21800BF00BF82EA0300604017
:10569000099F38449A4F38440144080140EA117088
:1056A000811800BF00BF81EA020058400C9F3844B7
:1056B000944F38440444E00240EA5450441800BF78
:1056C00000BF84EA010050400F9F38448E4F384499
:1056D0000344180440EA1340031900BF00BF83EAE3
:1056E00004004840029F3844884F38440244D005A3
:1056F00040EA5220C21800BF00BF62EA04005840CE
:10570000009F3844824F38440144880140EA916048
:10571000811800BF00BF61EA03005040079F384472
:105720007C4F38440444A00240EA9450441800BF1F
:1057300000BF64EA020048400E9F3844764F384468
:105740000344D80340EA5340031900BF00BF63EA93
:1057500001006040059F3844704F384402445005B2
:1057600040EAD220C21800BF00BF62EA04005840DD
:105770000C9F38446A4F38440144880140EA9160E4
:10578000811800BF00BF61EA03005040039F384406
:10579000644F38440444A00240EA9450441800BFC7
:1057A00000BF64EA020048400A9F38445E4F384414
:1057B0000344D80340EA5340031900BF00BF63EA23
:1057C00001006040019F3844584F3844024450055E
:1057D00040EAD220C21800BF00BF62EA040058406D
:1057E000089F3844524F38440144880140EA916090
:1057F000811800BF00BF61EA030050400F9F38448A
:105800004C4F38440444A00240EA9450441800BF6E
:1058100000BF64EA02004840069F3844464F3844BF
:105820000344D80340EA5340031900BF00BF63EAB2
:10583000010060400D9F3844404F384402445005F9
:1058400040EAD220C21800BF00BF62EA04005840FC
:10585000049F38443A4F38440144880140EA91603B
:10586000811800BF00BF61EA030050400B9F38441D
:10587000344F38440444A00240EA9450441800BF16
:1058800000BF64EA02004840029F38442E4F38446B
:105890000344D80340EA5340031900BF00BF63EA42
:1058A00001006040099F3844284F384402445005A5
:1058B00040EAD220C21800BFB0680844B060F06867
:1058C0008718F7603069C718376170690719776101
:1058D000002010B0F0BD000022619D6D0C38E5FD88
:1058E00044EABEA4A9CFDE4B604BBBF670BCBFBE82
:1058F000C67E9B28FA27A1EA8530EFD4051D8804CF
:1059000039D0D4D9E599DBE6F87CA21F6556ACC442
:10591000442229F497FF2A43A72394AB39A093FC90
:10592000C3595B6592CC0C8F7DF4EFFFD15D84850C
:105930004F7EA86FE0E62CFE144301A3A111084E90
:10594000827E53F735F23ABDBBD2D72A91D386EB8C
:105950002DE9F04390B084460F4600BF00BF00BF62
:1059600000BF3878000697F8018040EA084097F8B1
:10597000028040EA082097F8038040EA080000907F
:105980003879000697F8058040EA084097F80680C5
:1059900040EA082097F8078040EA08000190387A2A
:1059A000000697F8098040EA084097F80A8040EA24
:1059B000082097F80B8040EA08000290387B000628
:1059C00097F80D8040EA084097F80E8040EA0820DA
:1059D00097F80F8040EA08000390387C000697F89B
:1059E000118040EA084097F8128040EA082097F8B2
:1059F000138040EA08000490387D000697F815806F
:105A000040EA084097F8168040EA082097F8178087
:105A100040EA08000590387E000697F8198040EAB1
:105A2000084097F81A8040EA082097F81B8040EA5F
:105A300008000690387F000697F81D8040EA08406D
:105A400097F81E8040EA082097F81F8040EA080077
:105A5000079097F82000000697F8218040EA084058
:105A600097F8228040EA082097F8238040EA08004F
:105A7000089097F82400000697F8258040EA08402F
:105A800097F8268040EA082097F8278040EA080027
:105A9000099097F82800000697F8298040EA084006
:105AA00097F82A8040EA082097F82B8040EA0800FF
:105AB0000A9097F82C00000697F82D8040EA0840DD
:105AC00097F82E8040EA082097F82F8040EA0800D7
:105AD0000B9097F83000000697F8318040EA0840B4
