:020000040800F2
:10000000880F002011320008450100084701000850
:100010006F0100087301000877010008000000006C
:100020000000000000000000000000007B0100084C
:100030007D010008000000007F010008D1030008D6
:100040002B3200082B3200082B3200082B3200081C
:100050002B3200082B3200082B3200082B3200080C
:100060002B3200082B3200082B3200082B320008FC
:100070002B3200082B3200082B3200082B320008EC
:100080002B3200082B3200082B3200082B320008DC
:100090002B3200082B3200082B3200082B320008CC
:1000A0002B3200082B3200082B3200082B320008BC
:1000B0002B3200082B3200082B3200082B320008AC
:1000C0002B3200082B3200082B3200082B3200089C
:1000D0002B3200082F0500082B3200082B320008B5
:1000E0002B3200082B3200082B3200082B3200087C
:1000F0002B3200082B3200082B3200082B3200086C
:100100002B3200082B3200082B3200082B3200085B
:100110002B3200082B3200082B3200082B3200084B
:100120002B3200082B3200082B3200082B3200083B
:10013000DFF80CD003F0D2FB00480047890100082B
:10014000880F0020704711E071B600BFBFF34F8FDA
:100150000B48006800F4E0600A490843001D0849A4
:100160000860BFF34F8F00BF00BFFEE7ECE700BFA2
:10017000FEE700BFFEE700BFFEE77047704770472D
:100180000CED00E00000FA0500F0C2F84FF4E13099
:1001900000F06CF900F04AFA00F0E4F84FF4FA725B
:1001A00039493A4800F082FA02F00CF83849086000
:1001B00038A001F0F0FF044622463BA13448006815
:1001C00001F0ADFE01F0FEFF394904462246086009
:1001D00038A12F48006801F0A2FE38A001F0DBFF33
:1001E0000446224637A13248006801F098FE0020FC
:1001F000364901F0BEFF0446224635A12C4800686E
:1002000001F08DFE0020344901F0B3FF0446224680
:1002100032A12748006801F082FE01F094FF0446F5
:10022000224630A12248006801F079FE00203049C2
:1002300001F09FFF044622462EA11D48006801F0F0
:100240006EFE1348006801F0EDFD2D490860084678
:1002500001682CA003F0A6FB4FF47A7000F0AFF811
:100260000B48006800F014FC2548006804F01AF9F7
:1002700009E02548007830B1002023490870962114
:10028000224802F0F6FFF4E7660100205C0300203C
:10029000640000204A61636B2028224265652229A0
:1002A000204E696D626C65006E616D650000000036
:1002B00068000020666F726D61740000726563747F
:1002C00000000000747970650000000000009E408E
:1002D000776964746800000000E0904068656967B1
:1002E00068740000696E7465726C6163650000007B
:1002F000000038406672616D6520726174650000AF
:100300006C0000202573000088000020D000002031
:1003100008B54FF4A06002F089F925208DF800009F
:1003200000208DF801008DF8020001208DF80300F7
:10033000684602F080F908BD71B600BFBFF34F8F69
:100340000648006800F4E06005490843001D0349C1
:100350000860BFF34F8F00BF00BFFEE70CED00E069
:100360000000FA0570B56FF0040002F0AEF93548F0
:1003700000684FF47A72B0FBF2F1481EB0F1807F52
:1003800000D31BE0481E4FF0E022506150170F22AF
:10039000002807DA13071D0E2B4B00F00F04241F53
:1003A0001D5503E013071C0E284B1C5400BF0020F2
:1003B0004FF0E02290610720106100BF70BD002166
:1003C000234A116000BF224909688142FBD370476C
:1003D0001F480068401C1E4908601E48406828B13C
:1003E0001C484069401C1B49486102E00020194933
:1003F00048611848806828B116488069401C154932
:10040000886102E000201349886113480068B8B190
:1004100012480068401C11490860084600681049ED
:10042000096888420CD300200C4908600A4800681B
:100430000C49086000200849086001200A4908703A
:10044000704700009800002018ED00E000E400E094
:10045000740000206C030020780000208000002041
:10046000840000207C0000208800002010B586B0A9
:100470000446012144F2040002F0B4FA4FF4007083
:10048000ADF8140003208DF8160018208DF8170021
:1004900005A95E4802F06EFD4FF48060ADF81400CF
:1004A00004208DF8170005A9584802F063FD019457
:1004B0000020ADF80800ADF80A00ADF80C00ADF86A
:1004C00010000C20ADF80E0001A9514802F031FBDC
:1004D000012240F225514E4802F0C3FB01214C4855
:1004E00002F0B3FB06B010BD70B504460D460BE03C
:1004F00014F8011B464802F015FC00BF8021444857
:1005000002F07EFC0028F9D02800A5F10105EFD10A
:1005100070BD10B5044621463D4802F003FC00BF03
:1005200080213B4802F06CFC0028F9D010BD10B5CA
:1005300040F22551364802F079FCA8B1344802F067
:10054000F5FBC4B233483449096844543248006862
:10055000401C31490860084600688C2801D90020F9
:10056000086000202D49086040F22771284802F0F9
:100570005DFC00B32A4800F0C3F800280ADD012220
:100580002849274800F0EDF826480178204802F075
:10059000C9FB10E040F227711D4802F071FC0022F7
:1005A00040F227711A4802F05CFB012240F22661FA
:1005B000174802F056FB40F22661154802F036FC5F
:1005C00050B140F22661124802F05AFC002240F27B
:1005D00026610F4802F045FB10BD38B504460D46B4
:1005E000E0B200901048007838B901200E49087038
:1005F00040F22661064802F043FC01236A460449A2
:10060000074800F05FF9204638BD000000080140AF
:1006100000380140D0000020780000208000002039
:100620005C030020890000208A00002008B5012119
:100630007D2002F0D7F94FF40050ADF800001020F3
:100640008DF8030003208DF802006946154802F07A
:1006500091FC0420ADF8000010208DF80300032069
:100660008DF802006946104802F084FC2020ADF8A5
:10067000000048208DF8030003208DF80200694631
:10068000094802F077FC4FF40070ADF80000142028
:100690008DF8030003208DF802006946024802F03D
:1006A00069FC08BD00100140000C014070B5044613
:1006B0000E4615461CB996A003F074F970BD25804E
:1006C000E660E0686060E068A06000BFF6E710B533
:1006D00004461CB98EA003F065F910BD0020E0604F
:1006E0006060A060208000BFF7E710B504462CB919
:1006F00087A003F057F94FF0FF3010BD2088FCE7CA
:1007000010B504462CB982A003F04CF94FF0FF302D
:1007100010BDD4E90101884201D10020F8E7D4E9F5
:100720000101884203D2D4E90110401AF0E72046C3
:10073000FFF7DBFFD4E90112891A401AE8E770B528
:1007400004462CB972A003F02DF94FF0FF3070BDB4
:100750002046FFF7CAFF05462046FFF7D1FF281ABB
:10076000F5E72DE9F04104460F46164600252CB961
:1007700067A003F017F9681EBDE8F0812FB96BA0E0
:1007800003F010F94FF0FF30F6E7D4E90101884299
:1007900014D22046FFF7B4FFB04201DD304602E03C
:1007A0002046FFF7ADFF05462A463846616802F04D
:1007B00047FD6068284460602846DDE72046FFF773
:1007C00094FFE2686168891A401AB0420ADD354632
:1007D0002A463846616802F033FD6068284460604C
:1007E0002846C9E72046FFF780FFE2686168891A5A
:1007F000451A2A463846616802F022FDE0686060CA
:10080000701B82B279192046FFF7ABFF05442846DA
:10081000B2E72DE9F04104460F46154600262CB9F3
:1008200049A003F0BFF8701EBDE8F0812FB94CA0BD
:1008300003F0B8F84FF0FF30F6E72046FFF77FFFF0
:10084000A84205DC4CA003F0ADF84FF0FF30EBE719
:10085000D4E9010188422BD82046FFF746FFD4E9AE
:100860000212891A461AB54213DC2A463946A06894
:1008700002F0E6FCA0682844A0602046FFF735FFA0
:10088000E1680844A168884201D1E068A060284678
:10089000CAE732463946A06802F0D2FCE068A060A0
:1008A000A81B82B2B9192046FFF7B3FF3044BBE75B
:1008B0002A463946A06802F0C3FCA0682844A0601C
:1008C0002846B1E72DE9F04180460C4615461E4604
:1008D00000272DB92DA003F065F8781EBDE8F08142
:1008E000B2B229464046FFF794FF0746B74205D00B
:1008F0002FA003F057F84FF0FF30EFE72CB10122A3
:1009000040F22771204602F0ACF93846E6E70000D5
:100910004552524F523A20696E70757420726220AF
:100920006973204E554C4C0A000000004552524F4E
:10093000523A20696E707574206461746120697325
:10094000204E554C4C0A00004552524F523A2072EC
:100950006220697320656D707479200A00000000C0
:100960004552524F523A2064617461206973206588
:100970006D707479200A00004552524F523A206E31
:100980006F206D656D6F7279200A00004552524FDD
:10099000523A2067697A50757444617461206275B7
:1009A0006620697320656D707479200A000000006C
:1009B0004552524F523A204661696C656420746F0B
:1009C0002072625772697465200A0000FE48006850
:1009D000704770B504460D462CB9AC4201D00120D9
:1009E00070BD0020FCE70DB90120F9E705E0207893
:1009F00008B90020F4E7641C6D1C207802F01AFC92
:100A00000646287802F016FC8642F0D0207802F0E4
:100A100011FC0646287802F00DFC301AE0E770B5AC
:100A20000446204602F03AFC451C2846E74909687E
:100A30008847060000D170BD2A462146304602F0A4
:100A4000FFFB3046F7E730B9E149E04A1160E14980
:100A5000E14A11607047016809B1016800E0DC49B2
:100A6000DA4A1160416809B1416800E0D949DA4ABF
:100A7000116000BFEEE710B52820D4490968884707
:100A800004461CB12821204602F0F3FB204610BD8D
:100A900070B5044622E02568A08900F4807020B972
:100AA000A06810B1A068FFF7F3FFA08900F4807080
:100AB00028B9206918B1C849206909688847A08900
:100AC00000F4007028B9206A18B1C349206A096887
:100AD00088472046C049096888472C46002CDAD14F
:100AE00070BD2DE9F04F8BB083468A460020044646
:100AF00005460026B94F0021884689460990012005
:100B000008909AF800002D2802D1B54F0AF1010A89
:100B10009AF80000302801D10AF1010A9AF8000081
:100B2000312822DB9AF8000039281EDC00BF1AF8B1
:100B3000011BA1F1300002F0E9FC0022A94BCDE934
:100B400006012046294602F06FFCCDE90401DDE9EB
:100B5000062302F0C2FB04460D469AF80000302836
:100B600003DB9AF800003928E1DD9AF800002E280E
:100B700030D19AF8010030282CDB9AF8010039288E
:100B800028DC0AF1010A00BF1AF8011BA1F13000AC
:100B900002F0BCFC0022934BCDE906012046294619
:100BA00002F042FCCDE90401DDE9062302F095FBE9
:100BB00004460D460022894B4046494602F02EFC71
:100BC000804689469AF80000302803DB9AF8000036
:100BD0003928D9DD9AF80000652803D09AF800007A
:100BE000452823D10AF1010A9AF800002B2802D1E6
:100BF0000AF1010A08E09AF800002D2804D14FF00C
:100C0000FF3008900AF1010A08E01AF8010B3038A9
:100C1000099901EB810100EB410009909AF800006D
:100C2000302803DB9AF800003928EEDDDDE90821E1
:100C300001FB02F002F06AFC42464B46CDE900019E
:100C400002F04BFB02460B46CDE90201002065494C
:100C500003F086FC22462B46CDE906013046394694
:100C600002F0E2FBCDE90401DDE9062302F0DCFB42
:100C700004460D46CBE906452046294602F057FCBE
:100C8000CBF814000320CBF80C0050460BB0BDE8A5
:100C9000F08F0146491E41EA610141EAA10141EAA2
:100CA000211141EA212141EA2141481C70472DE9E7
:100CB000F04104460E460CB1206810B90020BDE892
:100CC000F081A06806446068B04203DBA168206838
:100CD0000844F4E73046FFF7DCFF074638463B4957
:100CE0000968884705463DB93B4920680968884737
:100CF000002060602060E2E725B12846D4E90012B8
:100D000002F09EFA344920680968884767602560C8
:100D1000A0682844D3E770B504460CB1206808B930
:100D2000002070BDA16820684518284602F0B6FA78
:100D3000A1680844F5E72DE9FC4782460E464FF0CE
:100D40000009DAE90645002213462046294602F04A
:100D500021FC13D12EB102213046FFF7A8FF8146B6
:100D600004E002201949096888478146B9F1000F5B
:100D700003D01DA00088A9F800009FE0DAF8140055
:100D800002F0C4FB074622462B4602F047FB21F047
:100D900000410022154BCDE9000102F0FBFB3ED8DB
:100DA000134A144B2046294602F0F4FB37D80022A0
:100DB000114B2046294602F005FC30D806B3152118
:100DC0003046FFF774FF19E08C00002090000020EF
:100DD000F5440008A5440008940000200000F03FFE
:100DE0000000F0BF00002440300000000000B03CD4
:100DF0000000C0FFFFFFDF410000E0C1814604E0CA
:100E00001520FA49096888478146B9F1000F55D085
:100E1000F7A14846DAF8142002F0D4FD4EE02EB1D6
:100E200040213046FFF743FF814604E04020EF4970
:100E3000096888478146B9F1000F3FD0204629460E
:100E400003F0C2FA074622462B4602F0E7FA21F0E9
:100E500000410022E74BCDE9000102F09BFB0FD8D7
:100E600025F000412746E44AE44B384602F092FB65
:100E700006D222462B46E2A1484602F0A3FD1DE021
:100E800025F000412746E04AE04B384602F082FB5D
:100E900007D325F000410022DD4B384602F092FBDB
:100EA00006D222462B46DBA1484602F08BFD05E028
:100EB00022462B46D8A1484602F084FD4846BDE8AC
:100EC000FC87014600220878302806DB087839289C
:100ED00003DC08783038024415E00878412806DB46
:100EE0000878462803DC0878373802440BE0087895
:100EF000612806DB0878662803DC08785738024446
:100F000001E0002070471201491C0878302806DBF8
:100F10000878392803DC08783038024415E008786E
:100F2000412806DB0878462803DC08783738024475
:100F30000BE00878612806DB0878662803DC08786F
:100F40005738024401E00020DCE71201491C087810
:100F5000302806DB0878392803DC0878303802446A
:100F600015E00878412806DB0878462803DC087875
:100F7000373802440BE00878612806DB08786628D9
:100F800003DC08785738024401E00020BAE7120178
:100F9000491C0878302806DB0878392803DC0878F3
:100FA0003038024415E00878412806DB08784628E6
:100FB00003DC0878373802440BE00878612806DB48
:100FC0000878662803DC08785738024401E00020DE
:100FD00098E7104696E72DE9F05F8346884608F1CA
:100FE0000104002798F80000222805D08B48C0F89B
:100FF00000800020BDE8F09F04E014F8011B5C298C
:1010000000D1641C2078222804D0207810B1781CEC
:101010000700F2D1781C7549096888478146B9F103
:10102000000F01D10020E5E708F101044D469EE0E4
:1010300020785C2804D014F8010B05F8010B96E029
:10104000641C2078722818D006DC622809D0662833
:101050000BD06E287ED10CE0742812D07528F9D1FF
:1010600013E0082005F8010B7FE00C2005F8010BC8
:101070007BE00A2005F8010B77E00D2005F8010B55
:1010800073E0092005F8010B6FE0601CFFF719FF02
:101090000646241DB6F55C4F02D3B6F5604F00D36B
:1010A00006B962E0B6F5584F1CD3B6F55C4F19D2BD
:1010B00060785C2802D1A078752800D055E0E01C4B
:1010C000FFF7FFFE8246A41DBAF55C4F02D3BAF5C6
:1010D000604F00D349E0C6F30901504661F39F20F9
:1010E00000F580360427802E01D2012708E0B6F5EE
:1010F000006F01D2022703E0B6F5803F00D203273C
:101100003D44012F20D0022F15D0032F0AD0042FE9
:1011100024D106F0BF0040F08001681E0546017032
:10112000B60900BF06F0BF0040F08001681E05460A
:101130000170B60900BF06F0BF0040F08001681ED4
:1011400005460170B60900BF3548C05D3043C1B2E5
:10115000681E00E005E00546017000BF00BF3D4489
:1011600003E0207805F8010B00BF00BF641C207865
:10117000222803D0207800287FF45AAF002028705E
:101180002078222800D1641CCBF810900420CBF8E2
:101190000C0020462EE72DE9F05F804689460027A7
:1011A000BB46454611E02878002802DD2878202833
:1011B00005DB2878222802D028785C2801D101207C
:1011C00000E0002040EA0B0B6D1C28780028EAD1D3
:1011D000BBF1000F3ED1A5EB0807B9F1000F21D0FC
:1011E000F91C4846FFF763FD064620E0900000200A
:1011F000256400000000B03C44F3C2E4E4E9634C21
:10120000252E3066000000008DEDB5A0F7C6B03E7B
:1012100065CDCD4125650000256600008C000020CD
:10122000644F0008F81CFD4909688847064616B94E
:101230000020BDE8F09F3446222004F8010B41460F
:10124000204602F032F82220E0550021781C21547B
:101250003046EEE7B8F1000F16D1B9F1000F05D016
:1012600003214846FFF723FD064604E00320EB492F
:101270000968884706460EB90020DAE7E8A130463B
:1012800002F013F83046D4E745460BE05146E5A09E
:1012900001F0FAFF08B17F1C03E0BAF1200F00DA79
:1012A0007F1D6D1C95F800A0BAF1000F02D0781CCC
:1012B0000700EBD1B9F1000F05D0F91C4846FFF744
:1012C000F6FC064604E0F81CD4490968884706463F
:1012D0000EB90020ADE734464546222004F8010B44
:1012E00047E028781F280ADD2878222807D02878A8
:1012F0005C2804D015F8010B04F8010B39E05C20E0
:1013000004F8010B15F8011B8A460C2919D006DCDC
:10131000082912D0092920D00A2922D115E00D2947
:1013200017D0222905D05C291BD15C2004F8010BC1
:101330001EE0222004F8010B1AE0622004F8010BE1
:1013400016E0662004F8010B12E06E2004F8010B91
:101350000EE0722004F8010B0AE0742004F8010B7F
:1013600006E05246B1A1204602F02CFB641D00BFEE
:1013700000BF28780028B4D1222004F8010B0020F7
:1013800004F8010B304654E770B504460D46294673
:101390002069FFF700FF70BD00E0401C20B101781C
:1013A00011B101782029F8DD70472DE9F047064694
:1013B0000C4620787B2804D09E4804600020BDE8BD
:1013C000F0870620F060601CFFF7E6FF04462078F7
:1013D0007D2801D1601CF2E7FFF74DFB0546B060A8
:1013E000B06808B90020EAE72046FFF7D5FF80463D
:1013F00041462846FFF7EFFD0746FFF7CDFF0446BD
:101400000CB90020DBE728692862002028612078D9
:101410003A2803D0874804600020D0E7601CFFF71B
:10142000BBFF80464146284600F099F80746FFF783
:10143000B3FF04460CB90020C1E731E0FFF71BFB06
:10144000070000D1BBE72F607D603D46601CFFF7C1
:10145000A3FF814649462846FFF7BDFD8046FFF7BA
:101460009BFF04460CB90020A9E7286928620020E8
:10147000286120783A2803D06E48046000209EE757
:10148000601CFFF789FF81464946284600F067F84F
:101490008046FFF781FF04460CB900208FE700BFAC
:1014A00020782C28CAD020787D2801D1601C86E7BE
:1014B00060480460002082E72DE9F04705460C46AD
:1014C00020785B2804D05B4804600020BDE8F087EA
:1014D0000520E860601CFFF75FFF044620785D2868
:1014E00001D1601CF2E7FFF7C6FA0646A860A868BB
:1014F00008B90020EAE72046FFF74EFF8046414644
:10150000304600F02CF80746FFF746FF04460CB9BA
:101510000020DBE717E0FFF7AEFA070000D1D5E7C0
:1015200037607E603E46601CFFF736FF81464946C5
:10153000304600F014F88046FFF72EFF04460CB941
:101540000020C3E700BF20782C28E4D020785D2855
:1015500001D1601CBAE7374804600020B6E770B5D7
:1015600005460C460CB9002070BD042232A120466D
:1015700001F0A4FE18B90220E860201DF4E705225E
:101580002FA1204601F09AFE18B90020E860601DE6
:10159000EAE704222CA1204601F090FE20B90120A8
:1015A000E8606861201DDFE72078222804D1214609
:1015B0002846FFF710FDD7E720782D2805D02078A2
:1015C000302807DB2078392804DC21462846FFF73D
:1015D00088FAC9E720785B2804D121462846FFF71E
:1015E0006BFFC1E720787B2804D121462846FFF70E
:1015F000DCFEB9E70F4804600020B5E72DE9F047AD
:1016000080460D4616460024FFF735FA07460020AF
:1016100008490860E7B9BDE8F087000090000020A5
:1016200022220000225C080C0A0D090075253034C6
:10163000780000008C0000206E756C6C00000000CB
:1016400066616C73650000007472756500000000CF
:101650004046FFF7A1FE814649463846FFF77FFF27
:1016600004462CB93846FFF713FA0020BDE8F0878E
:1016700066B12046FFF790FE0446207830B1384628
:10168000FFF706FAFE4804600020EFE705B12C6082
:101690003846EBE710B50446002211462046FFF716
:1016A000ADFF10BD2DE9FF4F89B0884616461F4695
:1016B00000200890079006904FF0070A002509982F
:1016C000D0F80890002002900190009004E0029869
:1016D000401C0290D9F80090B9F1000FF7D10298A0
:1016E000002835D157B116B108F1040000E00320FD
:1016F00001463846FFF7DBFA069009E016B108F11B
:10170000040100E003210846DE4909688847069085
:10171000069818B900200DB0BDE8F08F069C7B201C
:1017200004F8010B66B10A2004F8010B002503E060
:10173000092004F8010B6D1CA8F10100A842F7DC98
:101740007D2004F8010B002004F8010B0698E2E765
:10175000002F77D0BD680EB1022000E00120824644
:101760000AF101013846FFF7A2FA04460CB900203D
:10177000D1E77B2004F8010B16B10A2004F8010B15
:1017800000202070B8685044B8600998D0F80890DC
:1017900008F1010868E0B6B141463846FFF787FA1C
:1017A00004460CB90020B6E70020039005E00920AC
:1017B00004F8010B0398401C039003984045F6DBA6
:1017C000B8684044B8603946D9F82000FFF7E3FC18
:1017D0003846FFF7A0FAB8600EB1022000E0012001
:1017E000824651463846FFF762FA04460CB900209B
:1017F00091E73A2004F8010B16B1092004F8010B17
:10180000B8685044B8603B4632464146484600F00E
:1018100078FA3846FFF77FFAB8600EB1012000E091
:101820000020D9F8001009B1012100E0002100EBEF
:10183000010A0AF101013846FFF739FA044614B9E2
:10184000002068E734E0D9F8000010B12C2004F83B
:10185000010B16B10A2004F8010B00202070B868B3
:101860005044B860D9F80090B9F1000F93D116B187
:1018700008F1010000E0022001463846FFF717FAA0
:1018800004460CB9002046E74EB1002503E00920CC
:1018900004F8010B6D1CA8F10100A842F7DC7D20C3
:1018A00004F8010B0020207038682844069005E1F8
:1018B000029988007349096888470890089808B910
:1018C000002028E7029988006E4909688847079038
:1018D000079828B96C4908980968884700201AE7D2
:1018E00002988100089801F0C4FC029881000798D2
:1018F00001F0BFFC0998D0F8089008F1010806B182
:10190000C2442EE00021D9F82000FFF744FC0490E7
:10191000079941F82500002332464146484600F029
:10192000F0F929466D1C0590089A42F821000498A8
:1019300098B1059888B1059801F0B0FC83460498E9
:1019400001F0ACFC0BEB0001891C16B108F10200A0
:1019500000E000200844824401E001200190D9F811
:101960000090B9F1000FCDD1019820B950464549FA
:10197000096888470690069808B9012001900198E7
:1019800018B3002514E0079850F8250028B10799EE
:1019900051F825003C4909688847089850F8250007
:1019A00028B1089951F825003749096888476D1C06
:1019B00002988542E7DB344907980968884732492D
:1019C0000898096888470020A5E67B2106980170E1
:1019D0000698441C16B10A2004F8010B0020207060
:1019E000002548E05EB10020039005E0092004F8DE
:1019F000010B0398401C039003984045F6DB0799C0
:101A000051F8250001F04AFC0090079850F8251085
:101A10002046009A01F014FC009804443A2004F88F
:101A2000010B16B1092004F8010B089850F8251095
:101A3000204601F03AFC089951F8250001F02EFCEF
:101A400004440298401EA84202D02C2004F8010B46
:101A500016B10A2004F8010B00202070079951F8F4
:101A60002500094909688847089951F82500064961
:101A7000096888476D1C02988542B3DB024905E07E
:101A80008C00002090000020940000200798096836
:101A90008847F7490898096888474EB1002503E050
:101AA000092004F8010B6D1CA8F10100A842F7DC25
:101AB0007D2004F8010B002004F8010B06982AE6AB
:101AC0002DE9FF4F85B092461E464FF0000B0520D2
:101AD00003900598D0F80880D94600250020029090
:101AE000019003E009F10109D8F80080B8F1000F76
:101AF000F8D1B9F1000F16D12EB103213046FFF70E
:101B0000D6F8834604E00320DA490968884783460B
:101B1000BBF1000F03D0D8A1584601F0C6FB5846D0
:101B200009B0BDE8F08F002E57D0B56801213046CE
:101B3000FFF7BDF804460CB90020F1E75B202070E8
:101B4000B068401CB0600598D0F808802EE033469D
:101B500052460699491C404600F0D3F83046FFF73C
:101B6000DAF8B060D8F80000F0B1BAF1000F01D097
:101B7000022000E0012003900399491C3046FFF742
:101B800096F804460CB90020CAE72C2004F8010B93
:101B9000BAF1000F02D0202004F8010B00202070C1
:101BA000B16803980844B060D8F80080B8F1000F1D
:101BB00002D002980028CAD002213046FFF777F8F9
:101BC00004460CB90020ABE75D2004F8010B0020AF
:101BD0002070306800EB050B91E04FEA8900A549C1
:101BE0000968884707460FB9002099E74FEA89013D
:101BF000384601F03EFB0598D0F8088021E000232C
:101C000052460699491C404600F07BF8049029464C
:101C10006D1C049847F82100049870B1049801F0F5
:101C20003DFB801CBAF1000F01D0012100E0002132
:101C3000014403980844039001E001200290D8F881
:101C40000080B8F1000F02D002980028D7D0029887
:101C500020B988490398096888478346BBF1000F7B
:101C600001D101200290029890B1002508E057F8B8
:101C7000250020B157F825007D49096888476D1C6B
:101C80004D45F4DB38467A4909688847002047E724
:101C90005B208BF800000BF1010400202070002570
:101CA00021E057F8250001F0F9FA019057F82510C6
:101CB0002046019A01F0C4FA01980444A9F10100F8
:101CC000A8420AD02C2004F8010BBAF1000F02D070
:101CD000202004F8010B0020207057F825006449EB
:101CE000096888476D1C4D45DBDB3846604909684B
:101CF00088475D2004F8010B002004F8010B5846CA
:101D00000EE72DE9F04104460F4690461D46002699
:101D100014B90020BDE8F081002D49D0207B0728B0
:101D200045D2DFE800F0101C04282E343C000521C9
:101D30002846FEF7BCFF064626B1AFF204713046D6
:101D400001F0B3FA33E006212846FEF7B0FF06465D
:101D500026B1AFF21471304601F0A7FA27E0052151
:101D60002846FEF7A4FF064626B1AFF2247130469E
:101D700001F09BFA1BE029462046FEF7DCFF0646F1
:101D800015E029462046FFF7FFFA06460FE02B46EE
:101D9000424639462046FFF793FE064607E02B46AB
:101DA000424639462046FFF77DFC064600BF37E035
:101DB000207B072833D2DFE800F00A1004161C222B
:101DC0002A00AFF28C70FEF72AFE064627E0AFF23B
:101DD0009070FEF724FE064621E0AFF29470FEF705
:101DE0001EFE06461BE000212046FEF7A4FF064625
:101DF00015E000212046FFF7C7FA06460FE0002352
:101E0000424639462046FFF75BFE064607E00023C0
:101E1000424639462046FFF745FC064600BF00BF54
:101E2000304677E710B504460023012219462046C4
:101E3000FFF767FF10BD10B5044600231A46194688
:101E40002046FFF75EFF10BDFEB505460C46164660
:101E500020460849096888470090019400200290B4
:101E60006B46324600212846FFF74BFFFEBD0000BF
:101E700094000020900000205B5D000001468A680D
:101E8000002001E0401C1268002AFBD17047024686
:101E9000906801E0491E006808B10029FADC70472B
:101EA00070B505460E46AC6800E024682CB131469A
:101EB000206AFEF78EFD0028F7D1204670BD016034
:101EC0004860704770B50546FEF7D5FD04460CB96D
:101ED000002070BD28222946204601F0B1F90020DB
:101EE0002062E06840F48070E06000206060206064
:101EF0002046EEE770B505460E46AC6806B970BDE3
:101F00000CB9AE6009E000E0246814B12068002834
:101F1000FAD131462046FFF7D2FF00BFEFE770B598
:101F200006460D46144604B970BD206A18B1FE4934
:101F3000206A096888472846FEF771FD206221461D
:101F40003046FFF7D7FF00BFEEE770B506460D46F7
:101F5000144604B970BDA08900F4007028B9206A45
:101F600018B1F149206A096888472562E06840F4A1
:101F70000070E06021463046FFF7BCFF00BFE9E794
:101F800070B505460C462046FFF79CFF06463146D5
:101F90002846FFF7AFFF70BD2DE9F04105460E461C
:101FA00014462046FFF78EFF07463A46314628463C
:101FB000FFF7B5FFBDE8F08110B502460B4691680A
:101FC00001E009685B1E09B1002BFADC09B90020A9
:101FD00010BD486810B1D1E900042060086810B154
:101FE000D1E9004060609068884201D10868906043
:101FF0000020086048600846EAE770B504460D46D0
:1020000029462046FFF7D8FF0646FEF741FD70BD82
:102010002DE9F04105460F460026AC6801E0761C2C
:1020200024682CB13946206AFEF7D3FC0028F6D18B
:102030002CB131462846FFF7BFFFBDE8F0810020F4
:10204000FBE770B504460D4629462046FFF7E0FF42
:102050000646FEF71DFD70BD2DE9F04106460F4610
:102060001446B56801E02D687F1E0DB1002FFADC23
:102070002DB921463046FFF73DFFBDE8F0812560D0
:10208000686860606C60B068A84201D1B46001E02B
:102090006068046000BFF0E72DE9F04106460F4696
:1020A0001446B56801E02D687F1E0DB1002FFADCE3
:1020B0000DB9BDE8F081286820606868606020681C
:1020C00008B120684460B068A84201D1B46001E062
:1020D000606804600020686028602846FEF7D8FC2D
:1020E00000BFE6E72DE9F04105460E4617464FF0E2
:1020F0000008AC6802E008F1010824682CB1314600
:10210000206AFEF766FC0028F5D144B13046FEF7A0
:1021100086FC38623A4641462846FFF7BDFFBDE8D7
:10212000F08110B5FEF7A7FC04460CB10220E06078
:10213000204610BD10B5FEF79EFC04460CB10120F0
:10214000E060204610BD10B5FEF795FC04460CB1CA
:102150000020E060204610BD70B50546FEF78BFC00
:10216000044624B10DB1012000E00020E0602046CB
:1021700070BD70B505460E46FEF77DFC044644B1C1
:102180000320E060C4E906562846314601F0CFF945
:102190006061204670BD70B50546FEF76CFC0446D4
:1021A0002CB10420E0602846FEF739FC206120466F
:1021B00070BD10B5FEF75FFC04460CB10520E06071
:1021C000204610BD10B5FEF756FC04460CB10620A3
:1021D000E060204610BD2DE9F05F81468A4600256B
:1021E000AB46FFF7E6FF0646002410E059F824004E
:1021F00001F08CF90746FFF7BCFF05460CB9B56046
:1022000003E029465846FFF75AFEAB46641C0EB160
:102210005445EBDB3046BDE8F09F2DE9F05F814689
:102220008A460025AB46FFF7C4FF0646002410E0AF
:1022300059F8240001F09AF90746FFF79AFF05467E
:102240000CB9B56003E029465846FFF738FEAB46A7
:10225000641C0EB15445EBDB3046BDE8F09F2DE920
:10226000F047074688460025A946FFF7A2FF064625
:10227000002410E007EBC400D0E900211046FFF76E
:1022800078FF05460CB9B56003E029464846FFF7DC
:1022900016FEA946641C0EB14445EBDB3046BDE892
:1022A000F0872DE9F047074688460025A946FFF745
:1022B00080FF064600240DE057F82400FFF76BFF6F
:1022C00005460CB9B56003E029464846FFF7F7FD1F
:1022D000A946641C0EB14445EEDB3046BDE8F087EC
:1022E0002DE9F047054689464FF0000815B9002052
:1022F000BDE8F087FEF7BFFB04460CB90020F7E706
:10230000E86820F48070E06068696061D5E90601E2
:10231000C4E90601286968B12869FEF780FB2061DD
:10232000206938B9204601E094000020FEF7B0FB98
:102330000020DDE7286A50B1286AFEF770FB2062B2
:10234000206A20B92046FEF7A3FB0020D0E7B9F1B0
:10235000000F01D12046CBE7AF6816E001213846D7
:10236000FFF7BEFF064626B92046FEF791FB002088
:10237000BEE7B8F1000F05D0C8F80060C6F80480C9
:10238000B04601E0A660B0463F68002FE6D1204687
:10239000AEE7014655E00278202A01D1401C50E00A
:1023A0000278092A01D1401C4BE002780D2A01D1A4
:1023B000401C46E002780A2A01D1401C41E0027824
:1023C0002F2A0BD142782F2A08D100E0401C027836
:1023D000002A36D002780A2A33D0F7E702782F2A6B
:1023E0000ED142782A2A0BD100E0401C02782AB193
:1023F00002782A2AF9D142782F2AF6D1801C20E0CF
:102400000278222A19D110F8012B01F8012B0AE0D9
:1024100002785C2A03D110F8012B01F8012B10F887
:10242000012B01F8012B027812B10278222AEFD198
:1024300010F8012B01F8012B03E010F8012B01F833
:10244000012B0278002AA6D10A7070470CB5002033
:10245000019000906C48006840F480306A49086040
:1024600000BF6948006800F4003000900198401CEB
:102470000190009818B90198B0F5A06FF1D16248A9
:10248000006800F4003010B10120009001E000204D
:1024900000900098012843D15C48006840F010008B
:1024A0005A4908600846006820F0030008600846A2
:1024B000006840F002000860534840685249486094
:1024C0000846406848600846406840F480604860BC
:1024D0000846406820F47C1048600846406840F494
:1024E000E81048600846006840F08070086000BF4F
:1024F0004548006800F000700028F9D04248406864
:1025000020F00300404948600846406840F002005F
:10251000486000BF3C48406800F00C000828F9D132
:102520000CBD10B5FFF792FF10BD10B5364800681E
:1025300040F00100344908600846406834490840CA
:102540003149486008460068324908402E49086011
:102550000846006820F4802008600846406820F49F
:10256000FE0048604FF41F008860FFF7DAFF4FF06D
:1025700000602949086010BD10B50021002000222C
:10258000214B5B6803F00C0121B1042906D0082916
:1025900028D107E0214B224C236027E01F4B204C21
:1025A000236023E0184B5B6803F47010164B5B68E4
:1025B00003F48032022303EB904022B9194B4343CA
:1025C000174C23600DE0104B5B6803F4003323B11C
:1025D000144B4343124C236003E0104B4343104C15
:1025E000236003E00D4B0E4C236000BF00BF064B81
:1025F0005B68C3F303130C4CE15C094B1B68CB40D5
:10260000074C236010BD0000001002400020024073
:102610000000FFF8FFFFF6FE08ED00E000127A0070
:102620009800002000093D009C0000203149014332
:10263000314A1160704770B5002100230F22C47821
:1026400004B32D4C246804F4E064C4F5E064210A6A
:10265000C1F10403CA40447804FA03F184781440B9
:1026600021430901254C0678A155047804F01F0583
:102670000124AC4005786D11AD0005F1E025C5F8E9
:10268000004109E0047804F01F050124AC401C4D12
:102690000678761145F8264070BD1A4A0A40024372
:1026A000154B1B1F1A60704739B1134A121D12686F
:1026B0000243114B1B1D1A6006E00F4A121D1268DF
:1026C00082430D4B1B1D1A607047042808D14FF040
:1026D000E021096941F004014FF0E022116107E0B7
:1026E0004FF0E021096921F004014FF0E02211616F
:1026F000704700000000FA050CED00E000E400E087
:1027000080E100E080FFFF1FDF48006840F001002B
:10271000DD49086008464068DC490840DA494860FD
:1027200008460068DA490840D7490860084600684A
:1027300020F4802008600846406820F4FE004860CD
:102740004FF41F0088607047CF49096821F4803139
:10275000CD4A11601146096821F480211160B0F55D
:10276000803F03D0B0F5802F0ED106E0C64909683E
:1027700041F48031C44A116007E0C349096841F45B
:10278000A021C14A116000E000BF00BF704710B532
:1027900001460022002300204A11012A02D1BA4C2E
:1027A000236806E0022A02D1B74C236A01E0B64C46
:1027B000636A01F01F02012494401C400CB1012007
:1027C00000E0002010BD38B5002000900024002556
:1027D00000BF3120FFF7DBFF05460098401C00904A
:1027E0000098B0F5A06F01D0002DF2D03120FFF796
:1027F000CEFF08B1012400E00024204638BD014688
:102800000020A14A106820F0F80040EAC1001060E2
:102810007047A04908607047024600209A4B5868EC
:1028200020F47C1042EA01031843974B586070472C
:1028300098490866704701460020934A506820F086
:1028400003000843506070478F48406800F00C0058
:102850007047014600208C4A506820F0F000084381
:102860005060704701460020874A506820F4E060BD
:1028700008435060704701460020834A506820F4A6
:10288000605040EAC1005060704729B17E4A527AD8
:1028900002437D4B5A7204E07B4A527A82437A4B60
:1028A0005A7270477B49D831086070470146002052
:1028B000754A506820F4404008435060704700213A
:1028C000714A20321170704A82F82010012802D01B
:1028D00004280AD104E001216B4A2032117005E07E
:1028E0000521694A2032117000E000BF00BF704727
:1028F0006949086070476449096A0143624A116284
:102900007047654944390860704730B5002100229E
:10291000002400235C4D6D6805F00C0121B10429F1
:1029200005D0082923D105E05C4D056022E05B4D10
:1029300005601FE0544D6D6805F47012524D6D68CE
:1029400005F48034022505EB92421CB9544D5543E1
:1029500005600BE04C4D6D6805F400351DB1504D20
:102960005543056002E04D4D5543056002E04B4D77
:10297000056000BF00BF444D6D6805F0F001090916
:10298000484D6B5C0568DD4045603F4D6D6805F462
:10299000E061090A434D6B5C4568DD4085603A4D56
:1029A0006D6805F46051C90A3E4D6B5C4568DD40B9
:1029B000C560354D6D6805F44041890B3A4D6B5C3F
:1029C000C568B5FBF3F5056130BD29B12E4A5269E2
:1029D00002432D4B5A6104E02B4A526982432A4B31
:1029E0005A61704729B1284A92690243264B9A617D
:1029F00004E0254A92698243234B9A61704729B1CA
:102A0000214AD2690243204BDA6104E01E4AD269AE
:102A100082431D4BDA61704729B11B4AD2680243D9
:102A2000194BDA6004E0184AD2688243164BDA6028
:102A3000704729B1144A12690243134B1A6104E02A
:102A4000114A12698243104B1A617047124940398A
:102A5000086070470F49C86470470B49C8717047D8
:102A60000948406A40F08070074948627047014653
:102A70000020054A92680A400AB1012000E00020C7
:102A80007047014988727047001002400000FFF84B
:102A9000FFFFF6FE000042428004424200127A002C
:102AA00000093D00AC000020BC00002010B5044629
:102AB000FB48844209D101218803FFF7ADFF0021C3
:102AC0004FF48040FFF7A8FF32E0F648844209D176
:102AD00001214804FFF7ADFF00214FF40030FFF75C
:102AE000A8FF25E0F048844209D101218804FFF7BE
:102AF000A0FF00214FF48020FFF79BFF18E0EB4878
:102B0000844209D10121C804FFF793FF00214FF44B
:102B10000020FFF78EFF0BE0E548844208D1012139
:102B20000805FFF786FF00214FF48010FFF781FFB3
:102B300010BD2DE9F04786B005460E460024A2469A
:102B400000BFA1460027B08900B100BF2F462C8AE4
:102B50004CF6FF700440F08804432C82AC894EF69A
:102B6000F3100440B0883189084371890843044355
:102B7000AC81AC8A4FF6FF400440B0890443AC827C
:102B800001A8FFF7C2FEC648874202D1DDF810A0B7
:102B900001E0DDF80CA0A88900F4004040B10AEB88
:102BA000CA0000EB0A1031684900B0FBF1F807E0F9
:102BB0000AEBCA0000EB0A1031688900B0FBF1F89B
:102BC0006420B8FBF0F004012009642101FB1089A6
:102BD000A88900F4004040B1322000EBC900B0FBEE
:102BE000F1F000F00700044308E0322000EB091088
:102BF0006421B0FBF1F000F00F0004432C8106B01B
:102C0000BDE8F0874FF41651016000218180C1803A
:102C100001810C21418100218181704710B502465C
:102C20000020108A4FF2FF0318400B884C88234382
:102C30008C882343CC8823431843108210BD002185
:102C4000018041808180C180704721B1828942F436
:102C50000052828104E082894DF6FF731A4082811E
:102C60007047F0B50346002400260025002040F6FA
:102C70006A17B94200D100BF1846C1F3421401F0EF
:102C80001F06012707FA06F5012C01D10C3004E0DC
:102C9000022C01D1103000E014301AB107682F4324
:102CA000076002E00768AF430760F0BD1AB1838A8E
:102CB0000B43838202E0838A8B4383827047028ABC
:102CC0004FF6F0731A400282028A0A43028270476A
:102CD00082894FF2FF731A40828182890A4382817E
:102CE000704721B1828942F00202828104E0828928
:102CF0004FF6FD731A4082817047028A4FF6DF73E8
:102D00001A400282028A0A430282704721B1028A73
:102D100042F48042028204E0028A4BF6FF731A40BA
:102D200002827047C1F3080282807047014688889A
:102D3000C0F308007047818941F00101818170472B
:102D4000028BD2B20283028B42EA012202837047D5
:102D5000028B02F47F420283028B0A430283704794
:102D600021B1828A42F02002828204E0828A4FF6F8
:102D7000DF731A408282704721B1828A42F01002CA
:102D8000828204E0828A4FF6EF731A408282704793
:102D900021B1828A42F00802828204E0828A4FF6E0
:102DA000F7731A408282704721B1828942F400424F
:102DB000828103E08289C2F30E028281704721B1D1
:102DC000828A42F40062828204E0828A4FF2FF73B8
:102DD0001A4082827047828A4FF6FB731A408282C1
:102DE000828A0A438282704721B1828A42F00202BB
:102DF000828204E0828A4FF6FD731A408282704715
:102E000002460020B1F5007F00D100BF13880B40BF
:102E10000BB1012000E00020704701F40072B2F510
:102E2000007F00D100BFCA430280704770B50246E0
:102E3000002400230025002040F66A16B14200D18C
:102E400000BFC1F3421501F01F03012606FA03F388
:102E5000012D02D19689334006E0022D02D1168A57
:102E6000334001E0968A33400C12012606FA04F43E
:102E70001688344013B10CB1012000E0002070BD71
:102E800010B50022002340F66A14A14200D100BF11
:102E90000A1201249440A3B2DC43048010BD000058
:102EA000003801400044004000480040004C004011
:102EB0000050004010B50446CC48844208D101219E
:102EC0000420FFF7A9FD00210420FFF7A5FD46E03F
:102ED000C748844208D101210820FFF79DFD002149
:102EE0000820FFF799FD3AE0C248844208D1012149
:102EF0001020FFF791FD00211020FFF78DFD2EE03F
:102F0000BD48844208D101212020FFF785FD002122
:102F10002020FFF781FD22E0B848844208D101213A
:102F20004020FFF779FD00214020FFF775FD16E0F6
:102F3000B348844208D101218020FFF76DFD0021B4
:102F40008020FFF769FD0AE0AE48844207D10121E5
:102F50008015FFF761FD0021A015FFF75DFD10BD95
:102F600010B501210846FFF757FD00210120FFF7AA
:102F700053FD10BD2DE9F04102460025002600203A
:102F800000230024002791F803C00CF00F0591F8EE
:102F900003C00CF0100CBCF1000F03D091F802C07C
:102FA0004CEA050591F800C0BCF1000F31D014685F
:102FB00000202BE04FF0010C0CFA00F3B1F800C038
:102FC0000CEA03069E4220D183004FF00F0C0CFA4E
:102FD00003F7BC4305FA03FC4CEA040491F803C070
:102FE000BCF1280F06D14FF0010C0CFA00FCC2F81E
:102FF00014C00AE091F803C0BCF1480F05D14FF0AE
:10300000010C0CFA00FCC2F810C0401C0828D1D3F7
:103010001460B1F800C0BCF1FF0F34DD546800202B
:103020002EE000F1080C4FF0010808FA0CF3B1F89B
:1030300000C00CEA03069E4221D183004FF00F0C22
:103040000CFA03F7BC4305FA03FC4CEA040491F8BC
:1030500003C0BCF1280F05D100F1080C08FA0CF8E8
:10306000C2F8148091F803C0BCF1480F07D100F1F9
:10307000080C4FF0010808FA0CF8C2F81080401C48
:103080000828CED35460BDE8F0814FF6FF7101806F
:10309000022181700421C1707047024600209368AC
:1030A0000B400BB1012000E000207047014688680A
:1030B00080B2704702460020D3680B400BB101205C
:1030C00000E0002070470146C86880B27047016187
:1030D0007047416170470AB1016100E0416170478A
:1030E000C16070474FF480320A438261816182611E
:1030F00082698269704702460020434B18684FF688
:103100008073184040EA021008433F4B1860704734
:103110003E49C8617047F0B50A46002300240021EB
:10312000002500F00046B6F1004F02D1364EF1699D
:1031300001E0354E7168C0F3034583B200F44016D8
:10314000B6F5401F08D121F070612F4E766826F049
:1031500070662D4F7E6012E000F48016B6F5801F79
:1031600006D1032606FA05F4A14341F0706106E09A
:10317000460D360103FA06F6B14341F0706122B103
:10318000460D360103FA06F6314300F00046B6F16B
:10319000004F02D11C4EF16101E01B4E7160F0BD89
:1031A00030B500228B071C0F0F2303FA04F2164BD5
:1031B00008338C1053F824309343134C08348D108B
:1031C00044F8253023468C1053F824308C07240F04
:1031D00000FA04F423430C4C08348D1044F82530D5
:1031E00030BD0A49DC31086070470000000801402A
:1031F000000C014000100140001401400018014083
:10320000001C01400020014000000140000020425D
:103210000648804706480047FEE7FEE7FEE7FEE770
:10322000FEE7FEE7FEE7FEE7FEE7FEE72B250008E8
:1032300031010008A0F14101192900D82030704760
:1032400040EA01039B0703D009E008C9121F08C028
:10325000042AFAD203E011F8013B00F8013B521EA8
:10326000F9D27047D2B201E000F8012B491EFBD21F
:1032700070470022F6E710B513460A460446194681
:10328000FFF7F0FF204610BDCAB2401E10F8011F24
:103290008A4202D00029F9D100207047421C10F860
:1032A000011B0029FBD1801A7047034611F8012B3E
:1032B00000F8012B002AF9D11846704730B50546B1
:1032C0000020034600E05B1C934205D2EC5CC85C26
:1032D000201A01D1002CF6D130BD2DE9FE4F8046D9
:1032E00081EA0300C00F0C46009021F0004123F05A
:1032F0000045B8EB0200A94105D240462146904660
:103300001C460B46024623F00040104347D0270DD1
:10331000C7F30A00C3F30A510290401A01904028F3
:103320006BDAC3F3130040F4801B0098924620B17F
:103330000023D2EB030A63EB0B0B01985946C0F153
:103340004002504600F09DF906460D46504659464B
:10335000019A00F0B5F910EB08006141002487EAFA
:10336000115284EAE7731A4340D0009A62B3019A7B
:10337000012A4FEA075215DC001B61EB02014FF0F6
:10338000004202EA0752CDE90042001C41F58011DB
:1033900032462B4600F0B5F903B0BDE8F08F404649
:1033A0002146F9E7001B61EB0201001C41F5801387
:1033B00000185B412018A2F5001747EB030140EA13
:1033C000D570B6196D4111E06D084FEA360645EA31
:1033D000C0754FEA0752001B61EB0201001C41F56A
:1033E000801149084FEA30000019514132462B46FE
:1033F00003B0BDE8F04F00F075B90098012240001D
:103400000023D0EB020263EBE073009821464FEA01
:10341000E074B8EB000061EB0401E9E783F00043DE
:103420005BE781F0004158E72DE9FE4F81EA030494
:1034300004F0004421F0004100944FF0000B23F011
:10344000004350EA01045ED052EA03045BD0C3F3A8
:103450000A54C1F30A552C44A4F2F3340194A0FB9E
:103460000254C1F3130141F48011C3F3130343F475
:10347000801301FB024400FB034E840A970A44EACE
:10348000815447EA8357A4FB076802958D0A05FB20
:1034900007854FEA932C04FB0C542705029D4FEA45
:1034A000065847EA1637B5EB08056EEB070C870E92
:1034B000920E47EA811742EA8312A7FB0201B6EB9C
:1034C0000B0164EB00042B0D43EA0C335E1844EB54
:1034D0001C50DA465146E7FB0201C5F313044FEADC
:1034E0000B3343EA14534FEA0432019C43EA0603C8
:1034F000A4F10C040294009CCDE900B400F001F9A1
:1035000003B0BDE8F08F00200146F9E70EB5C10F0A
:1035100080EAE0700844CA07002140F233438DE896
:103520000E000A460B4600F0ECF803B000BD70B583
:10353000C1F30A5201F000450024C1F3130140F227
:10354000FF3341F480119A4201DA002070BD40F24D
:1035500033439A42A2F2334203DC524200F0A0F815
:1035600000E090402C43F1D0404270BD00F000429A
:1035700030F000400AD0C10D01F56071C0F31600B3
:1035800042EA0151C208400711437047002001463A
:103590007047000030B5041E71F1000404DB4FF0E9
:1035A0000044404264EB0101141E73F1000405DB8A
:1035B0001C464FF00043524263EB04038B4208BFAA
:1035C000824230BD30B5041E71F1000404DB4FF0BF
:1035D0000044404264EB0101141E73F1000405DB5A
:1035E0001C464FF00043524263EB0403994208BF6C
:1035F000904230BD30B50B46014600202022012408
:1036000009E021FA02F59D4205D303FA02F5491BB0
:1036100004FA02F52844151EA2F10102F1DC30BDC6
:103620002DE9F05F0546002092469B4688460646F7
:10363000814640241BE0284641464746224600F08A
:103640002FF853465A46C01A914110D311461846D6
:10365000224600F016F82D1A67EB01084F46224665
:103660000120002100F00DF817EB00094E41201E4B
:10367000A4F10104DFDC484631462A464346BDE852
:10368000F09F202A04DB203A00FA02F10020704764
:103690009140C2F1200320FA03F319439040704790
:1036A000202A04DB203A21FA02F00021704721FA97
:1036B00002F3D040C2F120029140084319467047FE
:1036C000202A06DBCB17203A41FA02F043EAE073E6
:1036D00006E041FA02F3D040C2F1200291400843D3
:1036E0001946704710B5141E73F1000408DA401C27
:1036F00041F1000192185B411A4301D120F0010011
:1037000010BD2DE9F04D92469B4611B1B1FA81F200
:1037100002E0B0FA80F220329046FFF7B2FF044692
:103720000F4640EA0A0041EA0B0153465A46084355
:1037300013D0114653EA010019D0C8F14002504697
:10374000FFF7AEFF05460E46504659464246FFF784
:1037500098FF084305D0012004E020463946BDE823
:10376000F08D0020054346EAE0762C4337430A9863
:103770006305E40AA0EB08000022FD0A44EA47546E
:103780000A3002D500200146E9E701051019694118
:10379000DDE9084500196941BDE8F04DA2E72DE9D2
:1037A000F04D81EA030404F0004B21F0004514467B
:1037B0004FF0000A23F0004150EA050220D054EAFD
:1037C00001021DD0C5F30A570246C5F31303C1F326
:1037D0001300C1F30A5640F4801543F48013A7EB9D
:1037E0000608101BD64608F2FD3873EB050002D31D
:1037F00008F1010801E092185B41B8F1000F03DA0B
:1038000000200146BDE8F08D00204FF480110646EF
:1038100084460EE0171B73EB050705D3121B63EB01
:10382000050306434CEA010C49084FEA30009218A0
:103830005B4150EA0107EDD152EA030012D082EA5F
:10384000040083EA0501084305D0101BAB4106D2F2
:103850000122002306E000224FF0004302E06FF057
:10386000010253101AEB06004CEB085110EB0A0052
:1038700041EB0B01BDE8F04DFFF734BF70B521F00F
:10388000004303430CD0C1F30A550024D5EB0405D3
:1038900064EB0403D617AD1AB34102DB00200146E6
:1038A00070BD201841EB025170BDC1F30A52C1F343
:1038B000130140F2FF3341F480119A4202DA0020F2
:1038C0000146704740F233439A42A2F2334202DC8F
:1038D0005242FFF7E5BEFFF7D4BE0000064C074D8D
:1038E00006E0E06840F0010394E8070098471034D0
:1038F000AC42F6D3FCF720FC005000082050000832
:103900002DE9F04D00231A461B1A8A4103DB0020E3
:103910000146BDE8F08DC1F30A52C1F3130141F431
:1039200080154FF0000BD10702D100186D41521ED7
:103930000027044640F2FF11384601EB620A3E467A
:103940008046024600204FF48011FFF7A9FEC219FD
:103950007141BB1846EB0100B4EB030C75EB000C96
:1039600004D3E41A65EB000517460E46241908F146
:1039700001006D4180463428E3DDF91946EB06006D
:10398000091BA84103D24FF0FF32134601E0002289
:1039900013461BEB070046EB0A51BDE8F04DFFF75D
:1039A000A1BE00000FB4054B10B503A9044A02984C
:1039B00000F06EF910BC5DF814FB0000DB05000898
:1039C000C00000200FB4084B10B504A902AA039848
:1039D00000F05EF9044602A9002000F0F0FC204649
:1039E00010BC5DF814FB0000BF430008490050EA1A
:1039F000C12018BF04204A0D18BF40F0010040F25A
:103A0000FF72B2EB515F08BF40F00200012808BF0F
:103A1000052070472DE9F0414F1E00EBC701044619
:103A2000D1E9000115461E4637F006020DD02A46A0
:103A30003346FFF7F9FC7F1E04EBC703D3E90023ED
:103A4000FFF74BFC37F00602F1D1022F25D0042FEF
:103A500013D0062F18BFBDE8F0812A463346FFF782
:103A6000E3FCD4E90A23FFF738FC2A463346FFF784
:103A7000DBFCD4E90823FFF730FC2A463346FFF786
:103A8000D3FCD4E90623FFF728FC2A463346FFF788
:103A9000CBFCD4E90423FFF720FC2A463346FFF78A
:103AA000C3FCD4E90223FFF718FC2A463346FFF78C
:103AB000BBFCD4E90023BDE8F041FFF70EBC0000D9
:103AC0000022134610460149FFF769BE0000F03F8F
:103AD000FFF703BC0022134610461146FFF75FBEF6
:103AE00040F2013200204FF0E041FFF7C7BE000076
:103AF000024A00201107FFF7C1BE000001FDFFFFD1
:103B000002E008C8121F08C1002AFAD170477047A6
:103B1000002001E001C1121F002AFBD17047000004
:103B20000149086070470000CC0000202DE9FF5FCC
:103B3000DDE90220010DDDF838B0024318D044F66B
:103B40001050A1F2FF3141430D140F98012820D0ED
:103B5000A5EB0B00401C5FEA000A4FF00004474E43
:103B6000DFF81C91A046504616D5CAF1000728E0A0
:103B70000F98012443A2012808D0002100980F9B30
:103B8000C0E90021C0E90243BDE8FF9F6FEA0B01D5
:103B9000F4E7CBF10000DEE7074612E0F80707D0B4
:103BA0002246334640464946FFF73EFC804689465A
:103BB0002246334610461946FFF736FC04460E46A9
:103BC0007F10002FEAD1DDE90201BAF1000F424671
:103BD0004B4602DAFFF728FC01E0FFF7E0FD044660
:103BE0000E460022284BFFF7EDFC03D84FF0FF30C4
:103BF000014607E00022254B20463146FFF76DFBCA
:103C0000FFF753FE102409E0002C0ADB0A220023F0
:103C1000FFF706FD019B30321A55641E50EA01027F
:103C2000F2D1641C019AC4F1110314440F9A012AC1
:103C300003D0012208430DD10AE0084304D000203C
:103C40004FF0110B0F9080E7A3EB0B056D1E0DE0FD
:103C50005B4504DD4FF0000205F1010504E003DAE5
:103C60004FF00002A5F10105002AECD000980F9951
:103C7000C0E90231C0E9004586E7000000002440A9
:103C80000000F03F300000000000F0430000E03F83
:103C90002DE9FF4F95B09B468946064600250FE269
:103CA000252877D100242746F84A0121059400E011
:103CB000044316F8013F203B01FA03F01042F7D10C
:103CC00030782A2811D06FF02F033078A0F130021D
:103CD000092A16D8059A44F0020402EB820203EB8B
:103CE00042021044761C0590EFE759F8042B059228
:103CF000002A03DA504244F40054059044F00204D0
:103D0000761C30782E2816D116F8010F44F00404E2
:103D10002A280DD06FF02F023078A0F13003092B44
:103D200009D807EB870302EB4303C718761CF3E7B8
:103D300059F8047B761C30786C280FD006DC4C28B0
:103D400017D068280DD06A2814D104E0742810D048
:103D50007A280FD10DE044F400140AE044F48014F2
:103D600001E044F440147278824202D104F58014D8
:103D7000761C761C307866280BD013DC582877D058
:103D800009DC002875D04528F6D04628F4D047280D
:103D90001AD19DE118E0632835D0642879D06528D0
:103DA00012D195E1702873D008DC6728F1D069281A
:103DB0006FD06E280DD06F2806D1B5E073282CD0B7
:103DC000752875D0782874D05A46179990476D1C7D
:103DD00075E1C4F30250022809D003280DD0D9F8A8
:103DE000001004280DD00D6009F1040967E1D9F82D
:103DF0000010EA17C1E90052F6E7D9F800100D806B
:103E0000F2E70D70F0E719F8041B8DF800100020A0
:103E10008DF80100EA46012003E059F804AB4FF0A9
:103E2000FF3061074FF0000102D40DE008F10101FD
:103E30008846B9420FDA8045F8DB1AF808100029E5
:103E4000F4D108E008F1010188468142FADB1AF852
:103E500008100029F6D105985B46A0EB080721461B
:103E60003846179A00F094FA284400EB080507E05A
:103E70004DE029E10DE01AF8010B5A4617999047D9
:103E8000B8F10108F7D25B4621463846179A13E18C
:103E900042E00A220092C4F302524FF0000A022AC2
:103EA00008D059F804CB032A4FEAEC710AD00DE090
:103EB00029E02AE009F1070121F00702F2E802C136
:103EC000914609E00FFA8CFC4FEAEC71042A03D109
:103ED0004FFA8CFC4FEAEC71002907DA0A46002100
:103EE000DCF1000C61EB02012D2202E0220504D579
:103EF0002B228DF80420012203E0E20701D02022CA
:103F0000F7E7904659E00A2102E010220DE0102167
:103F10004FF0000A00910BE010224FF0000A44F02D
:103F200004040827009203E008224FF0000A0092E0
:103F3000C4F30252022A05D059F804CB0021032A07
:103F400008D009E009F1070121F00702F2E802C1F7
:103F5000914605E01FFA8CFC042A01D10CF0FF0CFD
:103F60004FF00008220728D5702806D0009B83F068
:103F7000100353EA0A0305D00EE040228DF8042016
:103F8000012208E05CEA010206D030228DF804200C
:103F90008DF8050002229046009B83F0080353EA47
:103FA0000A030AD15CEA010201D1620705D5302279
:103FB0008DF804204FF001087F1E582804D034A04B
:103FC00003900EA802900DE036A0F9E75346604634
:103FD000009AFFF725FB84460398825C0298401EF6
:103FE000029002705CEA0100F0D1029806A9081A5A
:103FF00000F1200A600702D524F4803400E0012794
:10400000574502DDA7EB0A0000E0002000EB0A01A3
:10401000009005984144401A0590E00306D45B46A1
:104020002146179A059800F0B3F90544002706E0E9
:1040300001A85A46C05D179990476D1C7F1C4745E3
:10404000F6DBE0030CD55B462146179A059800F095
:104050009FF9054404E030205A46179990476D1C9B
:104060000099481E00900029F5DC08E002980299AA
:104070005A460078491C0291179990476D1CBAF175
:104080000001AAF1010AF1DC65E100000928010044
:1040900030313233343536373839616263646566BE
:1040A0000000000030313233343536373839414280
:1040B000434445460000000000F058F90544761CD2
:1040C000307800287FF4ECAD19B02846BDE8F08FB9
:1040D000620700D4062709F1070222F0070CFCE86A
:1040E0000223E14603F000485FEA080C02D00FF219
:1040F000702C0DE05FEA045C02D50FF2682C07E03B
:104100005FEAC47C02D00FF2602C01E0AFF2700CC9
:104110004FF0FF3823F00043CDF850C065280CD095
:1041200006DC452809D046281DD047283DD13DE072
:10413000662818D067287ED138E00021112F01DBD6
:10414000112000E0781CCDE9000106A90EA8FFF7B8
:10415000EDFCDDE90F010E9A03910021009207F1B9
:10416000010A04914DE04FF000400097CDE90110A5
:1041700006A90EA8FFF7DAFCDDE90F0203920E9BF9
:1041800011990022DDF80CA00093049211B9791C5A
:1041900000EB010AB7EB0A0004D4C0F1FF3007F1CD
:1041A000010A0490AAEB0700019044E0012F00DA15
:1041B00001270021112F01DD112000E03846CDE953
:1041C000000106A90EA8FFF7B1FCDDE90F010E9A68
:1041D0000391002104910092BA4621070CD403995F
:1041E000514500DA8A46BAF1010F05DD009AAAF1BD
:1041F0000101515C302908D0B84202DA10F1040FF5
:1042000006DA0121CDE9011015E0AAF10101E9E783
:10421000002805DC049901440491AAEB000102E0A6
:10422000411C514500DD8A460499401A401C01900A
:104230004FF000400290200704D40198504501DB64
:10424000CDF8048000208DF84F0002980DF14F0743
:10425000B0F1004F25D02B200E9002984FF00208AD
:1042600000280CDA404202902D200E9007E00A212F
:104270000298FFF7BFF93031029007F8011DB8F13D
:104280000001A8F10108F2DC02980028EFD1791EA4
:104290000E980870307800F0200040F0450007F8D4
:1042A000020D12A8C01B00F107081498007800B195
:1042B000012000EB0A01019801EBE07105984144EF
:1042C000401A401E0590E00306D45B462146179A2B
:1042D000059800F05DF805441498007818B15A4626
:1042E000179990476D1CE00324D55B462146179A29
:1042F000059800F04DF805441CE00498002807DB01
:10430000DDE90301884203DD0098405C179901E074
:10431000179930205A469047049805F10105401C32
:1043200004900198401E019004D12E205A461799FE
:1043300090476D1CBAF10001AAF1010ADDDC05E02D
:1043400017F8010B5A46179990476D1CB8F10001F8
:10435000A8F10108F4DC5B462146179A0598ABE604
:104360002D0000002B000000200000002DE9F0418E
:10437000044600251E461746880404D405E0394645
:104380002020B0476D1C641EF9D52846BDE8F08199
:104390002DE9F041044600251E469046C80301D58C
:1043A000302700E02027880404D505E04146384640
:1043B000B0476D1C641EF9D52846BDE8F0810A6837
:1043C000531C0B60107070472DE9F041C1F30A5285
:1043D000A2F2FF362F4A304B0D460446142E2FDA38
:1043E000002E12DAFEF779FF00221346FFF7EAF8F3
:1043F0004CD2002DA4BF0024254647DA25F000400A
:10440000204318BF254D41D018E0DFF894C02CFAA6
:1044100006F705EA070C5CEA040C08BFBDE8F0816A
:10442000FEF75BFF00221346FFF7CCF82ED2002DDB
:1044300003DA4FF48010F0400544BD43002425E02A
:10444000332EC8BFBDE8F081A6F1140C4FF0FF3742
:1044500027FA0CF73C4208BFBDE8F081FEF7E1FF08
:1044600000221346FFF7AEF810D2002D0DDA142EFD
:1044700008BF6D1C09D0C6F13400012101FA00F01B
:104480002044A04238BF6D1C0446BC432946204648
:10449000BDE8F0819C7500883CE4377E0000F0BFE9
:1044A000FFFF0F0010B5002821D0114B0022001F84
:1044B000196803E0814203D80A4649680029F9D106
:1044C00052B11368841A9C4204D1006818441060E9
:1044D000104602E0506000E0186039B102680B1A23
:1044E000934203D10B681A4402604968416010BDD1
:1044F000C4000020F0B50B30154D20F0070100245A
:10450000144A0FE003688B420BD38B4205D95E1A25
:1045100043184768C3E9006700E04368136002C0BE
:1045200004E0021D10680028ECD12046002802D1CA
:10453000286808B10020F0BD064A07481060074A05
:10454000121A22F00702C0E9002401202860D7E7F0
:10455000C8000020C40000208C030020880B00202D
:104560002DE9F04D16460F4694B01C4621F000414F
:1045700023F00042002814BF4FF0010C4FF0000C54
:104580000CEB470CFE4B0CEB03054FEA630C654547
:104590002BD3350018BF012505EB44051D44F94B0D
:1045A0009D4222D3F84B52EA060C02D09F4205D11D
:1045B00048B914B000201946BDE8F08D002808BFA6
:1045C0004FF0000C01D04FF0010C0CEB470313F53A
:1045D000001F0AD8002E14BF4FF0010C4FF0000C42
:1045E0000CEB440313F5001F07D914B032462346E1
:1045F0003946BDE8F04DFFF76BBADFF890834FF016
:10460000000A002FB8BF424523DAE14B9A42A8BF07
:104610004FF0020A1DDADC4B93421ADCDD4B03EB50
:104620002253142B08DDC3F1340C26FA0CF303FAE1
:104630000CFCB4450DD108E05EB9C3F1140C22FAAC
:104640000CF303FA0CFC944503D103F00103C3F10E
:10465000020A51EA00031BD1002C19DA002F18BFFF
:10466000BAF1020F02D0BAF1010F07D00220FFF712
:1046700057FA14B0BDE8F04DFFF722BA0220FFF759
:104680004FFAFFF71DFA14B081F00041BDE8F08D3C
:10469000330070D1424525D107F1804212F58012D6
:1046A00001BF00280020B84914B008BFBDE8F08D54
:1046B000B548884207DC002CA1BF1846214614B03B
:1046C000BDE8F08D07E0002CBFBF184684F0004124
:1046D00014B0BDE8F08DB0497944D1E9000114B0BF
:1046E000BDE8F08DDFF8A0C262452AD1002C24DAA3
:1046F00039B1414517D1002804BF002002461CD122
:1047000006E040B10220FFF70BFAFFF7E9F90A468D
:10471000394600F0D7BA9D4A394614B0002062F3FA
:104720001E01BDE8F08D08DA14B03B46BDE8F04D3F
:10473000024600206146FFF732B814B03946BDE8A2
:10474000F08D414517DAB4F1804F0CD0A4F100533D
:10475000B3F1FF530FD13B1E0DDB14B01946BDE87A
:10476000F04D00F0D9BB3B4614B00246BDE8F04D19
:104770001946FEF759BE050027F000433AD1E1B1D2
:10478000414537D1002F06DD002CA1BF0020414656
:1047900014B0BDE8F08D002F01DD002C1FDB002FD1
:1047A00016DA002C14DBBAF1010F4FF0000014BF31
:1047B00076497A4914B0BDE8F08DBAF1020F18BFFE
:1047C000002F0CD0BAF1010F09D1002F07DA0BE04E
:1047D000002FB8BF002C0DDABAF1010F04D0002071
:1047E00014B00146BDE8F08D14B000204FF0004138
:1047F000BDE8F08D4FF0010808EBE77CCDF814C060
:104800005CEA0A0C0DD0DFF898C162457EDDDFF866
:1048100094C1654B624512DD8B420ADB002C18DB2C
:1048200023E00120FFF77CF914B0BDE8F04DFFF75D
:1048300051B9554A8A4202DC002C0ADC15E0994243
:1048400002DA002C11DA04E04F4B994219DD002CFA
:104850000BDD0220FFF764F9FFF742F94B4A14B071
:1048600061F31E021146BDE8F08D0220FFF758F9F2
:10487000FFF73EF9444A14B061F31E021146BDE849
:10488000F08D00223946FEF7C9FD07460D466FF050
:104890000102FEF7F3FF4FF05532444BFEF7C1FD26
:1048A0003A462B46FEF7C0FD0022414BFEF7B9FD0C
:1048B00080468B463A462B4610461946FEF7B4FD15
:1048C00042465B46FEF7B0FD88460E904FF0C04270
:1048D000384B38462946FEF7A7FD83460091364AF5
:1048E000344B41460E98FEF79FFD80460191334AB6
:1048F000334B38462946FEF797FD4246019BFEF7AB
:104900008DFD0D4602460B460C9000E011E0584626
:104910000099FEF7E2FC002788465A463846009B7D
:10492000FEF77CFD2B460C9AFEF77BFD024600F05D
:1049300079B90020B1F5801F07DA352228461946DB
:10494000FEF79CFF05466FF0340000EB2150A0F20B
:10495000FF300190C1F3130040F07F6141F04051FE
:10496000029118498842D8BF4FF0000B35DD164937
:104970008142C8BF4FF0010B2FDC4FF0000B25E048
:10498000FFFF1F00FFFF0F000000F03F0000F07F5F
:104990000000404301FCFFFF1C0900000000F0FF85
:1049A0000000E0410000F043FFFFEF3F5555D53FC9
:1049B0000000E03F4715F73FFE822B6544DF5DF8BE
:1049C0000BAE543E8E9803007AB60B000198401C43
:1049D00001900298A0F580100290FF480299784457
:1049E00000EBCB000991D0E9002328460B931292EB
:1049F000FEF714FD00910A9028460B9B129A099924
:104A0000FEF76BFC02460B460020F449FEF7C7FE9A
:104A1000CDE90C010B46024600990A98FEF704FD09
:104A20000690EF4888460027784402990068109065
:104A30004FF0005040EA610000EB8B4000F5002190
:104A400002910B9B129A1098FEF7E8FC2A46099BEC
:104A5000FEF7E7FC3A464346FEF7E6FC0891129063
:104A600038464146029B109AFEF7DEFC009B0A9AEC
:104A7000FEF7D7FC089B129AFEF7D0FCDDE90C2369
:104A8000FEF7D2FC0B91069A129043461046194647
:104A9000FEF7CAFC05460246D2480B460A9106219B
:104AA0007844FEF7B7FF0A9B2A4608910290104609
:104AB0001946FEF7B9FC089B029AFEF7B5FC0546BD
:104AC0000991434638461946069AFEF706FC0B9BA9
:104AD000129AFEF7A9FC2A46099BFEF7FEFBCDE9D8
:104AE00008013A46434610461946FEF79DFC0A91D6
:104AF0000022BD4B0090FEF7F0FBDDE90823FEF736
:104B0000ECFB0D463A46B84B3846FEF787FC0A9B4D
:104B1000009AFEF783FCDDE90823FEF782FCCDE96D
:104B200008013A462B4610464146FEF77DFC0091AF
:104B30000A90DDE908014346069AFEF775FC0690E7
:104B400088462B463A460B991298FEF76DFC434671
:104B5000069AFEF7C2FB80460B4602460D9100996D
:104B60000A98FEF7BAFB00200F460546009B0A9AFA
:104B7000FEF754FC42460D9BFEF753FC88460E9010
:104B80004FF06042994B28463946FEF74DFC0291A2
:104B90000090974A954B41460E98FEF745FC80469B
:104BA0000391944A944B28463946FEF73DFC424611
:104BB000039BFEF792FB914A7A4402EBCB03D3E9C5
:104BC0000023FEF78AFB054607910198FEF79EFC3D
:104BD0000C9003912A46079B02990098FEF77DFBF3
:104BE000874A7A4402EBCB03D3E90023934601932F
:104BF000FEF773FB039B0C9AFEF76FFB00278846BA
:104C00003846039B0C9AFEF709FC5A46019BFEF7B7
:104C100005FC029B009AFEF701FC2A46079BFEF763
:104C200000FC02460020069005986C4DAAF1010395
:104C3000184301D1734D069000200B460490304676
:104C40002146FEF7F1FB82468B4623463046194645
:104C5000049AFEF7E3FB3A464346FEF7E5FB52466D
:104C60005B46FEF73AFB06468A463A4643462146ED
:104C70000498FEF7D9FB04460F4632465346FEF72A
:104C80002CFB614A8B46914221DBABEB020353EADA
:104C9000000210D122463B46FEF7C0FB804603913E
:104CA0005A4A5B4B30465146FEF717FB4246039B80
:104CB000FEF788FC27D20220FEF732FFFEF710FF36
:104CC0000A46294614B062F31E01BDE8F08D514B2F
:104CD0002BF000429A4216D34F4A0BEB020353EAE1
:104CE000000208D122463B46FEF798FB3246534667
:104CF000FEF768FC07D80220FEF712FFFEF7F8FE69
:104D00000A462946DEE72BF000404449444A01EBBD
:104D100020514FF00008824223DA481C4FF48011E2
:104D200021FA00F058443F4AC0F30A517A443E4BFE
:104D3000A1F2FF31CB4020EA0303C0F3130040F49B
:104D4000801CC1F1140012682CFA00F8BBF1000FAE
:104D5000B8BFC8F1000820463946FEF75FFB04469D
:104D60000F4622463B4630465146FEF7B6FA4FF014
:104D7000000B5A462D4B58460391FEF755FB009108
:104D80000A902B4A2B4B58460399FEF74DFB049192
:104D9000029022463B4658460399FEF73FFB3246B7
:104DA0005346FEF73EFB244A244BFEF73DFB049B93
:104DB000029AFEF792FA07468A46009B0A9AFEF785
:104DC0008CFA04460E46009B0A9AFEF727FB3A46E9
:104DD0005346FEF726FB33E08E0500000000F03F4F
:104DE000CC050000FC0400000000084009C7EE3FAD
:104DF000FD033ADCF5015B14E02F3EBED403000056
:104E00009A0300000000F0BF00009040FE822B6576
:104E10004715973C00CC904000346F3F01FCFFFFEA
:104E20000000E03FC8020000FFFF0F00432EE63FF6
:104E3000396CA80C615C20BEEF39FAFE422EE63FC9
:104E40000746224633460F9110461946FEF7ECFA04
:104E5000834602462E488A460B4605217844FEF7D3
:104E6000D9FD5A465346FEF7DFFA22463346FEF78F
:104E7000D8FA82468B463A46204631460F9BFEF7CB
:104E8000D3FA3A460F9BFEF728FA0F460A90002203
:104E90004FF0804350465946FEF7C0FA0391009008
:104EA00052465B4620463146FEF7BEFA039B009A07
:104EB000FEF775FC3B460A9AFEF7B0FA22463346E7
:104EC000FEF7ACFA0022134BFEF7ABFA0E4604468F
:104ED00001EB08510815002810DC424620463146F7
:104EE000FEF7CCFCFEF782FD042808BFFEF700FEAB
:104EF000424620463146FEF7C1FC044606980B4662
:104F000014B022462946BDE8F04DFEF78DBA0000E8
:104F1000700100000000F03F2DE9F04106460F4609
:104F2000FEF7EEFC04000D4618BF0120284320F0D8
:104F30000040C0F17F6000F1E040C00F0ED0301C97
:104F400018BF0120384320F00040C0F17F6000F11D
:104F5000E040C00F04BF0120FEF7E2FD20462946D5
:104F6000BDE8F0810000C0E0F0F8FC0000000000A7
:104F7000000000000000F03F000000000000F83FCB
:104F800000000000000000000000004003B8E23F05
:104F9000000000000000000006D0CF43EBFD4C3EB7
:104FA000033333333333E33FFFAB6FDBB66DDB3FAC
:104FB0004D268F515555D53F01411DA96074D13FF4
:104FC00065DBC9934A86CD3FEF4E454A287ECA3FEE
:104FD0003E5555555555C53F93BDBE166CC166BF70
:104FE0002CDE25AF6A56113FF16BD2C541BDBBBE69
:104FF000D0A4BE726937663E0000000000000000C9
:105000002050000800000020D0000000003B0008F5
:10501000F0500008D0000020B80E0000103B00083F
:105020007B22646174656D6375223A2275706461D8
:105030007461222C22636D64223A7B224964223AF5
:10504000224348303130313030222C22636F646586
:10505000223A22303031227D7D0000000000000025
:105060000000000000000000000000000000000040
:105070000000000000000000000000000000000030
:105080000000000000000000000000000000000020
:105090000000000000000000000000000000000010
:1050A000000000000A0000000000000000000000F6
:1050B000F5440008A544000800A24A0400000000CE
:1050C00000000000010203040607080900000000B8
:1050D000010203040102030406070809020406088A
:1050E00000000000000000000000000000000000C0
:0400000508000131BD
:00000001FF
