:020000040800F2
:1000000060050020E11200084501000847010008D2
:100010006F0100087301000877010008000000006C
:100020000000000000000000000000007B0100084C
:100030007D010008000000007F010008E9020008BF
:10004000FB120008FB120008FB120008FB1200085C
:10005000FB120008FB120008FB120008FB1200084C
:10006000FB120008FB120008FB120008FB1200083C
:10007000FB120008FB120008FB120008FB1200082C
:10008000FB120008FB120008FB120008FB1200081C
:10009000FB120008FB120008FB120008FB1200080C
:1000A000FB120008FB120008FB120008FB120008FC
:1000B000FB120008FB120008FB120008FB120008EC
:1000C000FB120008FB120008FB120008FB120008DC
:1000D000FB12000813040008FB120008FB120008C2
:1000E000FB120008FB120008FB120008FB120008BC
:1000F000FB120008FB120008FB120008FB120008AC
:10010000FB120008FB120008FB120008FB1200089B
:10011000FB120008FB120008FB120008FB1200088B
:10012000FB120008FB120008FB120008FB1200087B
:10013000DFF80CD002F050FE0048004789010008AB
:1001400060050020704711E071B600BFBFF34F8F0C
:100150000B48006800F4E0600A490843001D0849A4
:100160000860BFF34F8F00BF00BFFEE7ECE700BFA2
:10017000FEE700BFFEE700BFFEE77047704770472D
:100180000CED00E00000FA0500F04EF84FF4E1300D
:1001900000F0DEF800F082F900F070F8154801F088
:1001A000C1F8144801F0F1F804221349114802F093
:1001B000DCFC12490F4802F07AFD0E4801F0BBF852
:1001C0000FA002F03BFE0020144908600BE00B4832
:1001D000124A1268815C12A002F030FE0F480068DB
:1001E000401C0E4908600D4800681428EFDB00BF72
:1001F000FEE700006C0000200400002058000020F2
:10020000B6D479616E67BDF8D0D073686131BCD364
:10021000C3DCBAF3B5C4D6B53A0D0A00000000201D
:10022000253032780000000008B54FF4A06000F0DF
:1002300065FA25208DF8000000208DF801008DF86A
:10024000020001208DF80300684600F05CFA08BD4A
:1002500071B600BFBFF34F8F0648006800F4E0603E
:1002600005490843001D03490860BFF34F8F00BFD5
:1002700000BFFEE70CED00E00000FA0570B56FF07E
:10028000040000F08AFA294800684FF47A72B0FB43
:10029000F2F1481EB0F1807F00D31BE0481E4FF002
:1002A000E022506150170F22002807DA13071D0EB5
:1002B0001F4B00F00F04241F1D5503E013071C0EF5
:1002C0001C4B1C5400BF00204FF0E022906107201F
:1002D000106100BF70BD0021174A116000BF1649B0
:1002E00009688142FBD3704713480068401C1249DB
:1002F000086012480068B8B111480068401C1049F5
:100300000860084600680F49096888420CD300203D
:100310000B490860094800680B490860002007493C
:10032000086001200949087070470000280000207B
:1003300018ED00E000E400E01000002014000020B0
:100340001C000020200000201800002024000020B5
:1003500010B586B00446012144F2040000F0AAFB67
:100360004FF40070ADF8140003208DF8160018202B
:100370008DF8170005A9434800F064FE4FF4806033
:10038000ADF8140004208DF8170005A93D4800F0D1
:1003900059FE01940020ADF80800ADF80A00ADF850
:1003A0000C00ADF810000C20ADF80E0001A9364885
:1003B00000F027FC012240F22551334800F0B9FC3F
:1003C0000121314800F0A9FC06B010BD70B504460B
:1003D0000D460BE014F8011B2B4800F00BFD00BF8D
:1003E0008021294800F074FD0028F9D02800A5F1EB
:1003F0000105EFD170BD10B504462146224800F03A
:10040000F9FC00BF8021204800F062FD0028F9D0EF
:1004100010BD10B540F225511B4800F06FFDA8B18A
:10042000194800F0EBFCC4B2184819490968445453
:1004300017480068401C16490860084600688C2868
:1004400001D90020086000201249086010BD70B575
:1004500004460D461048007838B901200E4908704E
:1004600040F22661084800F073FDE1B2064800F052
:10047000C1FC00BF4021044800F02AFD0028F9D04B
:10048000204670BD0008014000380140C80000202F
:10049000140000201C0000202500002008B50121C8
:1004A0007D2000F007FB4FF40050ADF80000102055
:1004B0008DF8030003208DF802006946154800F00E
:1004C000C1FD0420ADF8000010208DF803000320CA
:1004D0008DF802006946104800F0B4FD2020ADF808
:1004E000000048208DF8030003208DF802006946C3
:1004F000094800F0A7FD4FF40070ADF8000014208B
:100500008DF8030003208DF802006946024800F0D0
:1005100099FD08BD00100140000C01400CB5002001
:10052000019000906C48006840F480306A4908608F
:1005300000BF6948006800F4003000900198401C3A
:100540000190009818B90198B0F5A06FF1D16248F8
:10055000006800F4003010B10120009001E000209C
:1005600000900098012843D15C48006840F01000DA
:100570005A4908600846006820F0030008600846F1
:10058000006840F0020008605348406852494860E3
:100590000846406848600846406840F4806048600B
:1005A0000846406820F47C1048600846406840F4E3
:1005B000E81048600846006840F08070086000BF9E
:1005C0004548006800F000700028F9D042484068B3
:1005D00020F00300404948600846406840F00200AF
:1005E000486000BF3C48406800F00C000828F9D182
:1005F0000CBD10B5FFF792FF10BD10B5364800686E
:1006000040F0010034490860084640683449084019
:100610003149486008460068324908402E49086060
:100620000846006820F4802008600846406820F4EE
:10063000FE0048604FF41F008860FFF7DAFF4FF0BC
:1006400000602949086010BD10B50021002000227B
:10065000214B5B6803F00C0121B1042906D0082965
:1006600028D107E0214B224C236027E01F4B204C70
:10067000236023E0184B5B6803F47010164B5B6833
:1006800003F48032022303EB904022B9194B434319
:10069000174C23600DE0104B5B6803F4003323B16B
:1006A000144B4343124C236003E0104B4343104C64
:1006B000236003E00D4B0E4C236000BF00BF064BD0
:1006C0005B68C3F303130C4CE15C094B1B68CB4024
:1006D000074C236010BD00000010024000200240C3
:1006E0000000FFF8FFFFF6FE08ED00E000127A00C0
:1006F0002800002000093D002C0000203149014362
:10070000314A1160704770B5002100230F22C47870
:1007100004B32D4C246804F4E064C4F5E064210AB9
:10072000C1F10403CA40447804FA03F18478144008
:1007300021430901254C0678A155047804F01F05D2
:100740000124AC4005786D11AD0005F1E025C5F838
:10075000004109E0047804F01F050124AC401C4D61
:100760000678761145F8264070BD1A4A0A400243C1
:10077000154B1B1F1A60704739B1134A121D1268BE
:100780000243114B1B1D1A6006E00F4A121D12682E
:1007900082430D4B1B1D1A607047042808D14FF08F
:1007A000E021096941F004014FF0E022116107E006
:1007B0004FF0E021096921F004014FF0E0221161BE
:1007C000704700000000FA050CED00E000E400E0D6
:1007D00080E100E080FFFF1FDF48006840F001007B
:1007E000DD49086008464068DC490840DA4948604D
:1007F00008460068DA490840D7490860084600689A
:1008000020F4802008600846406820F4FE0048601C
:100810004FF41F0088607047CF49096821F4803188
:10082000CD4A11601146096821F480211160B0F5AC
:10083000803F03D0B0F5802F0ED106E0C64909688D
:1008400041F48031C44A116007E0C349096841F4AA
:10085000A021C14A116000E000BF00BF704710B581
:1008600001460022002300204A11012A02D1BA4C7D
:10087000236806E0022A02D1B74C236A01E0B64C95
:10088000636A01F01F02012494401C400CB1012056
:1008900000E0002010BD38B50020009000240025A5
:1008A00000BF3120FFF7DBFF05460098401C009099
:1008B0000098B0F5A06F01D0002DF2D03120FFF7E5
:1008C000CEFF08B1012400E00024204638BD0146D7
:1008D0000020A14A106820F0F80040EAC100106032
:1008E0007047A04908607047024600209A4B58683C
:1008F00020F47C1042EA01031843974B586070477C
:1009000098490866704701460020934A506820F0D5
:1009100003000843506070478F48406800F00C00A7
:100920007047014600208C4A506820F0F0000843D0
:100930005060704701460020874A506820F4E0600C
:1009400008435060704701460020834A506820F4F5
:10095000605040EAC1005060704729B17E4A527A27
:1009600002437D4B5A7204E07B4A527A82437A4BAF
:100970005A7270477B49D8310860704701460020A1
:10098000754A506820F44040084350607047002189
:10099000714A20321170704A82F82010012802D06A
:1009A00004280AD104E001216B4A2032117005E0CD
:1009B0000521694A2032117000E000BF00BF704776
:1009C0006949086070476449096A0143624A1162D3
:1009D0007047654944390860704730B500210022EE
:1009E000002400235C4D6D6805F00C0121B1042941
:1009F00005D0082923D105E05C4D056022E05B4D60
:100A000005601FE0544D6D6805F47012524D6D681D
:100A100005F48034022505EB92421CB9544D554330
:100A200005600BE04C4D6D6805F400351DB1504D6F
:100A30005543056002E04D4D5543056002E04B4DC6
:100A4000056000BF00BF444D6D6805F0F001090965
:100A5000484D6B5C0568DD4045603F4D6D6805F4B1
:100A6000E061090A434D6B5C4568DD4085603A4DA5
:100A70006D6805F46051C90A3E4D6B5C4568DD4008
:100A8000C560354D6D6805F44041890B3A4D6B5C8E
:100A9000C568B5FBF3F5056130BD29B12E4A526931
:100AA00002432D4B5A6104E02B4A526982432A4B80
:100AB0005A61704729B1284A92690243264B9A61CC
:100AC00004E0254A92698243234B9A61704729B119
:100AD000214AD2690243204BDA6104E01E4AD269FE
:100AE00082431D4BDA61704729B11B4AD268024329
:100AF000194BDA6004E0184AD2688243164BDA6078
:100B0000704729B1144A12690243134B1A6104E079
:100B1000114A12698243104B1A61704712494039D9
:100B2000086070470F49C86470470B49C871704727
:100B30000948406A40F080700749486270470146A2
:100B40000020054A92680A400AB1012000E0002016
:100B50007047014988727047001002400000FFF89A
:100B6000FFFFF6FE000042428004424200127A007B
:100B700000093D003C0000204C00002010B5044658
:100B8000FB48844209D101218803FFF7ADFF002112
:100B90004FF48040FFF7A8FF32E0F648844209D1C5
:100BA00001214804FFF7ADFF00214FF40030FFF7AB
:100BB000A8FF25E0F048844209D101218804FFF70D
:100BC000A0FF00214FF48020FFF79BFF18E0EB48C7
:100BD000844209D10121C804FFF793FF00214FF49B
:100BE0000020FFF78EFF0BE0E548844208D1012189
:100BF0000805FFF786FF00214FF48010FFF781FF03
:100C000010BD2DE9F04786B005460E460024A246E9
:100C100000BFA1460027B08900B100BF2F462C8A33
:100C20004CF6FF700440F08804432C82AC894EF6E9
:100C3000F3100440B08831890843718908430443A4
:100C4000AC81AC8A4FF6FF400440B0890443AC82CB
:100C500001A8FFF7C2FEC648874202D1DDF810A006
:100C600001E0DDF80CA0A88900F4004040B10AEBD7
:100C7000CA0000EB0A1031684900B0FBF1F807E048
:100C80000AEBCA0000EB0A1031688900B0FBF1F8EA
:100C90006420B8FBF0F004012009642101FB1089F5
:100CA000A88900F4004040B1322000EBC900B0FB3D
:100CB000F1F000F00700044308E0322000EB0910D7
:100CC0006421B0FBF1F000F00F0004432C8106B06A
:100CD000BDE8F0874FF41651016000218180C1808A
:100CE00001810C21418100218181704710B50246AC
:100CF0000020108A4FF2FF0318400B884C882343D2
:100D00008C882343CC8823431843108210BD0021D4
:100D1000018041808180C180704721B1828942F485
:100D20000052828104E082894DF6FF731A4082816D
:100D30007047F0B50346002400260025002040F649
:100D40006A17B94200D100BF1846C1F3421401F03E
:100D50001F06012707FA06F5012C01D10C3004E02B
:100D6000022C01D1103000E014301AB107682F4373
:100D7000076002E00768AF430760F0BD1AB1838ADD
:100D80000B43838202E0838A8B4383827047028A0B
:100D90004FF6F0731A400282028A0A4302827047B9
:100DA00082894FF2FF731A40828182890A438281CD
:100DB000704721B1828942F00202828104E0828977
:100DC0004FF6FD731A4082817047028A4FF6DF7337
:100DD0001A400282028A0A430282704721B1028AC3
:100DE00042F48042028204E0028A4BF6FF731A400A
:100DF00002827047C1F308028280704701468888EA
:100E0000C0F308007047818941F00101818170477A
:100E1000028BD2B20283028B42EA01220283704724
:100E2000028B02F47F420283028B0A4302837047E3
:100E300021B1828A42F02002828204E0828A4FF647
:100E4000DF731A408282704721B1828A42F0100219
:100E5000828204E0828A4FF6EF731A4082827047E2
:100E600021B1828A42F00802828204E0828A4FF62F
:100E7000F7731A408282704721B1828942F400429E
:100E8000828103E08289C2F30E028281704721B120
:100E9000828A42F40062828204E0828A4FF2FF7307
:100EA0001A4082827047828A4FF6FB731A40828210
:100EB000828A0A438282704721B1828A42F002020A
:100EC000828204E0828A4FF6FD731A408282704764
:100ED00002460020B1F5007F00D100BF13880B400F
:100EE0000BB1012000E00020704701F40072B2F560
:100EF000007F00D100BFCA430280704770B5024630
:100F0000002400230025002040F66A16B14200D1DB
:100F100000BFC1F3421501F01F03012606FA03F3D7
:100F2000012D02D19689334006E0022D02D1168AA6
:100F3000334001E0968A33400C12012606FA04F48D
:100F40001688344013B10CB1012000E0002070BDC0
:100F500010B50022002340F66A14A14200D100BF60
:100F60000A1201249440A3B2DC43048010BD0000A7
:100F7000003801400044004000480040004C004060
:100F80000050004010B50446CC48844208D10121ED
:100F90000420FFF7A9FD00210420FFF7A5FD46E08E
:100FA000C748844208D101210820FFF79DFD002198
:100FB0000820FFF799FD3AE0C248844208D1012198
:100FC0001020FFF791FD00211020FFF78DFD2EE08E
:100FD000BD48844208D101212020FFF785FD002172
:100FE0002020FFF781FD22E0B848844208D101218A
:100FF0004020FFF779FD00214020FFF775FD16E046
:10100000B348844208D101218020FFF76DFD002103
:101010008020FFF769FD0AE0AE48844207D1012134
:101020008015FFF761FD0021A015FFF75DFD10BDE4
:1010300010B501210846FFF757FD00210120FFF7F9
:1010400053FD10BD2DE9F041024600250026002089
:1010500000230024002791F803C00CF00F0591F83D
:1010600003C00CF0100CBCF1000F03D091F802C0CB
:101070004CEA050591F800C0BCF1000F31D01468AE
:1010800000202BE04FF0010C0CFA00F3B1F800C087
:101090000CEA03069E4220D183004FF00F0C0CFA9D
:1010A00003F7BC4305FA03FC4CEA040491F803C0BF
:1010B000BCF1280F06D14FF0010C0CFA00FCC2F86D
:1010C00014C00AE091F803C0BCF1480F05D14FF0FD
:1010D000010C0CFA00FCC2F810C0401C0828D1D347
:1010E0001460B1F800C0BCF1FF0F34DD546800207B
:1010F0002EE000F1080C4FF0010808FA0CF3B1F8EB
:1011000000C00CEA03069E4221D183004FF00F0C71
:101110000CFA03F7BC4305FA03FC4CEA040491F80B
:1011200003C0BCF1280F05D100F1080C08FA0CF837
:10113000C2F8148091F803C0BCF1480F07D100F148
:10114000080C4FF0010808FA0CF8C2F81080401C97
:101150000828CED35460BDE8F0814FF6FF710180BE
:10116000022181700421C1707047024600209368FB
:101170000B400BB1012000E0002070470146886859
:1011800080B2704702460020D3680B400BB10120AB
:1011900000E0002070470146C86880B270470161D6
:1011A0007047416170470AB1016100E041617047D9
:1011B000C16070474FF480320A438261816182616D
:1011C00082698269704702460020434B18684FF6D7
:1011D0008073184040EA021008433F4B1860704784
:1011E0003E49C8617047F0B50A460023002400213B
:1011F000002500F00046B6F1004F02D1364EF169ED
:1012000001E0354E7168C0F3034583B200F4401627
:10121000B6F5401F08D121F070612F4E766826F098
:1012200070662D4F7E6012E000F48016B6F5801FC8
:1012300006D1032606FA05F4A14341F0706106E0E9
:10124000460D360103FA06F6B14341F0706122B152
:10125000460D360103FA06F6314300F00046B6F1BA
:10126000004F02D11C4EF16101E01B4E7160F0BDD8
:1012700030B500228B071C0F0F2303FA04F2164B24
:1012800008338C1053F824309343134C08348D10DA
:1012900044F8253023468C1053F824308C07240F53
:1012A00000FA04F423430C4C08348D1044F8253024
:1012B00030BD0A49DC310860704700000008014079
:1012C000000C0140001001400014014000180140D2
:1012D000001C0140002001400000014000002042AD
:1012E0000648804706480047FEE7FEE7FEE7FEE7C0
:1012F000FEE7FEE7FEE7FEE7FEE7FEE7FB05000888
:101300003101000870B505460C4600BF00BF2CB186
:10131000224600212846024B1B68984770BD0000FA
:101320005000002010B5044600BF00BF5C212046DD
:1013300001F015FD10BD10B5044604B910BD5C21C7
:101340002046FFF7DFFF00BFF8E770B504460D4603
:1013500000BF00BF00BF00BF5C222946204601F04D
:10136000E5FC70BD014600BF00BF0020086048607A
:10137000FE488860FE4ACA60C2430A61FC4AD24302
:101380004A61FC4A8A610020704700B5034618464E
:10139000FFF7E8FF00BD2DE9F04390B084460F460B
:1013A00000BF00BF00BF00BF3878000697F801807B
:1013B00040EA084097F8028040EA082097F8038046
:1013C00040EA080000903879000697F8058040EA66
:1013D000084097F8068040EA082097F8078040EA1E
:1013E00008000190387A000697F8098040EA084022
:1013F00097F80A8040EA082097F80B8040EA080036
:101400000290387B000697F80D8040EA084097F874
:101410000E8040EA082097F80F8040EA0800039009
:10142000387C000697F8118040EA084097F812804F
:1014300040EA082097F8138040EA08000490387DBD
:10144000000697F8158040EA084097F8168040EAB1
:10145000082097F8178040EA08000590387E0006BB
:1014600097F8198040EA084097F81A8040EA082067
:1014700097F81B8040EA08000690387F000697F82E
:101480001D8040EA084097F81E8040EA082097F83F
:101490001F8040EA0800079097F82000000697F8A0
:1014A000218040EA084097F8228040EA082097F817
:1014B000238040EA0800089097F82400000697F877
:1014C000258040EA084097F8268040EA082097F8EF
:1014D000278040EA0800099097F82800000697F84E
:1014E000298040EA084097F82A8040EA082097F8C7
:1014F0002B8040EA08000A9097F82C00000697F825
:101500002D8040EA084097F82E8040EA082097F89E
:101510002F8040EA08000B9097F83000000697F8FB
:10152000318040EA084097F8328040EA082097F876
:10153000338040EA08000C9097F83400000697F8D2
:10154000358040EA084097F8368040EA082097F84E
:10155000378040EA08000D9097F83800000697F8A9
:10156000398040EA084097F83A8040EA082097F826
:101570003B8040EA08000E9097F83C00000697F880
:101580003D8040EA084097F83E8040EA082097F8FE
:101590003F8040EA08000F90DCF80810DCF80C20CF
:1015A000DCF81030DCF81440DCF8185000BF4801BB
:1015B00040EAD16883EA0400104060404044DFF80C
:1015C000B8814044DDF8008040440544900740EA7B
:1015D000920200BF00BF680140EAD56882EA0300BA
:1015E000084058404044DFF890814044DDF80480D2
:1015F00040440444880740EA910100BF00BF6001F5
:1016000040EAD46881EA0200284050404044DFF8B4
:1016100068814044DDF8088040440344A80740EA5C
:10162000950500BF00BF580140EAD36885EA010074
:10163000204048404044DFF840814044DDF80C80C1
:1016400040440244A00740EA940400BF00BF500198
:1016500040EAD26884EA0500184068404044DFF858
:1016600018814044DDF8108040440144980740EA66
:10167000930300BF00BF480140EAD16883EA040039
:10168000104060404044DFF8F0804044DDF81480B2
:1016900040440544900740EA920200BF00BF680141
:1016A00040EAD56882EA0300084058404044DFF829
:1016B000C8804044DDF8188040440444880740EA6C
:1016C000910100BF00BF600140EAD46881EA0200D6
:1016D000284050404044DFF8A0804044DDF81C80A2
:1016E00040440344A80740EA950500BF00BF5801E5
:1016F00040EAD36885EA0100204048404044DFF8D2
:1017000078804044DDF8208040440244A00740EA4D
:10171000940400BF00BF500140EAD26884EA05008B
:10172000184068404044DFF850804044DDF8248091
:1017300040440144980740EA930300BF00BF4801BA
:1017400040EAD16883EA0400104060404044DFF87A
:1017500028804044DDF8288040440544900740EA52
:10176000920200BF00BF680108E000000123456746
:1017700089ABCDEFF0E1D2C39979825A40EAD568BE
:1017800082EA0300084058404044DFF8F88F4044A4
:10179000DDF82C8040440444880740EA910100BFF2
:1017A00000BF600140EAD46881EA0200284050404E
:1017B0004044DFF8D08F4044DDF83080404403449B
:1017C000A80740EA950500BF00BF580140EAD3686A
:1017D00085EA0100204048404044DFF8A88F40449B
:1017E000DDF8348040440244A00740EA940400BF7E
:1017F00000BF500140EAD26884EA05001840684002
:101800004044DFF8808F4044DDF838804044014494
:10181000980740EA930300BF00BF480140EAD1683F
:1018200083EA0400104060404044DFF8588F404491
:10183000DDF83C8040440544900740EA920200BF36
:1018400000BFDDF820800D9880EA0800DDF80880F0
:1018500080EA0800DDF8008080EA0806700040EAAF
:10186000D678680140EAD56982EA0300084058400A
:101870004844DFF8109F484440440444CDF80080B9
:10188000880740EA910100BF00BFDDF824800E9870
:1018900080EA0800DDF80C8080EA0800DDF80480AA
:1018A00080EA0806700040EAD678600140EAD46910
:1018B00081EA0200284050404844DFF8C89E48446E
:1018C00040440344CDF80480A80740EA950500BFD2
:1018D00000BFDDF828800F9880EA0800DDF810804E
:1018E00080EA0800DDF8088080EA0806700040EA17
:1018F000D678580140EAD36985EA01002040484083
:101900004844DFF8809E484440440244CDF80880B3
:10191000A00740EA940400BF00BFDDF82C800098C7
:1019200080EA0800DDF8148080EA0800DDF80C8009
:1019300080EA0806700040EAD678500140EAD26991
:1019400084EA0500184068404844DFF8389E48445F
:1019500040440144CDF80C80980740EA930300BF4F
:1019600000BFDDF83080019880EA0800DDF81880BB
:1019700080EA0800DDF8108080EA0806700040EA7E
:10198000D678480140EAD16982EA030060404844C1
:10199000DFF8F49D484440440544CDF8108090079A
:1019A00040EA920200BF00BFDDF83480029880EA6E
:1019B0000800DDF81C8080EA0800DDF8148080EA69
:1019C0000806700040EAD678680140EAD56981EAE5
:1019D000020058404844DFF8B09D48444044044465
:1019E000CDF81480880740EA910100BF00BFDDF800
:1019F0003880039880EA0800DDF8208080EA08003B
:101A0000DDF8188080EA0806700040EAD6786001A8
:101A100040EAD46985EA010050404844DFF8689DF7
:101A2000484440440344CDF81880A80740EA95058F
:101A300000BF00BFDDF83C80049880EA0800DDF8B4
:101A4000248080EA0800DDF81C8080EA0806700027
:101A500040EAD678580140EAD36984EA0500484054
:101A60004844DFF8249D484440440244CDF81C809B
:101A7000A00740EA940400BF00BFDDF8008005988D
:101A800080EA0800DDF8288080EA0800DDF8208080
:101A900080EA0806700040EAD678500140EAD26930
:101AA00083EA040068404844DFF8DC9C4844404432
:101AB0000144CDF82080980740EA930300BF00BF9F
:101AC000DDF80480069880EA0800DDF82C8080EAC2
:101AD0000800DDF8248080EA0806700040EAD67825
:101AE000480140EAD16982EA030060404844DFF8D7
:101AF000989C484440440544CDF82480900740EA2F
:101B0000920200BF00BFDDF80880079880EA080055
:101B1000DDF8308080EA0800DDF8288080EA0806D9
:101B2000700040EAD678680140EAD56981EA02008F
:101B300058404844DFF8509C484440440444CDF8A1
:101B40002880880740EA910100BF00BFDDF80C80C3
:101B5000089880EA0800DDF8348080EA0800DDF8A3
:101B60002C8080EA0806700040EAD678600140EADE
:101B7000D46985EA010050404844DFF80C9C484491
:101B800040440344CDF82C80A80740EA950500BFE7
:101B900000BFDDF81080099880EA0800DDF8388081
:101BA00080EA0800DDF8308080EA0806700040EA2C
:101BB000D678580140EAD36984EA05004840484491
:101BC000DFF8C49B484440440244CDF83080A0076D
:101BD00040EA940400BF00BFDDF814800A9880EA50
:101BE0000800DDF83C8080EA0800DDF8348080EAF7
:101BF0000806700040EAD678500140EAD26983EACC
:101C0000040068404844DFF8809B48444044014455
:101C1000CDF83480980740EA930300BF00BFDDF899
:101C200018800B9880EA0800DDF8008080EA080040
:101C3000DDF8388080EA0806700040EAD67848016E
:101C400040EAD16982EA030060404844DFF8389BEB
:101C5000484440440544CDF83880900740EA920259
:101C600000BF00BFDDF81C800C9880EA0800DDF89A
:101C7000048080EA0800DDF83C8080EA08067000F5
:101C800040EAD678680140EAD56981EA0200584006
:101C90004844DFF8F49A484440440444CDF83C807A
:101CA000880740EA910100BF00BFDDF820800D9851
:101CB00080EA0800DDF8088080EA0800DDF800808E
:101CC00080EA0806700040EAD678600140EAD469EC
:101CD00085EA010050404844DFF8AC9A484440444B
:101CE0000344CDF80080A80740EA950500BF00BF77
:101CF000DDF824800E9880EA0800DDF80C8080EA88
:101D00000800DDF8048080EA0806700040EAD67812
:101D1000580140EAD36984EA050048404844DFF8A6
:101D2000689A484440440244CDF80480A00740EA41
:101D3000940400BF00BFDDF828800F9880EA0800F7
:101D4000DDF8108080EA0800DDF8088080EA0806E7
:101D5000700040EAD678500140EAD26983EA040074
:101D600068404844DFF8209A484440440144CDF894
:101D70000880980740EA930300BF00BFDDF82C807D
:101D8000009880EA0800DDF8148080EA0800DDF899
:101D90000C8080EA0806700040EAD678480140EAE4
:101DA000D16982EA030060404844DFF8DC99484486
:101DB00040440544CDF80C80900740EA920200BFF1
:101DC00000BFDDF83080019880EA0800DDF8188057
:101DD00080EA0800DDF8108080EA0806700040EA1A
:101DE000D678680140EAD56981EA02005840484443
:101DF000DFF89499484440440444CDF810808807A3
:101E000040EA910100BF00BFDDF83480029880EA0B
:101E10000800DDF81C8080EA0800DDF8148080EA04
:101E20000806700040EAD678600140EAD46985EA85
:101E3000010050404844DFF850994844404403446E
:101E4000CDF81480A80740EA950500BF00BFDDF873
:101E50003880039880EA0800DDF8208080EA0800D6
:101E6000DDF8188080EA0806700040EAD67858014C
:101E700040EAD36984EA050048404844DFF80899FD
:101E8000484440440244CDF81880A00740EA940436
:101E900000BF00BFDDF83C80049880EA0800DDF850
:101EA000248080EA0800DDF81C8080EA08067000C3
:101EB00040EAD678500140EAD26983EA04006840DB
:101EC0004844DFF8C498484440440144CDF81C809D
:101ED000980740EA930300BF00BF480140EAD16978
:101EE00002EA030042EA030808EA040840EA08009C
:101EF0004844DFF898888044DDF80090059880EA2F
:101F00000900DDF8289080EA0900DDF8209080EAD9
:101F10000906700040EAD6700890404405449007D6
:101F200040EA920200BF00BF680140EAD56901EAB9
:101F3000020041EA020808EA030840EA08004844AF
:101F4000DFF848888044DDF80490069880EA0900AC
:101F5000DDF82C9080EA0900DDF8249080EA09067B
:101F6000700040EAD670099040440444880740EA73
:101F7000910100BF00BF600140EAD46905EA010099
:101F800045EA010808EA020840EA08004844DFF888
:101F9000FC878044DDF80890079880EA0900DDF8A6
:101FA000309080EA0900DDF8289080EA0906700088
:101FB00040EAD6700A9040440344A80740EA9505D9
:101FC00000BF00BF580140EAD36904EA050044EAB3
:101FD000050808EA010840EA08004844DFF8AC8731
:101FE0008044DDF80C90089880EA0900DDF8349010
:101FF00080EA0900DDF82C9080EA0906700040EACA
:10200000D6700B9040440244A00740EA940400BFFD
:1020100000BF500140EAD26903EA040043EA040821
:1020200008EA050840EA08004844DFF86087804471
:10203000DDF81090099880EA0900DDF8389080EA10
:102040000900DDF8309080EA0906700040EAD67099
:102050000C9040440144980740EA930300BF00BF3E
:10206000480140EAD16902EA030042EA030808EAAB
:10207000040840EA08004844DFF810878044DDF88F
:1020800014900A9880EA0900DDF83C9080EA090083
:10209000DDF8349080EA0906700040EAD6700D90B1
:1020A00040440544900740EA920200BF00BF680127
:1020B00040EAD56901EA020041EA020808EA030899
:1020C00040EA08004844DFF8C4868044DDF81890F0
:1020D0000B9880EA0900DDF8009080EA0900DDF83D
:1020E000389080EA0906700040EAD6700E904044AD
:1020F0000444880740EA910100BF00BF600140EA44
:10210000D46905EA010045EA010808EA020840EA44
:1021100008004844DFF874868044DDF81C900C9871
:1021200080EA0900DDF8049080EA0900DDF83C90BF
:1021300080EA0906700040EAD6700F9040440344DC
:10214000A80740EA950500BF00BF580140EAD369DF
:1021500004EA050044EA050808EA010840EA080024
:102160004844DFF828868044DDF820900D9880EA06
:102170000900DDF8089080EA0900DDF8009080EAA7
:102180000906700040EAD670009040440244A0075F
:1021900040EA940400BF00BF500140EAD26903EA5C
:1021A000040043EA040808EA050840EA0800484435
:1021B000DFF8D8858044DDF824900E9880EA090085
:1021C000DDF80C9080EA0900DDF8049080EA090649
:1021D000700040EAD670019040440144980740EAFC
:1021E000930300BF00BF480140EAD16902EA03003F
:1021F00042EA030808EA040840EA08004844DFF815
:102200008C858044DDF828900F9880EA0900DDF87D
:10221000109080EA0900DDF8089080EA0906700055
:1022200040EAD670029040440544900740EA92028A
:1022300000BF00BF680140EAD56901EA020041EA37
:10224000020808EA030840EA08004844DFF83C8531
:102250008044DDF82C90009880EA0900DDF81490A5
:1022600080EA0900DDF80C9080EA0906700040EA77
:10227000D670039040440444880740EA910100BFAF
:1022800000BF600140EAD46905EA010045EA01089F
:1022900008EA020840EA08004844DFF8F084804475
:1022A000DDF83090019880EA0900DDF8189080EAA6
:1022B0000900DDF8109080EA0906700040EAD67047
:1022C000049040440344A80740EA950500BF00BFBE
:1022D000580140EAD36904EA050044EA050808EA1F
:1022E000010840EA08004844DFF8A0848044DDF893
:1022F0003490029880EA0900DDF81C9080EA090019
:10230000DDF8149080EA0906700040EAD670059066
:1023100040440244A00740EA940400BF00BF5001BB
:1023200040EAD26903EA040043EA040808EA05081F
:1023300040EA08004844DFF854848044DDF83890CF
:10234000039880EA0900DDF8209080EA0900DDF8B2
:10235000189080EA0906700040EAD6700690404462
:102360000144980740EA930300BF00BF480140EAD8
:10237000D16902EA030042EA030808EA040840EAD5
:1023800008004844DFF804848044DDF83C90049859
:1023900080EA0900DDF8249080EA0900DDF81C904D
:1023A00080EA0906700040EAD67007904044054470
:1023B000900740EA920200BF00BF680140EAD56979
:1023C00001EA020041EA020808EA030840EA0800BC
:1023D0004844DFF8B8838044DDF80090059880EA2F
:1023E0000900DDF8289080EA0900DDF8209080EAF5
:1023F0000906700040EAD6700890404404448807FB
:1024000040EA910100BF00BF600140EAD46905EADB
:10241000010045EA010808EA020840EA08004844C9
:10242000DFF868838044DDF80490069880EA0900AC
:10243000DDF82C9080EA0900DDF8249080EA090696
:10244000700040EAD670099040440344A80740EA6F
:10245000950500BF00BF580140EAD36904EA0500B2
:1024600044EA050808EA010840EA08004844DFF8A1
:102470001C838044DDF80890079880EA0900DDF8A5
:10248000309080EA0900DDF8289080EA09067000A3
:1024900040EAD6700A9040440244A00740EA9404FF
:1024A00000BF00BF500140EAD26903EA040043EADA
:1024B000040808EA050840EA08004844DFF8CC822E
:1024C0008044DDF80C90089880EA0900DDF834902B
:1024D00080EA0900DDF82C9080EA0906700040EAE5
:1024E000D6700B9040440144980740EA930300BF24
:1024F00000BFDDF81080099880EA0800DDF8388018
:1025000080EA0800DDF8308080EA0806700040EAC2
:10251000D678480140EAD16982EA03006040484425
:10252000DFF86C92484440440544CDF83080900771
:1025300040EA920200BF00BFDDF814800A9880EAEA
:102540000800DDF83C8080EA0800DDF8348080EA8D
:102550000806700040EAD678680140EAD56981EA49
:10256000020058404844DFF828924844404404445C
:10257000CDF83480880740EA910100BF00BFDDF844
:1025800018800B9880EA0800DDF8008080EA0800D7
:10259000DDF8388080EA0806700040EAD6786001ED
:1025A00040EAD46985EA010050404844DFF8E091F0
:1025B000484440440344CDF83880A80740EA9505D4
:1025C00000BF00BFDDF81C800C9880EA0800DDF831
:1025D000048080EA0800DDF83C8080EA080670008C
:1025E00040EAD678580140EAD36984EA05004840B9
:1025F0004844DFF89C91484440440244CDF83C8074
:10260000A00740EA940400BF00BFDDF820800D98C9
:1026100080EA0800DDF8088080EA0800DDF8008024
:1026200080EA0806700040EAD678500140EAD26994
:1026300083EA040068404844DFF854914844404429
:102640000144CDF80080980740EA930300BF00BF23
:10265000DDF824800E9880EA0800DDF80C8080EA1E
:102660000800DDF8048080EA0806700040EAD678A9
:10267000480140EAD16982EA030060404844DFF83B
:102680001091484440440544CDF80480900740EA46
:10269000920200BF00BFDDF828800F9880EA080092
:1026A000DDF8108080EA0800DDF8088080EA08067E
:1026B000700040EAD678680140EAD56981EA0200F4
:1026C00058404844DFF8C890484440440444CDF89A
:1026D0000880880740EA910100BF00BFDDF82C8028
:1026E000009880EA0800DDF8148080EA0800DDF830
:1026F0000C8080EA0806700040EAD678600140EA63
:10270000D46985EA010050404844DFF88490484489
:1027100040440344CDF80C80A80740EA950500BF6B
:1027200000BFDDF83080019880EA0800DDF81880ED
:1027300080EA0800DDF8108080EA0806700040EAB0
:10274000D678580140EAD36984EA050048404844F5
:10275000DFF83C90484440440244CDF81080A00784
:1027600040EA940400BF00BFDDF83480029880EA9C
:102770000800DDF81C8080EA0800DDF8148080EA9B
:10278000080607E09979825AA1EBD96EDCBC1B8F51
:10279000D6C162CA700040EAD678500140EAD269D8
:1027A00083EA040068404844DFF87C95484440448C
:1027B0000144CDF81480980740EA930300BF00BF9E
:1027C000DDF83880039880EA0800DDF8208080EA90
:1027D0000800DDF8188080EA0806700040EAD67824
:1027E000480140EAD16982EA030060404844DFF8CA
:1027F0003895484440440544CDF81880900740EA95
:10280000920200BF00BFDDF83C80049880EA080017
:10281000DDF8248080EA0800DDF81C8080EA0806E4
:10282000700040EAD678680140EAD56981EA020082
:1028300058404844DFF8F094484440440444CDF8FC
:102840001C80880740EA910100BF00BFDDF80080CE
:10285000059880EA0800DDF8288080EA0800DDF8A5
:10286000208080EA0806700040EAD678600140EADD
:10287000D46985EA010050404844DFF8AC944844EC
:1028800040440344CDF82080A80740EA950500BFE6
:1028900000BFDDF80480069880EA0800DDF82C808F
:1028A00080EA0800DDF8248080EA0806700040EA2B
:1028B000D678580140EAD36984EA05004840484484
:1028C000DFF86494484440440244CDF82480A007D3
:1028D00040EA940400BF00BFDDF80880079880EA52
:1028E0000800DDF8308080EA0800DDF8288080EA02
:1028F0000806700040EAD678500140EAD26983EABF
:10290000040068404844DFF82094484440440144AF
:10291000CDF82880980740EA930300BF00BFDDF898
:102920000C80089880EA0800DDF8348080EA08000E
:10293000DDF82C8080EA0806700040EAD67848016D
:1029400040EAD16982EA030060404844DFF8D89346
:10295000484440440544CDF82C80900740EA920258
:1029600000BF00BFDDF81080099880EA0800DDF89C
:10297000388080EA0800DDF8308080EA08067000C0
:1029800040EAD678680140EAD56981EA02005840F9
:102990004844DFF89493484440440444CDF83080E0
:1029A000880740EA910100BF00BFDDF814800A9853
:1029B00080EA0800DDF83C8080EA0800DDF8348019
:1029C00080EA0806700040EAD678600140EAD469DF
:1029D00085EA010050404844DFF84C9348444044A5
:1029E0000344CDF83480A80740EA950500BF00BF36
:1029F000DDF818800B9880EA0800DDF8008080EA96
:102A00000800DDF8388080EA0806700040EAD678D1
:102A1000580140EAD36984EA050048404844DFF899
:102A20000893484440440244CDF83880A00740EA67
:102A3000940400BF00BFDDF81C800C9880EA0800F9
:102A4000DDF8048080EA0800DDF83C8080EA0806B2
:102A5000700040EAD678500140EAD26983EA040067
:102A600068404844DFF8C092484440440144CDF8EF
:102A70003C80980740EA930300BFDCF80800084454
:102A8000CCF80800DCF80C0000EB0208CCF80C8055
:102A9000DCF8100000EB0308CCF81080DCF8140020
:102AA00000EB0408CCF81480DCF8180000EB0508F3
:102AB000CCF81880002010B0BDE8F08330B5044693
:102AC0000D4629462046FEF766FC30BD2DE9F0474D
:102AD0000446884615466FF06D0900BF00BF00BF71
:102AE00000BF15B90020BDE8F087207800F03F074F
:102AF000C7F14006206828442060206820602068D4
:102B0000A84202D26068401C6060AFB1B54213D3E6
:102B100004F11C01C8193246414600F007F904F1DE
:102B20001C012046FEF737FC5FEA000901D0484649
:102B3000D9E7B044AD1B00270BE041462046FEF725
:102B40002AFC5FEA000901D04846CCE708F14008BA
:102B5000403D402DF1D235B104F11C01C8192A467F
:102B6000414600F0E3F80020BDE770B504460D468D
:102B70001646324629462046FFF7A8FF70BD2DE9CC
:102B8000F04704460D466FF06D0900BF00BF00BF5F
:102B900000BF207800F03F0680223046761C04F10A
:102BA0001C010A54382E07D8C6F1380104F11C0262
:102BB000901900F0D4F816E0C6F1400104F11C02AF
:102BC000901900F0CCF804F11C012046FEF7E3FB5D
:102BD0005FEA000902D04846BDE8F087382104F1D9
:102BE0001C0000F0BCF82068400F616840EAC10793
:102BF00020684FEAC008390E84F85410390C84F864
:102C00005510390A84F8561084F857704FEA186145
:102C100084F858104FEA184184F859104FEA1821E7
:102C200084F85A1084F85B8004F11C012046FEF7FA
:102C3000B2FB5FEA000901D04846CDE7A068000E6C
:102C40002870A068000C68702089000AA870207A9B
:102C5000E870E068000E2871E068000C6871A089D7
:102C6000000AA871207BE8712069000E2872206993
:102C7000000C6872208A000AA872207CE8726069E1
:102C8000000E28736069000C6873A08A000AA8739C
:102C9000207DE873A069000E2874A069000C687498
:102CA000208B000AA874207EE874002094E770B599
:102CB00004460D4629462046FFF761FF70BDF0B57A
:102CC00097B004460D4616466FF06D0700BF00BF73
:102CD00000BF00BF6846FEF725FB6846FEF742FBD3
:102CE000070000D00FE02A4621466846FFF7EEFEB7
:102CF000070000D007E031466846FFF740FF0700B5
:102D000000D000E000BF6846FEF715FB384617B05C
:102D1000F0BD70B504460D4616463246294620469B
:102D2000FFF7CDFF70BD0000D6C162CA40EA0103C3
:102D30009B0703D009E008C9121F08C0042AFAD271
:102D400003E011F8013B00F8013B521EF9D2704735
:102D5000D2B201E000F8012B491EFBD270470022DD
:102D6000F6E710B513460A4604461946FFF7F0FF8A
:102D7000204610BD2DE9F05F0546002092469B4697
:102D800088460646814640241BE028464146474681
:102D9000224600F042F853465A46C01A914110D3D9
:102DA00011461846224600F029F82D1A67EB010853
:102DB0004F4622460120002100F020F817EB0009C1
:102DC0004E41201EA4F10104DFDC484631462A466C
:102DD0004346BDE8F09F0000064C074D06E0E06862
:102DE00040F0010394E8070098471034AC42F6D352
:102DF000FDF7A2F9E032000800330008202A04DBC6
:102E0000203A00FA02F1002070479140C2F12003FD
:102E100020FA03F3194390407047202A04DB203A3C
:102E200021FA02F00021704721FA02F3D040C2F1EA
:102E30002002914008431946704700000FB4054B2B
:102E400010B503A9044A029800F018F810BC5DF808
:102E500014FB00004F0400085400002002E008C8E2
:102E6000121F08C1002AFAD170477047002001E004
:102E700001C1121F002AFBD1704700002DE9FF4F4E
:102E80008DB00F460546002606E025280BD0DDE96B
:102E90000F1290476D1C761C28780028F5D111B0D0
:102EA0003046BDE8F08F0024A246A1460122EC493D
:102EB00000E0044315F8013F203B02FA03F008420A
:102EC000F7D128782A2810D06FF02F022878A0F1A7
:102ED0003001092914D80AEB8A0102EB410144F0C0
:102EE000020400EB010A6D1CF0E701CF5FEA000A63
:102EF00003D544F40054CAF1000A44F002046D1CE6
:102F000028782E2817D115F8010F44F004042A2838
:102F10000ED06FF02F022878A0F1300109290AD8CD
:102F200009EB890102EB410100EB01096D1CF2E79D
:102F300057F8049B6D1C28786C280FD006DC4C28B1
:102F400017D068280DD06A2814D104E0742810D056
:102F50007A280FD10DE044F400140AE044F4801400
:102F600001E044F440146978814202D104F58014F0
:102F70006D1C6D1C2A786E2A1FD00CDC632A31D0A0
:102F800004DC002A8BD0582A11D1A3E0642A68D02F
:102F9000692A0CD165E0732A2ED004DC6F2A73D025
:102FA000702A04D19BE0752A6FD0782A6ED0104623
:102FB000DDE90F129047761C50E1C4F3025002285D
:102FC00006D0032809D0042801CF09D0066045E1C6
:102FD00001CFF117C0E9006140E101CF06803DE17A
:102FE00006703BE117F8040B8DF8000000208DF807
:102FF0000100EB46012003E057F804BB4FF0FF301F
:1030000061074FF0000102D40DE008F1010188468C
:1030100049450FDA8045F8DB1BF808100029F4D188
:1030200008E008F1010188468142FADB1BF808102C
:103030000029F6D1DDE90F23AAEB080081462146DD
:1030400000F036F9304400EB080604E0DDE90F1229
:103050001BF8010B9047B8F10108F7D2214648460A
:10306000F7E00A21C4F302534FF0000B0891022B42
:1030700004D001CFC117032B09D00AE0FF1D27F0B0
:103080000707F7E8020108E032E01FE020E000B2A5
:10309000C117042B01D140B2C117031E71F1000307
:1030A00007DA4FF0000CD0EB0C006CEB01012D2384
:1030B00002E0230504D52B238DF82430012303E0FF
:1030C000E30701D02023F7E7984658E00A2110E0F3
:1030D00010210EE010204FF0000B08900CE01021A2
:1030E0004FF0000B44F004044FF00809089103E08E
:1030F00008214FF0000B0891C4F30253022B04D0B7
:1031000001CF0021032B06D006E0FF1D27F00707A3
:10311000F7E8020103E080B2042B00D1C0B24FF007
:10312000000823072BD5702A07D0DDF820C08CF0CB
:10313000100C5CEA0B0C05D00EE040238DF8243017
:10314000012308E050EA010306D030238DF8243033
:103150008DF8252002239846DDF820C08CF0080C5D
:103160005CEA0B0C0BD150EA010301D1630706D5D1
:1031700030238DF824304FF00108A9F10109582AB5
:1031800004D038A20B9208AA0A920BE03AA2F9E7FF
:103190005B46089AFFF7EEFD0B9B9B5C0A9A521E5A
:1031A0000A92137050EA0102F2D10A98ADEB0000C6
:1031B00000F1200B600702D524F4803401E04FF0C9
:1031C0000109D94502DDA9EB0B0000E0002000EB6E
:1031D0000B0141440890AAEB010AE00306D4DDE9A3
:1031E0000F232146504600F063F806444FF00009D3
:1031F00008E009A911F80900DDE90F12904709F16B
:103200000109761CC145F4DBE0030CD5DDE90F2391
:103210002146504600F04CF8064404E0DDE90F1268
:1032200030209047761C0899481E08900029F5DC4C
:1032300008E00A980A990078491C0A91DDE90F1202
:103240009047761CBBF10001ABF1010BF1DC21468C
:103250005046DDE90F2300F019F806446D1C1BE60B
:10326000092801003031323334353637383961625C
:103270006364656600000000303132333435363720
:103280003839414243444546000000002DE9F041F1
:10329000044600251E461746880404D405E0394636
:1032A0002020B0476D1C641EF9D52846BDE8F0818A
:1032B0002DE9F041044600251E469046C80301D57D
:1032C000302700E02027880404D505E04146384631
:1032D000B0476D1C641EF9D52846BDE8F08100009A
:1032E0000033000800000020580000005C2E000899
:1032F0005833000858000020080500006C2E000814
:103300000000000079616E6700000000000000000E
:1033100000000000000000000000000000000000AD
:103320000A0000000000000000A24A0400000000A3
:103330000000000001020304060708090000000065
:103340000102030401020304060708090204060837
:08335000632D000800000000DD
:0400000508000131BD
:00000001FF
