:020000040800F2
:10000000B81E0020113D0008890200088B0200087C
:10001000AF020008B3020008B702000800000000A9
:10002000000000000000000000000000BB0200080B
:10003000BD02000800000000BF020008293D0008C2
:100040002B3D0008A10100082B3D00082B3D0008B6
:100050002B3D00082B3D00082B3D00082B3D0008E0
:100060002B3D00082B3D00082B3D00082B3D0008D0
:100070002B3D00082B3D00082B3D00082B3D0008C0
:100080002B3D00082B3D00082B3D00082B3D0008B0
:100090002B3D00082B3D00082B3D00082B3D0008A0
:1000A0002B3D00082B3D00082B3D00082B3D000890
:1000B000190900082B3D00082B3D00082B3D0008C6
:1000C0002B3D00082B3D00082B3D00082B3D000870
:1000D0002B3D0008E9050008BB0600082B3D000881
:1000E0002B3D00082B3D00082B3D00082B3D000850
:1000F0002B3D00082B3D00082B3D00082B3D000840
:100100002B3D00082B3D00082B3D00082B3D00082F
:100110002B3D00082B3D00082B3D00082B3D00081F
:100120002B3D00082B3D00082B3D00082B3D00080F
:10013000DFF80CD003F042FE00480047C50100087C
:10014000B81E00203548C06940F080503349C8616E
:100150003348006840F0E000314908600846006814
:1001600040F0100008602F48006840F480302D49AE
:1001700008602C480830006840F480302949083174
:100180000860081F006840F48030091F0860254897
:100190001030006840F48030224910310860704708
:1001A00010B520481430006840F480301D491431E7
:1001B00008601B48406800F0040010B11AA003F06A
:1001C0002FFE10BD00F080F84FF4E131084600F03A
:1001D00037F900F023FB00F0C9F81BA003F020FE64
:1001E000FFF7B0FF1A4B1B4A1B491C4800F0F0FCFC
:1001F0001B4841881BA003F013FE142018494880B7
:1002000001F0D7F8012001F07DFA044621461AA03A
:1002100003F006FE01E000F053FBFCE70010024093
:100220000070004000040140313131313131313151
:1002300031313131323232323232323232323333A0
:1002400033333333330D0A0073746172740D0A0053
:1002500000FC000800F8000800F4000800F00008A6
:10026000701A0020CFC8C7B0B4E6C8EBB5C4CAFD49
:10027000BEDD3A25640D0A00BBF1C8A1B5C4CAFDB4
:10028000BEDD3A25640D0A0070470FE071B600BF6D
:100290000B48006800F4E0600A490843001D084963
:1002A0000860BFF3408F00BF00BFFEE7EEE700BF6E
:1002B000FEE700BFFEE700BFFEE7704770477047EC
:1002C0000CED00E00000FA0508B54FF4A06001F065
:1002D00021FD01208DF800008DF8030000208DF82D
:1002E00001008DF80200684601F019FD25208DF807
:1002F000000003208DF801008DF8020001208DF828
:100300000300684601F00BFD26208DF80000022056
:100310008DF801008DF8020001208DF80300684679
:1003200001F0FDFC1C208DF8000001208DF8030079
:1003300002208DF8010003208DF80200684601F0CC
:10034000EEFC08BD71B600BF0648006800F4E0602E
:1003500005490843001D03490860BFF3408F00BFF3
:1003600000BFFEE70CED00E00000FA0510B56FF0ED
:10037000040001F01EFD2E4800682E49B0FBF1F08C
:100380002D4908700846007800EB4001C1EBC01011
:100390004FF6FF7101EAC0002849088010BD0146F0
:1003A000254A12784A434FF0E0235A6100229A61AD
:1003B0001A46126942F001021A6100BF4FF0E022B2
:1003C000106900F001021AB100F48032002AF5D061
:1003D0004FF0E022126922F001024FF0E0231A618F
:1003E00000229A6170470146144A12884A434FF02E
:1003F000E0235A6100229A611A46126942F0010212
:100400001A6100BF4FF0E022106900F001021AB13A
:1004100000F48032002AF5D04FF0E022126922F079
:1004200001024FF0E0231A6100229A617047000038
:100430002C00002000127A000000002002000020A2
:1004400030B587B005460C464FF48062E049E1487C
:1004500001F0EAF9C820E04B4FF48062DF490090D8
:10046000DF4801F077F9C820DE4B4FF48062DE49A7
:100470000090DE4801F06EF901214FF4C02001F038
:1004800032FE012144F20D0001F020FE4FF4007015
:10049000ADF8180003208DF81A0018208DF81B0005
:1004A00006A9D34802F0B8FB4FF48060ADF81800FD
:1004B00004208DF81B0006A9CD4802F0ADFB0420F6
:1004C000ADF8180003208DF81A0018208DF81B00D5
:1004D00006A9C74802F0A0FB0820ADF818000420C8
:1004E0008DF81B0006A9C24802F096FB0020ADF86B
:1004F0000C00ADF80E00ADF81000ADF814000C20A3
:10050000ADF81200029502A9BA4801F086FE0294E5
:1005100002A9B94801F081FE012240F22551B548F7
:1005200001F013FF012240F22551B34801F00DFF05
:10053000012240F22441AF4801F007FF012240F2BE
:100540002441AD4801F001FF0121AA4801F0F1FE6C
:100550000121A94801F0EDFE07B030BD70B5044699
:100560000D461646A34884420BD132462946994887
:1005700001F064FA012240F22771204601F0E5FE05
:100580000CE09D48844209D19C4805609C48066067
:10059000012240F22771204601F0D7FE70BD70B5F0
:1005A00006460C4615460BE014F8011B304601F0D8
:1005B0002DFF00BF8021304601F096FF0028F9D0C2
:1005C0002800A5F10105EFD170BD70B504460D46B8
:1005D0002946204601F01AFF00BF8021204601F085
:1005E00083FF0028F9D070BD38B540F2255181480D
:1005F00001F090FFA0B17F4801F00CFFC4B2814828
:1006000081490968445480480068401C7E4908605C
:1006100008460068B0F5FB7F16D90020086013E09B
:1006200040F22441734801F075FF01280CD1714854
:10063000001D00886B46744872490268684801F0E2
:10064000A9F800207049086040F22771694801F05C
:1006500061FF00B35F4801F011F900280ADD0122B3
:100660006A495C4801F03BF968480178614801F04B
:10067000CDFE10E040F227715E4801F075FF0022C8
:1006800040F227715B4801F060FE012240F22661D2
:10069000584801F05AFE40F22661564801F03AFFF0
:1006A00050B140F22661534801F05EFF002240F253
:1006B0002661504801F049FE38BD38B540F2255159
:1006C0004D4801F027FFA0B14B4801F0A3FEC4B292
:1006D0004F485049096844544E480068401C4D49F1
:1006E000086008460068B0F5FB7F16D90020086056
:1006F00013E040F22441404801F00CFF01280CD1E6
:100700003D48001D00886B46424841490268374811
:1007100001F040F800203F49086040F22771364858
:1007200001F0F8FE20B33648006880B13348006815
:100730000178314801F06AFE30480068401C2F49BA
:1007400008602F480068401E2D49086010E040F204
:100750002771294801F008FF002240F2277126483E
:1007600001F0F3FD012240F22661234801F0EDFD86
:1007700040F22661204801F0CDFE50B140F22661E2
:100780001D4801F0F1FE002240F226611A4801F0F6
:10079000DCFD38BD38B504460D46E0B200901E4879
:1007A000007838B901201C49087040F226611148D0
:1007B00001F0DAFE01226946064801F03FF9012204
:1007C00040F227710B4801F0C0FD204638BD000003
:1007D0006C07002094000020A4060020A400002044
:1007E00058000020A8110020A80B00206C0B00204E
:1007F000000801400038014000440040040000208F
:100800001C00002070120020080000200C000020B6
:1008100070140020180000202000002008B50121DD
:100820007D2001F053FC4FF40050ADF80000102083
:100830008DF8030003208DF802006946154802F088
:10084000EBF90620ADF8000010208DF8030003201E
:100850008DF802006946104802F0DEF92020ADF85C
:10086000000048208DF8030003208DF8020069463F
:10087000094802F0D1F94FF40070ADF800001420DF
:100880008DF8030003208DF802006946024802F04B
:10089000C3F908BD00100140000C014070B50546C9
:1008A0000C4645F2555003F013FA284603F013FAAC
:1008B000204603F013FA03F014FA03F017FA70BDA0
:1008C00010B503F00EFA10BD0EB50121084601F077
:1008D0000AFC4FF0804002F0EDFA0020ADF806006F
:1008E000ADF802000A20ADF8040041F61F40ADF853
:1008F000000069464FF0804002F0B0FB01218807FC
:1009000003F0E2F90121880702F004FF01221146F9
:10091000900702F01AFF0EBD10B50121880703F001
:10092000C2F9012808D10121800703F0CDF903485D
:100930000068401C0149086010BD00002400002030
:100940000146088870472DE9F04105460E461746D6
:10095000002407E036F81410284601F086FFAD1C8D
:10096000601C84B2BC42F5DBBDE8F08130B50346C3
:100970000C461546002207E01846FFF7E1FF24F871
:1009800012009B1C501C82B2AA42F5DB30BD2DE93F
:10099000F05F80468A461746B8F1006F02D37B4865
:1009A000804501D3BDE8F09F01F017FEA8F1006B70
:1009B0004FEA9B24CBF34809C9F50075AF4200DC30
:1009C0003D4667E04FF0006101EB84208A147049D6
:1009D000FFF7CCFF00260BE009EB06006C4931F86D
:1009E00010004FF6FF71884200D003E0701C86B201
:1009F000AE42F1DB00BFAE4235DA4FF0006101EBF1
:100A0000842001F02FFE002613E04FF0006101EB7F
:100A100084218819FFF794FF4FF6FF71884206D0B2
:100A20004FF0006101EB842001F01CFE04E0B01CDB
:100A300086B2B6F5806FE8DB00BF002608E03AF822
:100A4000160006EB0901524A22F81100701C86B20A
:100A5000AE42F4DB4FF0006101EB84208A144C4974
:100A6000FFF771FF04E02A4651464046FFF76BFF4F
:100A7000AF4200D10FE0641C4FF000090AEB450AB9
:100A8000A844781B87B2B7F5007F02DD4FF40075EC
:100A900000E03D4696E700BF01F0ABFD00BF81E7F7
:100AA0002DE9F04105460E461746012039490870E8
:100AB00002F031F804280FD101F08FFD002407E087
:100AC00036F81410284601F0D0FEAD1C601C84B22C
:100AD000BC42F5DB01F08DFDBDE8F08170B5054647
:100AE0000C4601202B49087002F015F8042819D192
:100AF00001F073FD2146284601F0B7FE2549087034
:100B00000846007804280BD12846FFF719FFA042B9
:100B100003D100201F49087002E005201D4908701C
:100B200001F067FD1B48007870BD2DE9F0410446D7
:100B30000E460027B4F1006F02D31448844202D35A
:100B40000020BDE8F081A4F10065AD0A01F0E3FFEB
:100B5000042817D101F041FD00270EE04FF000619D
:100B600001EB852001F07EFD0A49087008460078F7
:100B7000042800D003E06D1C7F1CB742EED300BFF9
:100B800001F037FD03480078DBE7000000000108B2
:100B9000701600202800002070B504460D46164649
:100BA000324629462046FFF7E1FE70BD70B5044687
:100BB0000D461646324629462046FFF771FF70BDA6
:100BC00070B504460D4629462046FFF7AEFF70BDBE
:100BD0002DE9F04393B006460F4690469946301DE6
:100BE000FE49C862381D086308F10400486309F132
:100BF000040088630846C16AF9A003F011F9F748B8
:100C0000016BFBA003F00CF9F448416BFCA003F06E
:100C100007F9F248816BFEA003F002F9AA20EF4920
:100C200008805520C884192008850846008D00EBEF
:100C300080004FF6FF7101EA8000E8490885012233
:100C4000C86A08A9FFF7A8FFE449C96AE34A128DF8
:100C500001EB4201881E012204A9FFF79DFFDF4935
:100C60000122086B07A9FFF797FFDC49096BDB4AF4
:100C7000128D01EB4201881E012203A9FFF78CFFB0
:100C8000D6490122486B06A9FFF786FFD349496B75
:100C9000D24A128D01EB4201881E012202A9FFF700
:100CA0007BFFCE490122886B05A9FFF775FFCB4971
:100CB000896BCA4A128D01EB4201881E012201A9EB
:100CC000FFF76AFFBDF820004FF6FF71884223D17D
:100CD000BDF8100088421FD1BDF81C0088421BD10E
:100CE000BDF80C00884217D1BDF81800884213D116
:100CF000BDF8080088420FD1BDF8140088420BD11E
:100D0000BDF80400884207D1B448006BB349C863FA
:100D1000C3A003F085F849E3BDF82000AA283FD11D
:100D2000BDF810004FF6FF71884239D1C0A003F022
:100D300077F8002531E0A948C16A05EB850001EB91
:100D4000C000A649C8631422C86B09A9FFF724FF95
:100D5000BDF824004FF6FF71884210D1BDF84A005B
:100D600088420CD1002407E09C4830F81410B6A04B
:100D700003F056F8601C84B2142CF5DB0FE000245D
:100D800007E009A830F81400944921F81400601C09
:100D900084B2142CF5DB681C85B2192DCBDB05E37E
:100DA000BDF81C00AA283FD1BDF80C004FF6FF711A
:100DB000884239D1A5A003F033F8002531E08748F7
:100DC000016B05EB850001EBC0008449C863142268
:100DD000C86B09A9FFF7E0FEBDF824004FF6FF71CC
:100DE000884210D1BDF84A0088420CD1002407E0A7
:100DF0007A4830F8141094A003F012F8601C84B202
:100E0000142CF5DB0FE0002407E009A830F81400EB
:100E1000724921F81400601C84B2142CF5DB681CA4
:100E200085B2192DCBDBC1E2BDF81800AA283FD14D
:100E3000BDF808004FF6FF71884239D189A002F051
:100E4000EFFF002531E06548416B05EB850001EBC4
:100E5000C0006249C8631422C86B09A9FFF79CFE51
:100E6000BDF824004FF6FF71884210D1BDF84A004A
:100E700088420CD1002407E0584830F8141072A0C2
:100E800002F0CEFF601C84B2142CF5DB0FE00024CE
:100E900007E009A830F81400504921F81400601C3C
:100EA00084B2142CF5DB681C85B2192DCBDB7DE2F6
:100EB000BDF81400AA283FD1BDF804004FF6FF7119
:100EC000884239D16DA002F0ABFF002531E04348E4
:100ED000816B05EB850001EBC0004049C86314221B
:100EE000C86B09A9FFF758FEBDF824004FF6FF7143
:100EF000884210D1BDF84A0088420CD1002407E096
:100F0000364830F8141050A002F08AFF601C84B2FA
:100F1000142CF5DB0FE0002407E009A830F81400DA
:100F20002E4921F81400601C84B2142CF5DB681CD7
:100F300085B2192DCBDB39E2BDF82000AA284AD1B1
:100F4000BDF81000552846D152A002F069FFBDF847
:100F50001C00AA2840D1BDF80C004FF6FF71884252
:100F60003AD13AA002F05CFF002531E01B48016B4A
:100F700005EB850001EBC0001849C8631422C86B5B
:100F800009A9FFF709FEBDF824004FF6FF7188425A
:100F900010D1BDF84A0088420CD1002407E00F4868
:100FA00030F8141028A002F03BFF601C84B2142C0F
:100FB000F5DB0FE0002407E009A830F8140007492A
:100FC00021F81400601C84B2142CF5DB681C85B277
:100FD000192DCBDBEAE18CE068E00000701A0020FC
:100FE0000D0A2070616765303A203078257800005E
:100FF0000D0A2070616765313A203078257800004D
:101000000D0A2070616765323A203078257800003B
:101010000D0A2070616765333A203078257800002A
:101020000D0A206E6F207361766520646174610023
:101030000D0A2064617461207361766520706167B8
:1010400065300D0A00000000257820000D0A20649C
:1010500061746120736176652070616765310D0A86
:10106000000000000D0A20646174612073617665E0
:101070002070616765320D0A000000000D0A2064CF
:1010800061746120736176652070616765330D0A54
:10109000000000000D0A20646174612073617665B0
:1010A000207061676530203F0D0A0000F5A002F056
:1010B000B7FEFE49C96A01F57070142209A9FFF74D
:1010C0006BFD00240EE009A830F81400F74921F860
:1010D0001400084630F81410AFF2940002F0A0FE9D
:1010E000601C84B2142CEEDBF048006BEF49C8633F
:1010F0005CE1BDF81C00AA2870D1BDF80C00552891
:101100006CD1EBA002F08CFEBDF81800AA2841D1EA
:10111000BDF808004FF6FF7188423BD1AFF2BC002A
:1011200002F07EFE002532E0E048416B05EB8500D1
:1011300001EBC000DD49C8631422C86B09A9FFF7A1
:101140002BFDBDF824004FF6FF71884211D1BDF888
:101150004A0088420DD1002408E0D44830F8141029
:10116000AFF21C1002F05CFE601C84B2142CF4DBA5
:101170000FE0002407E009A830F81400CB4921F85B
:101180001400601C84B2142CF5DB681C85B2192D88
:10119000CADB0BE1CCA002F043FEC449096B01F5A8
:1011A0007070142209A9FFF7F7FC00240EE009A8CB
:1011B00030F81400BD4921F81400084630F8141026
:1011C000AFF27C1002F02CFE601C84B2142CEEDB1B
:1011D000B648406BB549C863E8E0FFE7BDF81800C2
:1011E000AA2870D1BDF8080055286CD1C0A002F023
:1011F00017FEBDF81400AA2841D1BDF804004FF62F
:10120000FF7188423BD1AFF28C1002F009FE00253D
:1012100032E0A648816B05EB850001EBC000A349D5
:10122000C8631422C86B09A9FFF7B6FCBDF82400F7
:101230004FF6FF71884211D1BDF84A0088420DD1A6
:10124000002408E0994830F81410AFF2042002F0AE
:10125000E7FD601C84B2142CF4DB0FE0002407E0EF
:1012600009A830F81400914921F81400601C84B2D8
:10127000142CF5DB681C85B2192DCADB96E0A2A000
:1012800002F0CEFD8949496B01F57070142209A95D
:10129000FFF782FC00240EE009A830F8140083490F
:1012A00021F81400084630F81410AFF2642002F060
:1012B000B7FD601C84B2142CEEDB7C48806B7B494C
:1012C000C86373E0FFE7BDF81400AA286ED1BDF82B
:1012D000040055286AD196A002F0A2FDBDF82000B6
:1012E000AA2841D1BDF810004FF6FF7188423BD1CA
:1012F000AFF2C42002F094FD002532E06B48C16AD1
:1013000005EB850001EBC0006849C8631422C86B77
:1013100009A9FFF741FCBDF824004FF6FF71884290
:1013200011D1BDF84A0088420DD1002408E05F4881
:1013300030F81410AFF2F02002F072FD601C84B29D
:10134000142CF4DB0FE0002407E009A830F81400A7
:10135000564921F81400601C84B2142CF5DB681C7B
:1013600085B2192DCADB21E077A002F059FD4F4963
:10137000896B01F57070142209A9FFF70DFC002498
:101380000EE009A830F81400484921F81400084676
:1013900030F81410AFF2503002F042FD601C84B2FD
:1013A000142CEEDB4148C06A4049C86313B0BDE865
:1013B000F0831CB53D48C06B3C49C96A884246D39E
:1013C0003A48C16B006B814241D23848C06B28302B
:1013D0003649C96A01F57F71884207D93348006BE5
:1013E0003249C8630846C06B086403E02F48C06BED
:1013F0002E4908642D48C06B28302C49C86314223C
:10140000086CFFF7D3FB29490122886B01A9FFF77C
:10141000C3FB2649896B254A128D01EB4201881EC8
:1014200001226946FFF7B8FBBDF804004FF6FF71D3
:10143000884203D1BDF80000884207D04CA002F0DA
:10144000EFFC1A49886B0121FFF7BAFB59E11748F5
:10145000C16B006B814213D31448C16B406B814256
:101460000ED21248C06B28301049096B01F57F710C
:10147000884206D90D48406B0C49C86308467FE096
:10148000B2E080E00D0A206174612073617665200E
:101490007061676530206275742070616765302007
:1014A00069732066756C6C0D0A000000701A0020CC
:1014B0000D0A206461746120736176652070616734
:1014C0006531203F0D0A00000D0A2064617461201F
:1014D0007361766520706167653120627574207074
:1014E000616765312069732066756C6C0D0A0000B8
:1014F0000D0A2064617461207361766520706167F4
:101500006532203F0D0A00000D0A206461746120DD
:101510007361766520706167653220627574207032
:10152000616765322069732066756C6C0D0A000076
:101530000D0A2064617461207361766520706167B3
:101540006533203F0D0A00000D0A2064617461209C
:1015500073617665207061676533206275742070F1
:10156000616765332069732066756C6C0D0A000035
:101570000D0A204572617365506167330D0A0000E2
:10158000C06B086403E06648C06B65490864644842
:10159000C06B28306249C8631422086CFFF706FB51
:1015A0005F490122C86A01A9FFF7F6FA5C49C96AD6
:1015B0005B4A128D01EB4201881E01226946FFF74A
:1015C000EBFABDF804004FF6FF71884203D1BDF875
:1015D0000000884207D053A002F022FC5049C86A9C
:1015E0000121FFF7EDFA8CE04D48C16B406B814261
:1015F00046D34B48C16B806B814241D24848C06B97
:1016000028304749496B01F57F71884207D9444822
:10161000806B4349C8630846C06B086403E04048D8
:10162000C06B3F4908643E48C06B28303C49C863E2
:101630001422086CFFF7BAFA39490122086B01A994
:10164000FFF7AAFA3649096B354A128D01EB4201C0
:10165000881E01226946FFF79FFABDF804004FF685
:10166000FF71884203D1BDF80000884249D031A003
:1016700002F0D6FB2A49086B0121FFF7A1FA40E0EE
:101680002748C06B28302649896B01F57F71884255
:1016900007D92348C06A2249C8630846C06B08645A
:1016A00003E01F48C06B1E4908641D48C06B28300A
:1016B0001B49C8631422086CFFF778FA1849012205
:1016C000486B01A9FFF768FA1549496B144A128D56
:1016D00001EB4201881E01226946FFF75DFABDF861
:1016E00004004FF6FF71884203D1BDF80000884224
:1016F00007D014A002F094FB0949486B0121FFF7C1
:101700005FFA1CBD38B504460549096C01EB44007D
:1017100001226946FFF740FABDF8000038BD00001D
:10172000701A00200D0A20457261736550616730A0
:101730000D0A00000D0A2045726173655061673122
:101740000D0A00000D0A2045726173655061673211
:101750000D0A00002DE9F04104460E4617461D46CD
:10176000DDF8188072B63A46314604F11C0000F0EC
:101770005BF84246294604F12C0000F055F80020A1
:10178000206060602072E06060722061606162B61B
:10179000BDE8F0817FB504460E461D4672B604F1E1
:1017A0001C0000F08AF80299884218D904F12C0034
:1017B00000F083F804280EDD314604F11C00029A83
:1017C00000F03CF9042202A904F12C0000F036F9E3
:1017D0000020286006E04FF0FF30286002E06FF044
:1017E0000100286062B67FBD70B504460E461546FE
:1017F00072B60020286004F12C0000F03FF80428A5
:1018000010DB042204F1180104F12C0000F067F849
:10181000A069002806DD314604F11C00A26900F031
:101820005EF8286062B670BD70B504460D46164677
:101830001CB991A002F0F4FA70BD2660E560E06882
:101840006060E068A06000BFF6E710B504461CB910
:1018500089A002F0E5FA10BD0020E0606060A060A1
:10186000206000BFF7E710B504462CB982A002F053
:10187000D7FA4FF0FF3010BD2068FCE710B50446E2
:101880002CB97DA002F0CCFA4FF0FF3010BDD4E9A6
:101890000101884201D10020F8E7D4E90101884222
:1018A00003D2D4E90110401AF0E72046FFF7DBFF2E
:1018B000D4E90112891A401AE8E770B504462CB938
:1018C0006DA002F0ADFA4FF0FF3070BD2046FFF77B
:1018D000CAFF05462046FFF7D1FF281AF5E72DE994
:1018E000F04104460F46164600252CB962A002F0CE
:1018F00097FA681EBDE8F0812FB966A002F090FA51
:101900004FF0FF30F6E7D4E90101884214D22046B7
:10191000FFF7B4FFB04201D9304602E02046FFF79E
:10192000ADFF05462A463846616802F003FA606852
:10193000284460602846DDE72046FFF794FFE26810
:101940006168891A401AB0420AD935462A46384693
:10195000616802F0EFF96068284460602846C9E7D2
:101960002046FFF780FFE2686168891A451A2A4617
:101970003846616802F0DEF9E0686060721B791930
:101980002046FFF7ACFF05442846B3E72DE9F041B8
:1019900004460F46154600262CB945A002F040FA31
:1019A000701EBDE8F0812FB947A002F039FA4FF060
:1019B000FF30F6E72046FFF780FFA84205D848A091
:1019C00002F02EFA4FF0FF30EBE7D4E90101884234
:1019D0002AD82046FFF747FFD4E90212891A461A8F
:1019E000B54213D82A463946A06802F0A3F9A06888
:1019F0002844A0602046FFF736FFE1680844A1684C
:101A0000884201D1E068A0602846CAE732463946DC
:101A1000A06802F08FF9E068A060AA1BB9192046FF
:101A2000FFF7B4FF3044BCE72A463946A06802F00D
:101A300081F9A0682844A0602846B2E72DE9F0416A
:101A400007460C46154600262CB92AA002F0E8F9F4
:101A5000701EBDE8F0812A4621463846FFF796FF02
:101A60000646AE4205D02CA002F0DAF94FF0FF3066
:101A7000EFE73046EDE700004552524F523A2069F9
:101A80006E707574207262206973204E554C4C0A3A
:101A9000000000004552524F523A20696E70757432
:101AA0002064617461206973204E554C4C0A00001B
:101AB0004552524F523A20726220697320656D7010
:101AC0007479200A000000004552524F523A2064B7
:101AD00061746120697320656D707479200A00005B
:101AE0004552524F523A206E6F206D656D6F72797C
:101AF000200A00004552524F523A2067697A5075C9
:101B000074446174612062756620697320656D702C
:101B10007479200A000000004552524F523A204684
:101B200061696C656420746F2072625772697465B4
:101B3000200A00000CB50020019000906C4800685D
:101B400040F480306A49086000BF6948006800F4CA
:101B5000003000900198401C0190009818B901983D
:101B6000B0F5A06FF1D16248006800F4003010B108
:101B70000120009001E0002000900098012843D14E
:101B80005C48006840F010005A4908600846006848
:101B900020F0030008600846006840F0020008607A
:101BA00053484068524948600846406848600846C3
:101BB000406840F4806048600846406820F47C102B
:101BC00048600846406840F4E810486008460068ED
:101BD00040F08070086000BF4548006800F0007069
:101BE0000028F9D04248406820F00300404948608E
:101BF0000846406840F00200486000BF3C4840682A
:101C000000F00C000828F9D10CBD10B5FFF792FFC9
:101C100010BD10B53648006840F001003449086036
:101C20000846406834490840314948600846006821
:101C3000324908402E4908600846006820F4802098
:101C400008600846406820F4FE0048604FF41F001A
:101C50008860FFF7DAFF4FF000602949086010BD87
:101C600010B5002100200022214B5B6803F00C011D
:101C700021B1042906D0082928D107E0214B224CA4
:101C8000236027E01F4B204C236023E0184B5B6848
:101C900003F47010164B5B6803F48032022303EBED
:101CA000904022B9194B4343174C23600DE0104B71
:101CB0005B6803F4003323B1144B4343124C23609D
:101CC00003E0104B4343104C236003E00D4B0E4CDC
:101CD000236000BF00BF064B5B68C3F303130C4CCB
:101CE000E15C094B1B68CB40074C236010BD000032
:101CF00000100240002002400000FFF8FFFFF6FE47
:101D000008ED00E000127A002C00002000093D00E0
:101D10003000002031490143314A1160704770B5ED
:101D2000002100230F22C47804B32D4C246804F44E
:101D3000E064C4F5E064210AC1F10403CA404478B8
:101D400004FA03F18478144021430901254C0678F4
:101D5000A155047804F01F050124AC4005786D11ED
:101D6000AD0005F1E025C5F8004109E0047804F074
:101D70001F050124AC401C4D0678761145F826401D
:101D800070BD1A4A0A400243154B1B1F1A60704768
:101D900039B1134A121D12680243114B1B1D1A6000
:101DA00006E00F4A121D126882430D4B1B1D1A607C
:101DB0007047042808D14FF0E021096941F004017F
:101DC0004FF0E022116107E04FF0E021096921F0B6
:101DD00004014FF0E0221161704700000000FA0595
:101DE0000CED00E000E400E080E100E080FFFF1F78
:101DF000DF48006840F00100DD490860084640689F
:101E0000DC490840DA49486008460068DA49084079
:101E1000D74908600846006820F48020086008461A
:101E2000406820F4FE0048604FF41F00886070474F
:101E3000CF49096821F48031CD4A11601146096803
:101E400021F480211160B0F5803F03D0B0F5802FE0
:101E50000ED106E0C649096841F48031C44A1160D8
:101E600007E0C349096841F4A021C14A116000E0BC
:101E700000BF00BF704710B50146002200230020BC
:101E80004A11012A02D1BA4C236806E0022A02D183
:101E9000B74C236A01E0B64C636A01F01F020124CB
:101EA00094401C400CB1012000E0002010BD38B56A
:101EB000002000900024002500BF3120FFF7DBFF49
:101EC00005460098401C00900098B0F5A06F01D026
:101ED000002DF2D03120FFF7CEFF08B1012400E041
:101EE0000024204638BD01460020A14A106820F099
:101EF000F80040EAC10010607047A04908607047D0
:101F0000024600209A4B586820F47C1042EA0103F4
:101F10001843974B586070479849086670470146C8
:101F20000020934A506820F0030008435060704737
:101F30008F48406800F00C007047014600208C4A32
:101F4000506820F0F00008435060704701460020C0
:101F5000874A506820F4E0600843506070470146AB
:101F60000020834A506820F4605040EAC10050606D
:101F7000704729B17E4A527A02437D4B5A7204E07F
:101F80007B4A527A82437A4B5A7270477B49D831E6
:101F90000860704701460020754A506820F44040B0
:101FA0000843506070470021714A20321170704A16
:101FB00082F82010012802D004280AD104E001216F
:101FC0006B4A2032117005E00521694A20321170F8
:101FD00000E000BF00BF704769490860704764496E
:101FE000096A0143624A11627047654944390860D1
:101FF000704730B500210022002400235C4D6D683D
:1020000005F00C0121B1042905D0082923D105E0F0
:102010005C4D056022E05B4D05601FE0544D6D682E
:1020200005F47012524D6D6805F48034022505EBFD
:1020300092421CB9544D554305600BE04C4D6D6800
:1020400005F400351DB1504D5543056002E04D4D7E
:102050005543056002E04B4D056000BF00BF444D95
:102060006D6805F0F0010909484D6B5C0568DD40BD
:1020700045603F4D6D6805F4E061090A434D6B5CB6
:102080004568DD4085603A4D6D6805F46051C90AC8
:102090003E4D6B5C4568DD40C560354D6D6805F4AF
:1020A0004041890B3A4D6B5CC568B5FBF3F50561A2
:1020B00030BD29B12E4A526902432D4B5A6104E0CA
:1020C0002B4A526982432A4B5A61704729B1284AE8
:1020D00092690243264B9A6104E0254A9269824341
:1020E000234B9A61704729B1214AD2690243204BA0
:1020F000DA6104E01E4AD26982431D4BDA617047FF
:1021000029B11B4AD2680243194BDA6004E0184A2D
:10211000D2688243164BDA60704729B1144A1269BB
:102120000243134B1A6104E0114A12698243104BB7
:102130001A61704712494039086070470F49C864F6
:1021400070470B49C87170470948406A40F0807079
:1021500007494862704701460020054A92680A40D4
:102160000AB1012000E000207047014988727047E1
:10217000001002400000FFF8FFFFF6FE00004242A0
:102180008004424200127A0000093D004000002015
:102190005000002010B50446FB48844209D10121BB
:1021A0008803FFF7ADFF00214FF48040FFF7A8FF41
:1021B00032E0F648844209D101214804FFF7ADFF1F
:1021C00000214FF40030FFF7A8FF25E0F0488442DB
:1021D00009D101218804FFF7A0FF00214FF48020DE
:1021E000FFF79BFF18E0EB48844209D10121C804A6
:1021F000FFF793FF00214FF40020FFF78EFF0BE065
:10220000E548844208D101210805FFF786FF002137
:102210004FF48010FFF781FF10BD2DE9F04786B025
:1022200005460E460024A24600BFA1460027B089FD
:1022300000B100BF2F462C8A4CF6FF700440F08896
:1022400004432C82AC894EF6F3100440B0883189E7
:102250000843718908430443AC81AC8A4FF6FF40C0
:102260000440B0890443AC8201A8FFF7C2FEC6480F
:10227000874202D1DDF810A001E0DDF80CA0A889AA
:1022800000F4004040B10AEBCA0000EB0A103168CC
:102290004900B0FBF1F807E00AEBCA0000EB0A10B6
:1022A00031688900B0FBF1F86420B8FBF0F004015C
:1022B0002009642101FB1089A88900F4004040B185
:1022C000322000EBC900B0FBF1F000F0070004433E
:1022D00008E0322000EB09106421B0FBF1F000F0BF
:1022E0000F0004432C8106B0BDE8F0874FF416516F
:1022F000016000218180C18001810C214181002188
:102300008181704710B502460020108A4FF2FF030A
:1023100018400B884C8823438C882343CC88234364
:102320001843108210BD0021018041808180C1804E
:10233000704721B1828942F40052828104E082898F
:102340004DF6FF731A4082817047F0B503460024B2
:1023500000260025002040F66A17B94200D100BFD0
:102360001846C1F3421401F01F06012707FA06F5CB
:10237000012C01D10C3004E0022C01D1103000E01E
:1023800014301AB107682F43076002E00768AF43B3
:102390000760F0BD1AB1838A0B43838202E0838A0F
:1023A0008B4383827047028A4FF6F0731A40028291
:1023B000028A0A430282704782894FF2FF731A40F1
:1023C000828182890A438281704721B1828942F0E9
:1023D0000202828104E082894FF6FD731A408281F5
:1023E0007047028A4FF6DF731A400282028A0A435C
:1023F0000282704721B1028A42F48042028204E0E4
:10240000028A4BF6FF731A4002827047C1F308023A
:102410008280704701468888C0F308007047818930
:1024200041F0010181817047028BD2B20283028B9D
:1024300042EA012202837047028B02F47F42028348
:10244000028B0A430283704721B1828A42F0200244
:10245000828204E0828A4FF6DF731A4082827047DC
:1024600021B1828A42F01002828204E0828A4FF611
:10247000EF731A408282704721B1828A42F00802CB
:10248000828204E0828A4FF6F7731A408282704794
:1024900021B1828942F40042828103E08289C2F341
:1024A0000E028281704721B1828A42F400628282E8
:1024B00004E0828A4FF2FF731A4082827047828A58
:1024C0004FF6FB731A408282828A0A4382827047E7
:1024D00021B1828A42F00202828204E0828A4FF6AF
:1024E000FD731A408282704702460020B1F5007FDA
:1024F00000D100BF13880B400BB1012000E0002089
:10250000704701F40072B2F5007F00D100BFCA43EA
:102510000280704770B50246002400230025002089
:1025200040F66A16B14200D100BFC1F3421501F076
:102530001F03012606FA03F3012D02D196893340C9
:1025400006E0022D02D1168A334001E0968A33401C
:102550000C12012606FA04F41688344013B10CB1AB
:10256000012000E0002070BD10B50022002340F6DD
:102570006A14A14200D100BF0A1201249440A3B200
:10258000DC43048010BD00000038014000440040DE
:1025900000480040004C0040005000400146002030
:1025A000FE4A106800F03800084310607047FB498D
:1025B000096821F00801F94A1160114609680143D0
:1025C00011607047F549096821F01001F34A116064
:1025D00011460968014311607047F148EF494860AE
:1025E000F04848607047EE48EC494860ED48486064
:1025F0007047EA48006940F08000E8490861704788
:10260000E648006940F08000E44908617047042012
:10261000E249C96801F0010109B101200EE0DF497A
:10262000C96801F0040109B1022007E0DB49C9686B
:1026300001F0100109B1032000E00420704700B54B
:1026400002460423FFF7E3FF034603E0FFF7DFFF43
:102650000346521E012B01D1002AF7D102B90523EE
:10266000184600BD30B5044604254FF43020FFF76E
:10267000E6FF0546042D17D1C848006940F0020066
:10268000C649086108464461006940F0400008619D
:102690004FF43020FFF7D3FF0546C048006941F6EC
:1026A000FD710840BD490861284630BD10B50424BD
:1026B0004FF43020FFF7C3FF0446042C16D1B7486F
:1026C000006940F00400B54908610846006940F01F
:1026D000400008614FF43020FFF7B1FF0446AF48D7
:1026E000006941F6FB710840AC490861204610BD05
:1026F00000B502460423FFF78AFF034603E0FFF715
:1027000086FF0346521E012B01D1002AF7D102B9E0
:102710000523184600BD10B504244FF43020FFF700
:10272000E7FF0446042C16D19C48006940F00400E1
:102730009A4908610846006940F0400008614FF47A
:102740003020FFF7D5FF04469448006941F6FB713D
:10275000084092490861204610BD00208F49C96990
:1027600001F0020109B1012000E00020704730B5FE
:10277000A5250424FFF7F1FF00B100254FF4302018
:10278000FFF75DFF0446042C3AD1854883498860F1
:10279000844888600846006940F0200008610846C7
:1027A000006940F0400008614FF43020FFF747FF18
:1027B0000446042C1BD17948006941F6DF710840BA
:1027C000764908610846006940F0100008617648C3
:1027D0000580E002FFF733FF0446052C10D06F4858
:1027E000006941F6EF7108406C49086108E0052C6A
:1027F00006D06A48006941F6EF71084067490861F0
:10280000204630BD78B506460C46042500200090D1
:10281000E802FFF714FF0546042D24D15F48006944
:1028200040F001005D4908613480E802FFF707FFCE
:102830000546042D10D1B01C0090200C0099088092
:10284000E802FFF7FCFE05465448006941F6FE71B8
:1028500008405249086106E05048006941F6FE719F
:1028600008404E490861284678BD70B504460D46BB
:102870000426F002FFF7E3FE0646042E11D1474876
:10288000006940F00100454908612580F002FFF72A
:10289000D6FE06464148006941F6FE7108403F49B0
:1028A0000861304670BD70B505460E460424E0024E
:1028B000FFF7C5FE0446042C17D139483749886014
:1028C000384888600846006940F0100008612E8092
:1028D000E002FFF7B4FE0446052C06D02F4800693D
:1028E00041F6EF7108402D490861204670BD2DE981
:1028F000F04304464FF6FF763746B046B14604250E
:10290000E443E6B2C4F30727C4F307484FEA146967
:10291000E802FFF794FE0546042D49D120481F49DF
:102920008860204888600846006940F0100008610F
:10293000FF2E06D01C4808300680E802FFF77FFE15
:102940000546042D08D1FF2F06D017480A3007800E
:10295000E802FFF774FE0546042D0AD1B8F1FF0F17
:1029600007D011480C30A0F80080E802FFF767FE9E
:102970000546042D0AD1B9F1FF0F07D00A480E30E1
:10298000A0F80090E802FFF75AFE0546052D0FD08B
:102990000248006941F6EF71084007E0002002405C
:1029A00023016745AB89EFCD00F8FF1F6649086139
:1029B0002846BDE8F08330B5054604244FF43020A6
:1029C000FFF73DFE0446042C41D160485E49886013
:1029D0005F4888600846006940F0200008610846AA
:1029E000006940F0400008614FF43020FFF727FEF7
:1029F0000446042C22D15448006941F6DF71084096
:102A0000514908610846006940F0100008611DB195
:102A100000205049088002E0A5204E4908804FF46C
:102A20003020FFF70CFE0446052C10D04648006904
:102A300041F6EF7108404449086108E0052C06D0D2
:102A40004148006941F6DF7108403F49086120466E
:102A500030BDF0B505460E46174604243B483A49BA
:102A600088603B488860E002FFF7E9FD0446042CDB
:102A700019D13548006940F010003349086147F02A
:102A8000F800304328433349891C0880E002FFF7EF
:102A9000D6FD0446052C06D02B48006941F6EF719F
:102AA0000840294908612046F0BD2748C0698008D0
:102AB00070472548006A704700202349096801F0E3
:102AC000200109B1012000E00020704729B11E4A11
:102AD000126902431C4B1A6104E01B4A12698243CB
:102AE000194B1A61704701460020012908D1164A86
:102AF000D26902F001020AB1012008E0002006E0DC
:102B0000114AD2680A400AB1012000E00020704753
:102B10000D49C860704704200B49C96801F00101E4
:102B200009B101200EE00849C96801F0040109B1AA
:102B3000022007E00449C96801F0100109B103202F
:102B400000E0042070470000002002402301674598
:102B5000AB89EFCD00F8FF1F10B50446CC48844286
:102B600008D101210420FFF7CBFA00210420FFF750
:102B7000C7FA46E0C748844208D101210820FFF780
:102B8000BFFA00210820FFF7BBFA3AE0C2488442AE
:102B900008D101211020FFF7B3FA00211020FFF720
:102BA000AFFA2EE0BD48844208D101212020FFF772
:102BB000A7FA00212020FFF7A3FA22E0B8488442B8
:102BC00008D101214020FFF79BFA00214020FFF7A8
:102BD00097FA16E0B348844208D101218020FFF71C
:102BE0008FFA00218020FFF78BFA0AE0AE4884427A
:102BF00007D101218015FFF783FA0021A015FFF707
:102C00007FFA10BD10B501210846FFF779FA0021BF
:102C10000120FFF775FA10BD2DE9F04102460025AD
:102C20000026002000230024002791F803C00CF0A8
:102C30000F0591F803C00CF0100CBCF1000F03D08D
:102C400091F802C04CEA050591F800C0BCF1000FF4
:102C500031D0146800202BE04FF0010C0CFA00F387
:102C6000B1F800C00CEA03069E4220D183004FF069
:102C70000F0C0CFA03F7BC4305FA03FC4CEA0404FE
:102C800091F803C0BCF1280F06D14FF0010C0CFAEB
:102C900000FCC2F814C00AE091F803C0BCF1480F70
:102CA00005D14FF0010C0CFA00FCC2F810C0401C1A
:102CB0000828D1D31460B1F800C0BCF1FF0F34DD97
:102CC000546800202EE000F1080C4FF0010808FACB
:102CD0000CF3B1F800C00CEA03069E4221D1830038
:102CE0004FF00F0C0CFA03F7BC4305FA03FC4CEA57
:102CF000040491F803C0BCF1280F05D100F1080CC1
:102D000008FA0CF8C2F8148091F803C0BCF1480F1F
:102D100007D100F1080C4FF0010808FA0CF8C2F8CE
:102D20001080401C0828CED35460BDE8F0814FF6D7
:102D3000FF710180022181700421C1707047024639
:102D4000002093680B400BB1012000E00020704789
:102D50000146886880B2704702460020D3680B4065
:102D60000BB1012000E0002070470146C86880B226
:102D7000704701617047416170470AB1016100E02D
:102D800041617047C16070474FF480320A438261ED
:102D90008161826182698269704702460020434BEB
:102DA00018684FF68073184040EA021008433F4B02
:102DB000186070473E49C8617047F0B50A46002365
:102DC00000240021002500F00046B6F1004F02D19A
:102DD000364EF16901E0354E7168C0F3034583B2A8
:102DE00000F44016B6F5401F08D121F070612F4E57
:102DF000766826F070662D4F7E6012E000F4801633
:102E0000B6F5801F06D1032606FA05F4A14341F06A
:102E1000706106E0460D360103FA06F6B14341F053
:102E2000706122B1460D360103FA06F6314300F017
:102E30000046B6F1004F02D11C4EF16101E01B4E7D
:102E40007160F0BD30B500228B071C0F0F2303FA11
:102E500004F2164B08338C1053F824309343134C70
:102E600008348D1044F8253023468C1053F8243054
:102E70008C07240F00FA04F423430C4C08348D1003
:102E800044F8253030BD0A49DC3108607047000045
:102E900000080140000C01400010014000140140F6
:102EA00000180140001C01400020014000000140CA
:102EB0000000204210B50446FE48844208D101219A
:102EC000C014FFF71DF90021E014FFF719F9C4E061
:102ED000B4F1804F08D101210846FFF71EF9002107
:102EE0000120FFF71AF9B8E0F348844208D1012124
:102EF0000220FFF712F900210220FFF70EF9ACE0E3
:102F0000EE48844208D101210420FFF706F9002190
:102F10000420FFF702F9A0E0E948844208D101212A
:102F20000820FFF7FAF800210820FFF7F6F894E0F0
:102F3000E448844208D101211020FFF7EEF8002177
:102F40001020FFF7EAF888E0DF48844208D1012129
:102F50002020FFF7E2F800212020FFF7DEF87CE0D8
:102F6000DA48844208D101214014FFF7C9F8002152
:102F70006014FFF7C5F870E0D548844209D10121FB
:102F8000C804FFF7BDF800214FF40020FFF7B8F8A0
:102F900063E0D048844209D101210805FFF7B0F869
:102FA00000214FF48010FFF7ABF856E0CA48844286
:102FB00009D101214805FFF7A3F800214FF40010C3
:102FC000FFF79EF849E0C548844208D1012140201E
:102FD000FFF7A3F800214020FFF79FF83DE0C0482D
:102FE000844208D101218020FFF797F8002180203A
:102FF000FFF793F831E0BB48844208D101218015E6
:10300000FFF78BF80021A015FFF787F825E0B648F9
:10301000844209D101210804FFF772F800214FF41E
:103020008030FFF76DF818E0B048844209D10121E3
:103030004804FFF765F800214FF40030FFF760F80F
:103040000BE0AB48844208D101218804FFF758F80F
:1030500000214FF48020FFF753F810BD00220288B2
:10306000944B98420ED0994B98420BD0B0F1804FC0
:1030700008D0914B984205D0904B984202D0904B8B
:10308000984204D14FF68F731A404B881A438D4BE8
:10309000984207D08C4B984204D04FF6FF431A4019
:1030A000CB881A4302808B8883850B880385814BEC
:1030B00098420BD0854B984208D08B4B984205D054
:1030C0008A4B984202D08A4B984201D10B7A0386F0
:1030D00001238382704770B5002400220023058CF1
:1030E0004FF6FE7635400584028C8388048B4FF6BC
:1030F0008F752C40B51E2C400D882C43751E2A4020
:103100000D892A434D882A436A4DA8420BD06F4D42
:10311000A84208D0744DA84205D0744DA84202D0F0
:10312000734DA84213D14FF6F7752A404D892A43B3
:103130004FF6FB752A408D882A434FF6FF652B40DA
:103140004FF6FF552B408D892B43CD892B43838030
:103150000483CD888586028470BD70B5002400226A
:103160000023058C4FF6EF7635400584028C83886A
:10317000048B48F6FF752C404FF6FF452C400D8818
:103180004FF6FF7606EA05252C434FF6DF752A40F9
:103190000D8906EA05152A434D8806EA05152A43D6
:1031A000444DA84202D0494DA8421DD14FF67F752B
:1031B0002A404D894FF6FF7606EA05152A434FF659
:1031C000BF752A408D8806EA05152A434FF6FF355C
:1031D0002B404FF2FF752B408D8906EA85052B4366
:1031E000CD8906EA85052B4383800483CD88058736
:1031F000028470BD70B5002400220023058C4FF6B8
:10320000FF6635400584028C8388848B4FF68F756A
:103210002C404FF6FC752C400D882C434FF6FF5583
:103220002A400D894FF6FF7606EA05252A434D8888
:1032300006EA05252A431F4DA84202D0234DA84285
:103240001DD14FF2FF752A404D894FF6FF7606EAF1
:1032500005252A434FF6FF352A408D8806EA0525C5
:103260002A434EF6FF752B404DF6FF752B408D8996
:1032700006EA05152B43CD8906EA05152B43838005
:103280008483CD888587028470BD70B500220023B9
:103290000024058C4EF6FF7635400584038C848827
:1032A000828B48F6FF752A404FF6FF452A400D886D
:1032B00020E00000002C0140000400400008004015
:1032C000000C004000100040001400400034014099
:1032D000004C0140005001400054014000180040E3
:1032E000001C00400020004000400140004401401C
:1032F000004801404FF6FF7606EA05252A434DF6C1
:10330000FF752B400D8906EA05352B434D8806EAEB
:1033100005352B43FA4DA84202D0FA4DA84208D1F8
:103320004BF6FF752C408D894FF6FF7606EA851522
:103330002C4384808283CD88A0F84050038470BDE4
:10334000828B4FF2FF331A408283828B4FF6FF73DA
:1033500003EA01231A4382837047F0B50C461546F1
:10336000002200210026078C4EF6FF7C07EA0C079E
:103370000784828B018C4FF6FF7707EA043640F60C
:10338000FF473A404FF6FF7707EA05273A434FF6E3
:10339000FF7707EA03373A43D94FB8420ED0D94FE7
:1033A000B8420BD0B0F1804F08D0D74FB84205D00B
:1033B000D64FB84202D0D64FB84206D14DF6FF776D
:1033C000394046F48057394305E047F6FF57394006
:1033D00044F48057394382830184F0BD828B4FF6D9
:1033E000F3731A408283828B0A4382837047F0B55D
:1033F0000C461546002200210026078C4FF6FF6C74
:1034000007EA0C070784828B018C4FF6FF7707EAE7
:1034100004264FF60C773A404FF6FF7707EA03177A
:103420002F433A43B64FB8420ED0B64FB8420BD0F6
:10343000B0F1804F08D0B44FB84205D0B34FB84276
:1034400002D0B34FB84206D14FF6FF57394046F489
:103450008077394305E04FF2FF57394044F48077D5
:10346000394382830184F0BD028B4FF2FF331A404F
:103470000283028B4FF6FF7303EA01231A43028390
:103480007047F0B50C461546002200210026078C37
:103490004FF6EF7C07EA0C070784028B018C4FF68E
:1034A000FF7707EA041640F6FF473A404FF6FF77EA
:1034B00007EA03373A434FF6FF7707EA05273A430F
:1034C0008F4FB8420ED08F4FB8420BD0B0F1804F23
:1034D00008D08D4FB84205D08C4FB84202D08C4FE7
:1034E000B84206D14FF6DF77394046F0100739432E
:1034F00005E04FF65F77394044F010073943028307
:103500000184F0BD028B4FF6F3731A400283028BE5
:103510000A4302837047F0B50C461546002200218D
:10352000068C4FF6FE773E400684028B018C4FF6E8
:103530000C7632407E1C06EA03162E433243704E50
:10354000B0420ED06F4EB0420BD0B0F1804F08D0D9
:103550006D4EB04205D06D4EB04202D06C4EB042BE
:1035600006D14FF6FD76314044F00106314305E0C7
:103570004FF6F576314044F0010631430283018471
:10358000F0BD70B505460C465D4885420ED05D48DD
:1035900085420BD0B5F1804F08D05B48854205D0FD
:1035A0005A48854202D05A48854200D100E000BF07
:1035B000208850B92389A28861882846FFF7ABFF8D
:1035C000E1882846FFF79EFF25E0208804280AD1DD
:1035D0002389A28861882846FFF753FFE18828469F
:1035E000FFF742FF17E0208808280AD12389A28824
:1035F00061882846FFF7FBFEE1882846FFF7EEFECC
:1036000009E02389A28861882846FFF7A6FEE188A1
:103610002846FFF795FE70BD2DE9F04105460C46A2
:1036200000260127608808B9022600E00026A0884D
:10363000012801D1022700E001272088A0B92389B1
:10364000A28861882846FFF766FFE1882846FFF7D1
:1036500059FF23893A4631462846FFF712FFE18891
:103660002846FFF701FF13E02389A28861882846D6
:10367000FFF707FFE1882846FFF7F6FE23893A4661
:1036800031462846FFF747FFE1882846FFF73AFF13
:10369000BDE8F0810A884B881A438B881A43CB888F
:1036A0001A430B891A434B891A438B891A43A0F892
:1036B000442070474FF6FF71818000210180C18056
:1036C0004180017270470021018041808180C1806A
:1036D000018141818181C181704700210180418048
:1036E000012181800021C18001817047002101807A
:1036F00041808180C18001814181818170470000CA
:10370000002C01400034014000040040000800404B
:10371000000C004021B1028842F00102028004E066
:1037200002884FF6FE731A400280704731B1B0F83C
:10373000442042F40042A0F8442005E0B0F84420C0
:10374000C2F30E02A0F8442070471AB183890B43DC
:10375000838102E083898B43838170478182704734
:1037600041EA0203A0F8483070471AB183890B433D
:10377000838102E083898B438381704701894FF6FF
:10378000F8721140018170470A46002101894FF605
:103790008F73194011430181704730B504460D46BF
:1037A00029462046FFF7F0FF208940F007002081DE
:1037B00030BD2DE9F04104460D4616461F46602DEA
:1037C00006D13B46012231462046FFF75AFE05E06E
:1037D0003B46012231462046FFF79DFE2946204602
:1037E000FFF7D2FF208940F007002081BDE8F0817B
:1037F00030B50C4600210189C9B24FF6FF7505EAC4
:103800000325154325432943018130BD2DE9F041AE
:1038100005460E4617469846002443463A4631462A
:103820002846FFF7E5FF2C894FF6F870044044F076
:1038300007044FF68F70044044F070042C81BDE8FB
:10384000F081F0B504460D4616461F463B4632460B
:1038500029462046FFF7CCFF208940F48040208194
:10386000F0BD0185828270470A46002101884FF62B
:103870008F731940114301807047F0B50C4615460F
:103880001E460021002200230189028B038C4FF683
:10389000F877394021434FF6FC473A4040F2011790
:1038A0003A434FF6DD773B404FF6FF7707EA0617BE
:1038B0002F433B43018102830384F0BD0A4600216C
:1038C000018B4FF68F7319401143018370470A46ED
:1038D0000021018B48F6FF7319404FF6FF7303EA8E
:1038E00002231943018370470A460021818B4FF65A
:1038F0008F7319401143818370470A460021818BE1
:1039000048F6FF7319404FF6FF7303EA0223194389
:103910008183704721B1028842F08002028004E076
:1039200002884FF67F731A400280704721B1828867
:1039300042F00402828004E082884FF6FB731A4052
:103940008280704721B1828842F00802828004E0C0
:1039500082884FF6F7731A408280704721B18288BF
:1039600042F00102828004E082884FF6FE731A4022
:10397000828070470A460021018B4FF6F773194089
:103980001143018370470A460021018B4FF2FF73F8
:1039900019404FF6FF7303EA02231943018370476E
:1039A0000A460021818B4FF6F7731940114381833A
:1039B00070470A460021818B4FF2FF7319404FF682
:1039C000FF7303EA02231943818370470A460021EB
:1039D000018B4FF6FB7319401143018370470A4670
:1039E0000021018B4FF6FF3319404FF6FF7303EAB6
:1039F00002231943018370470A460021818B4FF649
:103A0000FB7319401143818370470A460021818B63
:103A10004FF6FF3319404FF6FF7303EA02231943B1
:103A2000818370470A460021018B4FF67F7319404E
:103A30001143018370470A460021018BC1F30E0137
:103A40004FF6FF7303EA02231943018370470A46C6
:103A50000021818B4FF67F7319401143818370479A
:103A60000A460021818BC1F30E014FF6FF7303EA72
:103A700002231943818370470A460021018C4FF6C7
:103A8000FD7319401143018470470A460021018CDF
:103A90004FF6F77319401143018470470A4600211D
:103AA000018C4FF6DF7319404FF6FF7303EA0213E0
:103AB0001943018470470A460021018C4FF67F7339
:103AC00019404FF6FF7303EA02131943018470474C
:103AD0000A460021018C4FF6FF5319404FF6FF7341
:103AE00003EA02231943018470470A460021018C2E
:103AF0004FF2FF7319404FF6FF7303EA0223194395
:103B0000018470470A460021018C4DF6FF7319406D
:103B10004FF6FF7303EA023319430184704730B54F
:103B2000002301248C40A3B2048C9C430484048CA5
:103B300002FA01F5ADB22C43048430BD30B5002348
:103B400004248C40A3B2048C9C430484048C02FAA9
:103B500001F5ADB22C43048430BD70B5034600209E
:103B600000241846183001258D40ACB21D8CA543A9
:103B70001D8409B1082909D100EB6100056825F011
:103B8000700505600568154305600EE00D1FC5F35F
:103B90004E052844056825F4E045056005684FF6A4
:103BA000FF7606EA02263543056070BD21B1028822
:103BB00042F00202028004E002884FF6FD731A40D0
:103BC0000280704721B1028842F00402028004E0C2
:103BD00002884FF6FB731A400280704721B1828839
:103BE00042F08002828004E082884FF67F731A40A0
:103BF0008280704702884FF6F7731A40028002886D
:103C00000A430280704782884FF68F731A40828081
:103C100082880A438280704702894FF6F8731A40FF
:103C2000028102890A430281704702894FF67F733D
:103C30001A40028102890A430281704781847047D9
:103C400081857047818670470187704781877047FB
:103C5000A0F84010704702884FF6FF431A400280D8
:103C600002880A43028070470146888E70470146E9
:103C7000088F70470146888F70470146B1F84000B1
:103C800070470146888C70470146088D7047024690
:103C90000020138A0B400BB1012000E00020704788
:103CA000CA430282704730B5024600200023002438
:103CB000158A05EA0103958905EA010413B10CB1DF
:103CC000012000E0002030BDCA430282704700009E
:103CD0000E49086070470D49486070470B4988607D
:103CE00070474AF6AA200949086070474CF6CC4054
:103CF00006490860704701460020044AD2680A401D
:103D00000AB1012000E000207047000000300040B0
:103D10000648804706480047FEE7FEE7FEE7FEE765
:103D2000FEE7FEE7FEE7FEE7FEE7FEE7131C0008FE
:103D30003101000840EA01039B0703D009E008C9EC
:103D4000121F08C0042AFAD203E011F8013B00F860
:103D5000013B521EF9D270472DE9F05F0546002065
:103D600092469B4688460646814640241BE02846EC
:103D700041464746224600F042F853465A46C01A8A
:103D8000914110D311461846224600F029F82D1A09
:103D900067EB01084F4622460120002100F020F881
:103DA00017EB00094E41201EA4F10104DFDC484658
:103DB00031462A464346BDE8F09F0000064C074DB9
:103DC00006E0E06840F0010394E8070098471034EB
:103DD000AC42F6D3FCF7B0F920410008404100089E
:103DE000202A04DB203A00FA02F1002070479140BB
:103DF000C2F1200320FA03F3194390407047202AB0
:103E000004DB203A21FA02F00021704721FA02F384
:103E1000D040C2F12002914008431946704700008B
:103E20000FB4054B10B503A9044A029800F018F826
:103E300010BC5DF814FB000095070008540000203A
:103E400002E008C8121F08C1002AFAD17047704763
:103E5000002001E001C1121F002AFBD170470000C1
:103E60002DE9FF4F8DB09B460F460446002606E025
:103E700025280BD05A460F999047641C761C207851
:103E80000028F5D111B03046BDE8F08F0025A846D6
:103E90000122984900E0054314F8013F203B02FA53
:103EA00003F00842F7D120782E2817D114F8010F1B
:103EB00045F004052A280ED06FF02F022078A0F1DB
:103EC000300109290AD808EB880102EB410100EB17
:103ED0000108641CF2E757F8048B641C20786C28F6
:103EE0000DD004DC4C2812D06A2811D104E07428CB
:103EF0000DD07A280CD10AE045F4001507E061786E
:103F000045F48015814202D1641C05F58015641CBE
:103F10002278692A45D008DC002AB3D0582A69D013
:103F2000632A10D0642A08D13BE0702A67D0732A34
:103F300013D0752A5CD0782A5CD010465A460F9967
:103F40009047761CD3E017F8040B8DF80000002092
:103F50008DF80100E946012003E057F8049B4FF07B
:103F6000FF3069074FF0000501D40AE06D1C45459C
:103F70000DDA8542FADB19F805100029F6D106E0C2
:103F80006D1C8542FCDB19F805100029F8D12E4480
:103F900004E019F8010B5A460F9990476D1EF8D2AC
:103FA000A5E00A200021CDE90801C5F3025002284E
:103FB0000DD001CFC117031E71F100030DDA4FF0D0
:103FC000000CD0EB0C006CEB01012D2308E0FF1D71
:103FD00027F00707F7E80201EDE72B0504D52B23AF
:103FE0008DF8283001233BE0EB0739D02023F7E799
:103FF0000A2000E010200021CDE9080107E0102090
:10400000002145F00405CDE908014FF00808C5F38B
:10401000025002280FD001CF00214FF0000A2B07D9
:104020001FD5702A0DD0DDE908C38CF0100C5CEAB6
:10403000030C0CD015E0FF1D27F00707F7E802017D
:10404000EBE740228DF828204FF0010A0BE050EA00
:10405000010306D030238DF828308DF82920022363
:104060009A46582A04D024A20DF120090B9209E0A7
:1040700026A2F9E7DDE90823FFF76EFE0B9B9B5CA8
:1040800009F8013D50EA0102F4D1ADEB09002030FE
:104090000890680701D44FF001080899884502DDAF
:1040A000A8EB010000E000208046002506E00AA8F9
:1040B0005A46405D0F9990476D1C761C5545F6DBBE
:1040C00004E030205A460F999047761CB8F1000161
:1040D000A8F10108F5DC05E019F8010B5A460F9923
:1040E0009047761C0899481E08900029F4DC641C4F
:1040F000C5E6000009280100303132333435363747
:104100003839616263646566000000003031323323
:1041100034353637383941424344454600000000C3
:10412000404100080000002058000000403E000808
:104130009841000858000020601E0000503E000812
:10414000000000000000000000000000000000006F
:10415000000000000000000000000000000000005F
:1041600000000000000000000000000000A24A045F
:104170000000000000000000010203040607080917
:1041800000000000010203040102030406070809FD
:08419000020406080000000013
:0400000508000131BD
:00000001FF
