:020000040800F2
:10000000D8150020B917000845010008470100086D
:100010006B0100086F010008730100080000000078
:100020000000000000000000000000007701000850
:1000300079010008000000007B010008B7080008F3
:10004000D3170008D3170008D3170008D3170008E8
:10005000D3170008D3170008D3170008D3170008D8
:10006000D3170008D3170008D3170008D3170008C8
:10007000D3170008D3170008D3170008D3170008B8
:10008000D3170008D3170008D3170008D3170008A8
:10009000D3170008D3170008D3170008D317000898
:1000A000D3170008D3170008D3170008D317000888
:1000B000D3170008D3170008D3170008D317000878
:1000C000D3170008D3170008D3170008D317000868
:1000D000D317000887030008D3170008D3170008B8
:1000E000D3170008D3170008D3170008D317000848
:1000F000D3170008D3170008D3170008D317000838
:10010000D3170008D3170008D3170008D317000827
:10011000D3170008D3170008D3170008D317000817
:10012000D3170008D3170008D3170008D317000807
:10013000DFF80CD001F064FB00480047850100089F
:10014000D815002070470FE071B600BF0B4800685B
:1001500000F4E0600A490843001D08490860BFF345
:10016000408F00BF00BFFEE7EEE700BFFEE700BF25
:10017000FEE700BFFEE77047704770470CED00E0F8
:100180000000FA0508B500F061F84FF4E13000F026
:1001900085F800F093F900F057FB2820204B4FF42E
:1001A000806220490090204800F0ACFB28201F4BC3
:1001B0004FF480621E4900901E4800F0A3FB2EE021
:1001C0001D48006840F6B83188420CD311221B4903
:1001D000154800F0B7FB1E221949134800F0B2FB86
:1001E00000201549086010480069002807DD0E4806
:1001F0000169144800F0ABF800200B49086112496E
:100200000C4800F0C6FB0B49C8600846C0680028CF
:1002100005DD08460C49C268034800F093FBCFE7B0
:10022000800400208000002068110020A808002021
:10023000A8040020A0110020500000200000002091
:1002400011000020660D0020D008002008B54FF4F2
:10025000A06000F0BFFC25208DF8000000208DF884
:1002600001008DF8020001208DF80300684600F0BF
:10027000B6FC08BD71B600BF0648006800F4E06037
:1002800005490843001D03490860BFF3408F00BFC4
:1002900000BFFEE70CED00E00000FA0510B586B0E7
:1002A0000446012144F2040000F070FE4FF4007097
:1002B000ADF8140003208DF8160018208DF81700F3
:1002C00005A9754801F02AF94FF48060ADF81400D3
:1002D00004208DF8170005A96F4801F01FF901945B
:1002E0000020ADF80800ADF80A00ADF80C00ADF83C
:1002F00010000C20ADF80E0001A9684800F0EDFEDA
:10030000012240F22551654800F07FFF012240F2B2
:100310002441624800F079FF0121604800F069FF44
:1003200006B010BD70B504460D460BE014F8011B75
:100330005A4800F0CBFF00BF8021584801F034F844
:100340000028F9D02800A5F10105EFD170BD70B5E6
:1003500005460C465248056052480460012240F2AE
:1003600027714E4800F051FF70BD10B5044621467C
:100370004A4800F0ABFF00BF8021484801F014F864
:100380000028F9D010BD10B540F22551434801F0C6
:1003900021F898B1414800F09DFFC4B2424843495A
:1003A0000968445441480068401C404908600846B8
:1003B00000688C2817D90020086014E040F224411E
:1003C000364801F007F801280DD13448001D008897
:1003D00037490870354834490268364800F0B2FAA7
:1003E00000203249086040F227712C4800F0F2FFEB
:1003F00020B32C48006880B129480068017827485C
:1004000000F064FF26480068401C25490860254824
:100410000068401E2349086010E040F227711F4821
:1004200001F002F8002240F227711C4800F0EDFEB6
:10043000012240F22661194800F0E7FE40F22661F1
:10044000164800F0C7FF50B140F22661134800F093
:10045000EBFF002240F22661104800F0D6FE10BDEE
:1004600070B504460E46E5B21348007838B901204D
:100470001149087040F22661084800F0D5FFE1B24A
:10048000064800F023FF00BF4021044800F08CFF25
:100490000028F9D0204670BD000801400038014016
:1004A0004400002048000020D00C00203000002034
:1004B00041000020A01100204C00002008B50121BF
:1004C0007D2000F063FD4FF40050ADF800001020D7
:1004D0008DF8030003208DF802006946154801F0ED
:1004E0001DF80420ADF8000010208DF80300032053
:1004F0008DF802006946104801F010F82020ADF890
:10050000000048208DF8030003208DF802006946A2
:10051000094801F003F84FF40070ADF80000142012
:100520008DF8030003208DF802006946024800F0B0
:10053000F5FF08BD00100140000C014070B50446F5
:100540000D4616461CB991A001F06CF970BD2660ED
:10055000E560E0686060E068A06000BFF6E710B5A5
:1005600004461CB989A001F05DF910BD0020E060CF
:100570006060A060206000BFF7E710B504462CB9AA
:1005800082A001F04FF94FF0FF3010BD2068FCE76A
:1005900010B504462CB97DA001F044F94FF0FF30AE
:1005A00010BDD4E90101884201D10020F8E7D4E967
:1005B0000101884203D2D4E90110401AF0E7204635
:1005C000FFF7DBFFD4E90112891A401AE8E770B59A
:1005D00004462CB96DA001F025F94FF0FF3070BD35
:1005E0002046FFF7CAFF05462046FFF7D1FF281A2D
:1005F000F5E72DE9F04104460F46164600252CB9D3
:1006000062A001F00FF9681EBDE8F0812FB966A065
:1006100001F008F94FF0FF30F6E7D4E90101884214
:1006200014D22046FFF7B4FFB04201D9304602E0B1
:100630002046FFF7ADFF05462A463846616801F0BF
:10064000CDF86068284460602846DDE72046FFF763
:1006500094FFE2686168891A401AB0420AD93546A7
:100660002A463846616801F0B9F86068284460603D
:100670002846C9E72046FFF780FFE2686168891ACB
:10068000451A2A463846616801F0A8F8E0686060BB
:10069000721B79192046FFF7ACFF05442846B3E7E3
:1006A0002DE9F04104460F46154600262CB945A019
:1006B00001F0B8F8701EBDE8F0812FB947A001F035
:1006C000B1F84FF0FF30F6E72046FFF780FFA84271
:1006D00005D848A001F0A6F84FF0FF30EBE7D4E9C9
:1006E000010188422AD82046FFF747FFD4E90212C9
:1006F000891A461AB54213D82A463946A06801F02D
:100700006DF8A0682844A0602046FFF736FFE16836
:100710000844A168884201D1E068A0602846CAE781
:1007200032463946A06801F059F8E068A060AA1B7B
:10073000B9192046FFF7B4FF3044BCE72A463946D2
:10074000A06801F04BF8A0682844A0602846B2E7F2
:100750002DE9F04107460C46154600262CB92AA083
:1007600001F060F8701EBDE8F0812A462146384647
:10077000FFF796FF0646AE4205D02CA001F052F8D6
:100780004FF0FF30EFE73046EDE700004552524FA3
:10079000523A20696E707574207262206973204E1F
:1007A000554C4C0A000000004552524F523A206905
:1007B0006E7075742064617461206973204E554CAD
:1007C0004C0A00004552524F523A2072622069731F
:1007D00020656D707479200A000000004552524F68
:1007E000523A206461746120697320656D70747978
:1007F000200A00004552524F523A206E6F206D651C
:100800006D6F7279200A00004552524F523A2067AC
:10081000697A5075744461746120627566206973E9
:1008200020656D707479200A000000004552524F17
:10083000523A204661696C656420746F2072625779
:1008400072697465200A000070B56FF0040000F052
:1008500010FA264800684FF47A72B0FBF2F1B1F159
:10086000807F00D31DE021F07F40401E4FF0E0224A
:10087000506150170F22002807DA13071D0E1C4B7A
:1008800000F00F04241F1D5503E013071C0E194B25
:100890001C5400BF00204FF0E0229061072010613F
:1008A00000BF70BD0021144A116000BF12490968E1
:1008B0008142FBD3704710B50F480068401C0E49B9
:1008C00008600E48006980B90C484068401C0B491C
:1008D0004860084640680A2807DB0020486008494D
:1008E000064800F056F80549086110BD5400002084
:1008F00018ED00E000E400E0500000206811002046
:10090000660D00202DE9F04104460E4617461D46AF
:10091000DDF8188072B63A46314604F11800FFF748
:100920000DFE4246294604F12800FFF707FE00208D
:10093000206060602072E0606072206162B600201A
:10094000BDE8F081F7B504460E4672B604F1180012
:10095000FFF73DFE0299884216D904F12800FFF7FF
:1009600036FE04280DDD314604F11800029AFFF727
:10097000EFFE042202A904F12800FFF7E9FE00259A
:1009800004E06FF0010501E06FF0020562B6284651
:10099000FEBD70B504460D46002672B604F128006F
:1009A000FFF7F6FD042810DB042204F1140104F122
:1009B0002800FFF71EFE6069002806DD294604F1C5
:1009C00018006269FFF715FE064662B6304670BD34
:1009D00072B6426AC261426A0262426BC262426B92
:1009E00002630021016041600172C16041720161D6
:1009F00062B670470CB50020019000906C4800680A
:100A000040F480306A49086000BF6948006800F41B
:100A1000003000900198401C0190009818B901988E
:100A2000B0F5A06FF1D16248006800F4003010B159
:100A30000120009001E0002000900098012843D19F
:100A40005C48006840F010005A4908600846006899
:100A500020F0030008600846006840F002000860CB
:100A60005348406852494860084640684860084614
:100A7000406840F4806048600846406820F47C107C
:100A800048600846406840F4E8104860084600683E
:100A900040F08070086000BF4548006800F00070BA
:100AA0000028F9D04248406820F0030040494860DF
:100AB0000846406840F00200486000BF3C4840687B
:100AC00000F00C000828F9D10CBD10B5FFF792FF1B
:100AD00010BD10B53648006840F001003449086088
:100AE0000846406834490840314948600846006873
:100AF000324908402E4908600846006820F48020EA
:100B000008600846406820F4FE0048604FF41F006B
:100B10008860FFF7DAFF4FF000602949086010BDD8
:100B200010B5002100200022214B5B6803F00C016E
:100B300021B1042906D0082928D107E0214B224CF5
:100B4000236027E01F4B204C236023E0184B5B6899
:100B500003F47010164B5B6803F48032022303EB3E
:100B6000904022B9194B4343174C23600DE0104BC2
:100B70005B6803F4003323B1144B4343124C2360EE
:100B800003E0104B4343104C236003E00D4B0E4C2D
:100B9000236000BF00BF064B5B68C3F303130C4C1C
:100BA000E15C094B1B68CB40074C236010BD000083
:100BB00000100240002002400000FFF8FFFFF6FE98
:100BC00008ED00E000127A005400002000093D000A
:100BD0005800002031490143314A1160704770B517
:100BE000002100230F22C47804B32D4C246804F4A0
:100BF000E064C4F5E064210AC1F10403CA4044780A
:100C000004FA03F18478144021430901254C067845
:100C1000A155047804F01F050124AC4005786D113E
:100C2000AD0005F1E025C5F8004109E0047804F0C5
:100C30001F050124AC401C4D0678761145F826406E
:100C400070BD1A4A0A400243154B1B1F1A607047B9
:100C500039B1134A121D12680243114B1B1D1A6051
:100C600006E00F4A121D126882430D4B1B1D1A60CD
:100C70007047042808D14FF0E021096941F00401D0
:100C80004FF0E022116107E04FF0E021096921F007
:100C900004014FF0E0221161704700000000FA05E6
:100CA0000CED00E000E400E080E100E080FFFF1FC9
:100CB000DF48006840F00100DD49086008464068F0
:100CC000DC490840DA49486008460068DA490840CB
:100CD000D74908600846006820F48020086008466C
:100CE000406820F4FE0048604FF41F0088607047A1
:100CF000CF49096821F48031CD4A11601146096855
:100D000021F480211160B0F5803F03D0B0F5802F31
:100D10000ED106E0C649096841F48031C44A116029
:100D200007E0C349096841F4A021C14A116000E00D
:100D300000BF00BF704710B501460022002300200D
:100D40004A11012A02D1BA4C236806E0022A02D1D4
:100D5000B74C236A01E0B64C636A01F01F0201241C
:100D600094401C400CB1012000E0002010BD38B5BB
:100D7000002000900024002500BF3120FFF7DBFF9A
:100D800005460098401C00900098B0F5A06F01D077
:100D9000002DF2D03120FFF7CEFF08B1012400E092
:100DA0000024204638BD01460020A14A106820F0EA
:100DB000F80040EAC10010607047A0490860704721
:100DC000024600209A4B586820F47C1042EA010346
:100DD0001843974B5860704798490866704701461A
:100DE0000020934A506820F0030008435060704789
:100DF0008F48406800F00C007047014600208C4A84
:100E0000506820F0F0000843506070470146002011
:100E1000874A506820F4E0600843506070470146FC
:100E20000020834A506820F4605040EAC1005060BE
:100E3000704729B17E4A527A02437D4B5A7204E0D0
:100E40007B4A527A82437A4B5A7270477B49D83137
:100E50000860704701460020754A506820F4404001
:100E60000843506070470021714A20321170704A67
:100E700082F82010012802D004280AD104E00121C0
:100E80006B4A2032117005E00521694A2032117049
:100E900000E000BF00BF70476949086070476449BF
:100EA000096A0143624A1162704765494439086022
:100EB000704730B500210022002400235C4D6D688E
:100EC00005F00C0121B1042905D0082923D105E042
:100ED0005C4D056022E05B4D05601FE0544D6D6880
:100EE00005F47012524D6D6805F48034022505EB4F
:100EF00092421CB9544D554305600BE04C4D6D6852
:100F000005F400351DB1504D5543056002E04D4DCF
:100F10005543056002E04B4D056000BF00BF444DE6
:100F20006D6805F0F0010909484D6B5C0568DD400E
:100F300045603F4D6D6805F4E061090A434D6B5C07
:100F40004568DD4085603A4D6D6805F46051C90A19
:100F50003E4D6B5C4568DD40C560354D6D6805F400
:100F60004041890B3A4D6B5CC568B5FBF3F50561F3
:100F700030BD29B12E4A526902432D4B5A6104E01B
:100F80002B4A526982432A4B5A61704729B1284A39
:100F900092690243264B9A6104E0254A9269824392
:100FA000234B9A61704729B1214AD2690243204BF1
:100FB000DA6104E01E4AD26982431D4BDA61704750
:100FC00029B11B4AD2680243194BDA6004E0184A7F
:100FD000D2688243164BDA60704729B1144A12690D
:100FE0000243134B1A6104E0114A12698243104B09
:100FF0001A61704712494039086070470F49C86448
:1010000070470B49C87170470948406A40F08070CA
:1010100007494862704701460020054A92680A4025
:101020000AB1012000E00020704701498872704732
:10103000001002400000FFF8FFFFF6FE00004242F1
:101040008004424200127A0000093D00680000203E
:101050007800002010B50446FB48844209D10121E4
:101060008803FFF7ADFF00214FF48040FFF7A8FF92
:1010700032E0F648844209D101214804FFF7ADFF70
:1010800000214FF40030FFF7A8FF25E0F04884422C
:1010900009D101218804FFF7A0FF00214FF480202F
:1010A000FFF79BFF18E0EB48844209D10121C804F7
:1010B000FFF793FF00214FF40020FFF78EFF0BE0B6
:1010C000E548844208D101210805FFF786FF002189
:1010D0004FF48010FFF781FF10BD2DE9F04786B077
:1010E00005460E460024A24600BFA1460027B0894F
:1010F00000B100BF2F462C8A4CF6FF700440F088E8
:1011000004432C82AC894EF6F3100440B088318938
:101110000843718908430443AC81AC8A4FF6FF4011
:101120000440B0890443AC8201A8FFF7C2FEC64860
:10113000874202D1DDF810A001E0DDF80CA0A889FB
:1011400000F4004040B10AEBCA0000EB0A1031681D
:101150004900B0FBF1F807E00AEBCA0000EB0A1007
:1011600031688900B0FBF1F86420B8FBF0F00401AD
:101170002009642101FB1089A88900F4004040B1D6
:10118000322000EBC900B0FBF1F000F0070004438F
:1011900008E0322000EB09106421B0FBF1F000F010
:1011A0000F0004432C8106B0BDE8F0874FF41651C0
:1011B000016000218180C18001810C2141810021D9
:1011C0008181704710B502460020108A4FF2FF035C
:1011D00018400B884C8823438C882343CC882343B6
:1011E0001843108210BD0021018041808180C180A0
:1011F000704721B1828942F40052828104E08289E1
:101200004DF6FF731A4082817047F0B50346002403
:1012100000260025002040F66A17B94200D100BF21
:101220001846C1F3421401F01F06012707FA06F51C
:10123000012C01D10C3004E0022C01D1103000E06F
:1012400014301AB107682F43076002E00768AF4304
:101250000760F0BD1AB1838A0B43838202E0838A60
:101260008B4383827047028A4FF6F0731A400282E2
:10127000028A0A430282704782894FF2FF731A4042
:10128000828182890A438281704721B1828942F03A
:101290000202828104E082894FF6FD731A40828146
:1012A0007047028A4FF6DF731A400282028A0A43AD
:1012B0000282704721B1028A42F48042028204E035
:1012C000028A4BF6FF731A4002827047C1F308028C
:1012D0008280704701468888C0F308007047818982
:1012E00041F0010181817047028BD2B20283028BEF
:1012F00042EA012202837047028B02F47F4202839A
:10130000028B0A430283704721B1828A42F0200295
:10131000828204E0828A4FF6DF731A40828270472D
:1013200021B1828A42F01002828204E0828A4FF662
:10133000EF731A408282704721B1828A42F008021C
:10134000828204E0828A4FF6F7731A4082827047E5
:1013500021B1828942F40042828103E08289C2F392
:101360000E028281704721B1828A42F40062828239
:1013700004E0828A4FF2FF731A4082827047828AA9
:101380004FF6FB731A408282828A0A438282704738
:1013900021B1828A42F00202828204E0828A4FF600
:1013A000FD731A408282704702460020B1F5007F2B
:1013B00000D100BF13880B400BB1012000E00020DA
:1013C000704701F40072B2F5007F00D100BFCA433C
:1013D0000280704770B502460024002300250020DB
:1013E00040F66A16B14200D100BFC1F3421501F0C8
:1013F0001F03012606FA03F3012D02D1968933401B
:1014000006E0022D02D1168A334001E0968A33406D
:101410000C12012606FA04F41688344013B10CB1FC
:10142000012000E0002070BD10B50022002340F62E
:101430006A14A14200D100BF0A1201249440A3B251
:10144000DC43048010BD000000380140004400402F
:1014500000480040004C00400050004010B50446D9
:10146000CC48844208D101210420FFF7A9FD0021C6
:101470000420FFF7A5FD46E0C748844208D10121BA
:101480000820FFF79DFD00210820FFF799FD3AE0B5
:10149000C248844208D101211020FFF791FD0021AC
:1014A0001020FFF78DFD2EE0BD48844208D10121B8
:1014B0002020FFF785FD00212020FFF781FD22E09D
:1014C000B848844208D101214020FFF779FD00216E
:1014D0004020FFF775FD16E0B348844208D1012192
:1014E0008020FFF76DFD00218020FFF769FD0AE0F5
:1014F000AE48844207D101218015FFF761FD00212C
:10150000A015FFF75DFD10BD10B501210846FFF7DE
:1015100057FD00210120FFF753FD10BD2DE9F041DB
:10152000024600250026002000230024002791F811
:1015300003C00CF00F0591F803C00CF0100CBCF1C7
:10154000000F03D091F802C04CEA050591F800C0E5
:10155000BCF1000F31D0146800202BE04FF0010CDB
:101560000CFA00F3B1F800C00CEA03069E4220D149
:1015700083004FF00F0C0CFA03F7BC4305FA03FC91
:101580004CEA040491F803C0BCF1280F06D14FF0D7
:10159000010C0CFA00FCC2F814C00AE091F803C078
:1015A000BCF1480F05D14FF0010C0CFA00FCC2F859
:1015B00010C0401C0828D1D31460B1F800C0BCF1A1
:1015C000FF0F34DD546800202EE000F1080C4FF0CE
:1015D000010808FA0CF3B1F800C00CEA03069E42B9
:1015E00021D183004FF00F0C0CFA03F7BC4305FA2E
:1015F00003FC4CEA040491F803C0BCF1280F05D1A8
:1016000000F1080C08FA0CF8C2F8148091F803C035
:10161000BCF1480F07D100F1080C4FF0010808FA9F
:101620000CF8C2F81080401C0828CED35460BDE8E6
:10163000F0814FF6FF710180022181700421C17099
:1016400070470246002093680B400BB1012000E078
:10165000002070470146886880B27047024600202B
:10166000D3680B400BB1012000E000207047014619
:10167000C86880B2704701617047416170470AB124
:10168000016100E041617047C16070474FF48032F2
:101690000A43826181618261826982697047024680
:1016A0000020434B18684FF68073184040EA021040
:1016B00008433F4B186070473E49C8617047F0B51A
:1016C0000A46002300240021002500F00046B6F160
:1016D000004F02D1364EF16901E0354E7168C0F31A
:1016E000034583B200F44016B6F5401F08D121F03F
:1016F00070612F4E766826F070662D4F7E6012E086
:1017000000F48016B6F5801F06D1032606FA05F40C
:10171000A14341F0706106E0460D360103FA06F67A
:10172000B14341F0706122B1460D360103FA06F66D
:10173000314300F00046B6F1004F02D11C4EF1617A
:1017400001E01B4E7160F0BD30B500228B071C0F0D
:101750000F2303FA04F2164B08338C1053F824308D
:101760009343134C08348D1044F8253023468C10D5
:1017700053F824308C07240F00FA04F423430C4C54
:1017800008348D1044F8253030BD0A49DC3108603A
:101790007047000000080140000C014000100140AB
:1017A0000014014000180140001C014000200140CD
:1017B00000000140000020420648804706480047DC
:1017C000FEE7FEE7FEE7FEE7FEE7FEE7FEE7FEE7F1
:1017D000FEE7FEE7D30A00083101000840EA0103F2
:1017E0009B0703D009E008C9121F08C0042AFAD2D7
:1017F00003E011F8013B00F8013B521EF9D270479B
:10180000064C074D06E0E06840F0010394E807004D
:1018100098471034AC42F6D3FEF78EFC74180008DB
:1018200094180008014A024900F013B86104000846
:101830007C00002002E008C8121F08C1002AFAD16B
:1018400070477047002001E001C1121F002AFBD140
:1018500070472DE9F04116460F460446002503E087
:101860003946B047641C6D1C20780028F8D1284602
:10187000BDE8F081941800080000002080000000FE
:1018800034180008141900088000002058150000C2
:101890004418000831313131313131313131313198
:1018A0003131310D0A30303030303030303030307E
:1018B0003030303030303030303030303030303028
:1018C0000D0A000000000000000000000000000001
:1018D0000A000000000000000000000000000000FE
:1018E000000000000000000000A24A040000000008
:1018F00000000000010203040607080900000000C0
:101900000102030401020304060708090204060891
:0419100000000000D3
:0400000508000131BD
:00000001FF
